{
  "contractName": "Bank",
  "abi": [
    {
      "constant": false,
      "inputs": [],
      "name": "getResetFundingAccountPaymentsTracking",
      "outputs": [
        {
          "name": "",
          "type": "uint256"
        }
      ],
      "payable": false,
      "stateMutability": "nonpayable",
      "type": "function"
    },
    {
      "constant": false,
      "inputs": [],
      "name": "rotateKey",
      "outputs": [],
      "payable": false,
      "stateMutability": "nonpayable",
      "type": "function"
    },
    {
      "constant": true,
      "inputs": [],
      "name": "getPreAuthKey",
      "outputs": [
        {
          "name": "",
          "type": "address"
        }
      ],
      "payable": false,
      "stateMutability": "view",
      "type": "function"
    },
    {
      "constant": true,
      "inputs": [],
      "name": "getPreAuthExpiry",
      "outputs": [
        {
          "name": "",
          "type": "uint256"
        }
      ],
      "payable": false,
      "stateMutability": "view",
      "type": "function"
    },
    {
      "constant": false,
      "inputs": [
        {
          "name": "_bankTransactionIdx",
          "type": "uint256"
        },
        {
          "name": "_accountType",
          "type": "uint256"
        },
        {
          "name": "_paymentAccountHashSender",
          "type": "bytes32"
        },
        {
          "name": "_paymentSubject",
          "type": "bytes32"
        },
        {
          "name": "_bankCreditAmount_Cu",
          "type": "uint256"
        }
      ],
      "name": "processAccountCredit",
      "outputs": [
        {
          "name": "",
          "type": "bool"
        }
      ],
      "payable": false,
      "stateMutability": "nonpayable",
      "type": "function"
    },
    {
      "constant": false,
      "inputs": [
        {
          "name": "_trustAdr",
          "type": "address"
        },
        {
          "name": "_poolAdr",
          "type": "address"
        },
        {
          "name": "_bondAdr",
          "type": "address"
        },
        {
          "name": "_bankAdr",
          "type": "address"
        },
        {
          "name": "_policyAdr",
          "type": "address"
        },
        {
          "name": "_settlementAdr",
          "type": "address"
        },
        {
          "name": "_adjustorAdr",
          "type": "address"
        },
        {
          "name": "_timerAdr",
          "type": "address"
        }
      ],
      "name": "setContractAdr",
      "outputs": [],
      "payable": false,
      "stateMutability": "nonpayable",
      "type": "function"
    },
    {
      "constant": true,
      "inputs": [],
      "name": "getBankAdr",
      "outputs": [
        {
          "name": "",
          "type": "address"
        }
      ],
      "payable": false,
      "stateMutability": "view",
      "type": "function"
    },
    {
      "constant": true,
      "inputs": [
        {
          "name": "",
          "type": "uint256"
        }
      ],
      "name": "bankTransactionIdxProcessed",
      "outputs": [
        {
          "name": "",
          "type": "bool"
        }
      ],
      "payable": false,
      "stateMutability": "view",
      "type": "function"
    },
    {
      "constant": false,
      "inputs": [
        {
          "name": "_adr",
          "type": "address"
        }
      ],
      "name": "addKey",
      "outputs": [],
      "payable": false,
      "stateMutability": "nonpayable",
      "type": "function"
    },
    {
      "constant": true,
      "inputs": [],
      "name": "getPolicyAdr",
      "outputs": [
        {
          "name": "",
          "type": "address"
        }
      ],
      "payable": false,
      "stateMutability": "view",
      "type": "function"
    },
    {
      "constant": true,
      "inputs": [],
      "name": "EXT_ACCESS_PRE_AUTH_DURATION_SEC",
      "outputs": [
        {
          "name": "",
          "type": "uint256"
        }
      ],
      "payable": false,
      "stateMutability": "view",
      "type": "function"
    },
    {
      "constant": true,
      "inputs": [],
      "name": "getSettlementAdr",
      "outputs": [
        {
          "name": "",
          "type": "address"
        }
      ],
      "payable": false,
      "stateMutability": "view",
      "type": "function"
    },
    {
      "constant": true,
      "inputs": [],
      "name": "getAdjustorAdr",
      "outputs": [
        {
          "name": "",
          "type": "address"
        }
      ],
      "payable": false,
      "stateMutability": "view",
      "type": "function"
    },
    {
      "constant": false,
      "inputs": [
        {
          "name": "_adviceType",
          "type": "uint8"
        },
        {
          "name": "_paymentAccountHashRecipient",
          "type": "bytes32"
        },
        {
          "name": "_paymentSubject",
          "type": "bytes32"
        },
        {
          "name": "_amount_Cu",
          "type": "uint256"
        },
        {
          "name": "_internalReferenceHash",
          "type": "bytes32"
        }
      ],
      "name": "createPaymentAdvice",
      "outputs": [],
      "payable": false,
      "stateMutability": "nonpayable",
      "type": "function"
    },
    {
      "constant": true,
      "inputs": [],
      "name": "getTimerAdr",
      "outputs": [
        {
          "name": "",
          "type": "address"
        }
      ],
      "payable": false,
      "stateMutability": "view",
      "type": "function"
    },
    {
      "constant": false,
      "inputs": [
        {
          "name": "_idx",
          "type": "uint256"
        },
        {
          "name": "_bankTransactionIdx",
          "type": "uint256"
        }
      ],
      "name": "processPaymentAdvice",
      "outputs": [],
      "payable": false,
      "stateMutability": "nonpayable",
      "type": "function"
    },
    {
      "constant": true,
      "inputs": [],
      "name": "fundingAccountPaymentsTracking_Cu",
      "outputs": [
        {
          "name": "",
          "type": "uint256"
        }
      ],
      "payable": false,
      "stateMutability": "view",
      "type": "function"
    },
    {
      "constant": true,
      "inputs": [],
      "name": "getContractAdr",
      "outputs": [
        {
          "name": "trustContractAdr",
          "type": "address"
        },
        {
          "name": "poolContractAdr",
          "type": "address"
        },
        {
          "name": "bondContractAdr",
          "type": "address"
        },
        {
          "name": "bankContractAdr",
          "type": "address"
        },
        {
          "name": "policyContractAdr",
          "type": "address"
        },
        {
          "name": "settlementContractAdr",
          "type": "address"
        },
        {
          "name": "adjustorContractAdr",
          "type": "address"
        },
        {
          "name": "timerContractAdr",
          "type": "address"
        }
      ],
      "payable": false,
      "stateMutability": "view",
      "type": "function"
    },
    {
      "constant": false,
      "inputs": [],
      "name": "preAuth",
      "outputs": [],
      "payable": false,
      "stateMutability": "nonpayable",
      "type": "function"
    },
    {
      "constant": true,
      "inputs": [],
      "name": "getTrustAdr",
      "outputs": [
        {
          "name": "",
          "type": "address"
        }
      ],
      "payable": false,
      "stateMutability": "view",
      "type": "function"
    },
    {
      "constant": true,
      "inputs": [],
      "name": "getBondAdr",
      "outputs": [
        {
          "name": "",
          "type": "address"
        }
      ],
      "payable": false,
      "stateMutability": "view",
      "type": "function"
    },
    {
      "constant": true,
      "inputs": [],
      "name": "countPaymentAdviceEntries",
      "outputs": [
        {
          "name": "",
          "type": "uint256"
        }
      ],
      "payable": false,
      "stateMutability": "view",
      "type": "function"
    },
    {
      "constant": true,
      "inputs": [
        {
          "name": "",
          "type": "uint256"
        }
      ],
      "name": "bankPaymentAdvice",
      "outputs": [
        {
          "name": "adviceType",
          "type": "uint8"
        },
        {
          "name": "paymentAccountHashRecipient",
          "type": "bytes32"
        },
        {
          "name": "paymentSubject",
          "type": "bytes32"
        },
        {
          "name": "amount",
          "type": "uint256"
        },
        {
          "name": "internalReferenceHash",
          "type": "bytes32"
        }
      ],
      "payable": false,
      "stateMutability": "view",
      "type": "function"
    },
    {
      "constant": true,
      "inputs": [],
      "name": "getExtAccessKey",
      "outputs": [
        {
          "name": "authKey0",
          "type": "address"
        },
        {
          "name": "authKey1",
          "type": "address"
        },
        {
          "name": "authKey2",
          "type": "address"
        },
        {
          "name": "authKey3",
          "type": "address"
        },
        {
          "name": "authKey4",
          "type": "address"
        }
      ],
      "payable": false,
      "stateMutability": "view",
      "type": "function"
    },
    {
      "constant": true,
      "inputs": [],
      "name": "getPoolAdr",
      "outputs": [
        {
          "name": "",
          "type": "address"
        }
      ],
      "payable": false,
      "stateMutability": "view",
      "type": "function"
    },
    {
      "inputs": [
        {
          "name": "_trustAdr",
          "type": "address"
        }
      ],
      "payable": false,
      "stateMutability": "nonpayable",
      "type": "constructor"
    },
    {
      "anonymous": false,
      "inputs": [
        {
          "indexed": true,
          "name": "internalReferenceHash",
          "type": "bytes32"
        },
        {
          "indexed": true,
          "name": "accountType",
          "type": "uint256"
        },
        {
          "indexed": true,
          "name": "success",
          "type": "bool"
        },
        {
          "indexed": false,
          "name": "paymentAccountHash",
          "type": "bytes32"
        },
        {
          "indexed": false,
          "name": "paymentSubject",
          "type": "bytes32"
        },
        {
          "indexed": false,
          "name": "info",
          "type": "bytes32"
        },
        {
          "indexed": false,
          "name": "timestamp",
          "type": "uint256"
        },
        {
          "indexed": false,
          "name": "transactionType",
          "type": "uint256"
        },
        {
          "indexed": false,
          "name": "amount",
          "type": "uint256"
        }
      ],
      "name": "LogBank",
      "type": "event"
    }
  ],
  "bytecode": "0x606060405260098054600160a060020a03191690556000600a819055600c819055600e5534156200002f57600080fd5b6040516020806200223783398101604052808051915033905081600160a060020a03811615156200005f57600080fd5b60008054600160a060020a031916600160a060020a03928316179055811615156200008957600080fd5b620000a28164010000000062000c76620000aa82021704565b505062000634565b600260009081526008602052600080516020620021b783398151915254600160a060020a031615620001ec5742600a54118015620000f25750600954600160a060020a031615155b80156200010e575060095433600160a060020a03908116911614155b15156200011a57600080fd5b60016000526008602052600080516020620021d78339815191525433600160a060020a039081169116148062000176575060026000526008602052600080516020620021b78339815191525433600160a060020a039081169116145b80620001a8575060036000526008602052600080516020620021978339815191525433600160a060020a039081169116145b80620001da575060046000526008602052600080516020620022178339815191525433600160a060020a039081169116145b1515620001e657600080fd5b620002d9565b600080526008602052600080516020620021f783398151915254600160a060020a031615806200026e575060016000526008602052600080516020620021d783398151915254600160a060020a03161580156200026e5750600080526008602052600080516020620021f78339815191525433600160a060020a039081169116145b80620002cd575060026000526008602052600080516020620021b783398151915254600160a060020a0316158015620002cd575060016000526008602052600080516020620021d78339815191525433600160a060020a039081169116145b1515620002d957600080fd5b60098054600160a060020a03191690556000600a55600160a060020a03821615156200030457600080fd5b600080526008602052600080516020620021f783398151915254600160a060020a0383811691161480159062000360575060016000526008602052600080516020620021d783398151915254600160a060020a03838116911614155b801562000393575060026000526008602052600080516020620021b783398151915254600160a060020a03838116911614155b8015620003c65750600360005260086020526000805160206200219783398151915254600160a060020a03838116911614155b8015620003f95750600460005260086020526000805160206200221783398151915254600160a060020a03838116911614155b15156200040557600080fd5b600460005260086020526000805160206200221783398151915254600160a060020a0316156200043457600080fd5b50803b80156200044357600080fd5b600080526008602052600080516020620021f783398151915254600160a060020a03161515620004a557600080526008602052600080516020620021f78339815191528054600160a060020a031916600160a060020a03841617905562000630565b60016000526008602052600080516020620021d783398151915254600160a060020a03161515620005095760016000526008602052600080516020620021d78339815191528054600160a060020a031916600160a060020a03841617905562000630565b60026000526008602052600080516020620021b783398151915254600160a060020a031615156200056d5760026000526008602052600080516020620021b78339815191528054600160a060020a031916600160a060020a03841617905562000630565b600360005260086020526000805160206200219783398151915254600160a060020a03161515620005d15760036000526008602052600080516020620021978339815191528054600160a060020a031916600160a060020a03841617905562000630565b600460005260086020526000805160206200221783398151915254600160a060020a03161515620006305760046000526008602052600080516020620022178339815191528054600160a060020a031916600160a060020a0384161790555b5050565b611b5380620006446000396000f3006060604052600436106101485763ffffffff7c01000000000000000000000000000000000000000000000000000000006000350416631016ef53811461014d578063153a5eaa146101725780631a8ff081146101875780631be5cec3146101b65780632a949c2e146101c95780634414693c146101ff5780634aa79747146102485780634f6293281461025b5780635f7b68be14610271578063648596e9146102905780636e7bc163146102a357806375c3357b146102b657806383a46bd7146102c9578063870b1cbe146102dc5780638d9791a9146103015780639329bade14610314578063a05fc5b91461032d578063aa08eb2414610340578063ac9dddc6146103a8578063ad910d85146103bb578063ba06ae46146103ce578063c050b991146103e1578063c37b68e7146103f4578063c52a9d4f1461044c578063f83e94a61461049d575b600080fd5b341561015857600080fd5b6101606104b0565b60405190815260200160405180910390f35b341561017d57600080fd5b6101856104e1565b005b341561019257600080fd5b61019a6107de565b604051600160a060020a03909116815260200160405180910390f35b34156101c157600080fd5b6101606107ee565b34156101d457600080fd5b6101eb6004356024356044356064356084356107f4565b604051901515815260200160405180910390f35b341561020a57600080fd5b610185600160a060020a0360043581169060243581169060443581169060643581169060843581169060a43581169060c43581169060e43516610b01565b341561025357600080fd5b61019a610c52565b341561026657600080fd5b6101eb600435610c61565b341561027c57600080fd5b610185600160a060020a0360043516610c76565b341561029b57600080fd5b61019a6111c7565b34156102ae57600080fd5b6101606111d6565b34156102c157600080fd5b61019a6111dc565b34156102d457600080fd5b61019a6111eb565b34156102e757600080fd5b61018560ff600435166024356044356064356084356111fa565b341561030c57600080fd5b61019a6113c1565b341561031f57600080fd5b6101856004356024356113d0565b341561033857600080fd5b6101606117ae565b341561034b57600080fd5b6103536117b4565b604051600160a060020a039889168152968816602088015294871660408088019190915293871660608701529186166080860152851660a0850152841660c0840152921660e082015261010001905180910390f35b34156103b357600080fd5b6101856117f5565b34156103c657600080fd5b61019a61190c565b34156103d957600080fd5b61019a61191b565b34156103ec57600080fd5b61016061192a565b34156103ff57600080fd5b61040a600435611930565b6040518086600681111561041a57fe5b60ff1681526020810195909552506040808501939093526060840191909152608083015260a090910191505180910390f35b341561045757600080fd5b61045f611973565b604051600160a060020a039586168152938516602085015291841660408085019190915290841660608401529216608082015260a001905180910390f35b34156104a857600080fd5b61019a6119e9565b600154600090819033600160a060020a039081169116146104d057600080fd5b5050600e80546000909155805b5090565b60026000526008602052600080516020611aa883398151915254600160a060020a0316156106135742600a541180156105245750600954600160a060020a031615155b801561053f575060095433600160a060020a03908116911614155b151561054a57600080fd5b60016000526008602052600080516020611ac88339815191525433600160a060020a03908116911614806105a3575060026000526008602052600080516020611aa88339815191525433600160a060020a039081169116145b806105d3575060036000526008602052600080516020611a888339815191525433600160a060020a039081169116145b80610603575060046000526008602052600080516020611b088339815191525433600160a060020a039081169116145b151561060e57600080fd5b6106f6565b600080526008602052600080516020611ae883398151915254600160a060020a03161580610690575060016000526008602052600080516020611ac883398151915254600160a060020a03161580156106905750600080526008602052600080516020611ae88339815191525433600160a060020a039081169116145b806106eb575060026000526008602052600080516020611aa883398151915254600160a060020a03161580156106eb575060016000526008602052600080516020611ac88339815191525433600160a060020a039081169116145b15156106f657600080fd5b60098054600160a060020a03191690556000600a819055600490526008602052600080516020611b0883398151915254600160a060020a0316151561073a57600080fd5b6008602052600080516020611ac88339815191528054600080516020611ae88339815191528054600160a060020a0319908116600160a060020a0380851691909117909255600080516020611aa8833981519152805493821684841617909455600080516020611a88833981519152805493821684841617909455600080516020611b08833981519152805493821692841692909217909355600460005291169055565b600954600160a060020a03165b90565b600a5490565b60008080526008602052600080516020611ae883398151915254819081908190600160a060020a0316158061084d5750600080526008602052600080516020611ae88339815191525433600160a060020a039081169116145b8061087d575060016000526008602052600080516020611ac88339815191525433600160a060020a039081169116145b151561088857600080fd5b6000898152600d602052604090205460ff16156108a457600080fd5b60008860028111156108b257fe5b60028111156108bd57fe5b14806108df575060018860028111156108d257fe5b60028111156108dd57fe5b145b80610900575060028860028111156108f357fe5b60028111156108fe57fe5b145b151561090b57600080fd5b86151561091757600080fd5b6000898152600d60205260409020805460ff191660011790556109386119e9565b600160a060020a031663226eb52b89600281111561095257fe5b8989896000604051606001526040518563ffffffff167c01000000000000000000000000000000000000000000000000000000000281526004018085600281111561099957fe5b60ff168152602081019490945250604080840192909252606080840191909152608090920192505180830381600087803b15156109d557600080fd5b6102c65a03f115156109e657600080fd5b50505060405180519060200180519060200180519295509093509091506001905088827f6da25da97676350c9baa4a07d3a4613765c6e1e3b2201a797f9d6ee0e8611ade8a8a874260008d60405195865260208601949094526040808601939093526060850191909152608084015260a083019190915260c0909101905180910390a4821515610af457600188827f6da25da97676350c9baa4a07d3a4613765c6e1e3b2201a797f9d6ee0e8611ade8a8a7f526566756e64000000000000000000000000000000000000000000000000000042878d60405195865260208601949094526040808601939093526060850191909152608084015260a083019190915260c0909101905180910390a45b5090979650505050505050565b60005433600160a060020a03908116911614610b1c57600080fd5b600160a060020a0388161515610b3157600080fd5b600160a060020a0387161515610b4657600080fd5b600160a060020a0386161515610b5b57600080fd5b600160a060020a0385161515610b7057600080fd5b600160a060020a0384161515610b8557600080fd5b600160a060020a0383161515610b9a57600080fd5b600160a060020a0382161515610baf57600080fd5b600160a060020a0381161515610bc457600080fd5b60008054600160a060020a0319908116600160a060020a039a8b1617909155600180548216988a1698909817909755600280548816968916969096179095556003805487169488169490941790935560048054861692871692909217909155600580548516918616919091179055600680548416918516919091179055600780549092169216919091179055565b600354600160a060020a031690565b600d6020526000908152604090205460ff1681565b600260009081526008602052600080516020611aa883398151915254600160a060020a031615610daa5742600a54118015610cbb5750600954600160a060020a031615155b8015610cd6575060095433600160a060020a03908116911614155b1515610ce157600080fd5b60016000526008602052600080516020611ac88339815191525433600160a060020a0390811691161480610d3a575060026000526008602052600080516020611aa88339815191525433600160a060020a039081169116145b80610d6a575060036000526008602052600080516020611a888339815191525433600160a060020a039081169116145b80610d9a575060046000526008602052600080516020611b088339815191525433600160a060020a039081169116145b1515610da557600080fd5b610e8d565b600080526008602052600080516020611ae883398151915254600160a060020a03161580610e27575060016000526008602052600080516020611ac883398151915254600160a060020a0316158015610e275750600080526008602052600080516020611ae88339815191525433600160a060020a039081169116145b80610e82575060026000526008602052600080516020611aa883398151915254600160a060020a0316158015610e82575060016000526008602052600080516020611ac88339815191525433600160a060020a039081169116145b1515610e8d57600080fd5b60098054600160a060020a03191690556000600a55600160a060020a0382161515610eb757600080fd5b600080526008602052600080516020611ae883398151915254600160a060020a03838116911614801590610f10575060016000526008602052600080516020611ac883398151915254600160a060020a03838116911614155b8015610f41575060026000526008602052600080516020611aa883398151915254600160a060020a03838116911614155b8015610f72575060036000526008602052600080516020611a8883398151915254600160a060020a03838116911614155b8015610fa3575060046000526008602052600080516020611b0883398151915254600160a060020a03838116911614155b1515610fae57600080fd5b60046000526008602052600080516020611b0883398151915254600160a060020a031615610fdb57600080fd5b50803b8015610fe957600080fd5b600080526008602052600080516020611ae883398151915254600160a060020a0316151561104757600080526008602052600080516020611ae88339815191528054600160a060020a031916600160a060020a0384161790556111c3565b60016000526008602052600080516020611ac883398151915254600160a060020a031615156110a75760016000526008602052600080516020611ac88339815191528054600160a060020a031916600160a060020a0384161790556111c3565b60026000526008602052600080516020611aa883398151915254600160a060020a031615156111075760026000526008602052600080516020611aa88339815191528054600160a060020a031916600160a060020a0384161790556111c3565b60036000526008602052600080516020611a8883398151915254600160a060020a031615156111675760036000526008602052600080516020611a888339815191528054600160a060020a031916600160a060020a0384161790556111c3565b60046000526008602052600080516020611b0883398151915254600160a060020a031615156111c35760046000526008602052600080516020611b088339815191528054600160a060020a031916600160a060020a0384161790555b5050565b600454600160a060020a031690565b61012c81565b600554600160a060020a031690565b600654600160a060020a031690565b60005433600160a060020a0390811691161480611225575060015433600160a060020a039081169116145b8061123e575060025433600160a060020a039081169116145b80611257575060035433600160a060020a039081169116145b80611270575060045433600160a060020a039081169116145b80611289575060055433600160a060020a039081169116145b806112a2575060065433600160a060020a039081169116145b806112bb575060075433600160a060020a039081169116145b15156112c657600080fd5b60058560068111156112d457fe5b14806112eb575060068560068111156112e957fe5b145b80611301575060048560068111156112ff57fe5b145b1561130f57600e8054830190555b600b80546001810161132183826119f8565b9160005260206000209060050201600060a06040519081016040528089600681111561134957fe5b815260208101899052604081018890526060810187905260800185905291905081518154829060ff1916600183600681111561138157fe5b021790555060208201516001820155604082015160028201556060820151816003015560808201516004909101555050600c805460010190555050505050565b600754600160a060020a031690565b60008080526008602052600080516020611ae8833981519152548190600160a060020a031615806114255750600080526008602052600080516020611ae88339815191525433600160a060020a039081169116145b80611455575060016000526008602052600080516020611ac88339815191525433600160a060020a039081169116145b151561146057600080fd5b600b5484901161146f57600080fd5b600b80548590811061147d57fe5b90600052602060002090600502016003015460001415151561149e57600080fd5b6000838152600d602052604090205460ff16156114ba57600080fd5b6000838152600d60205260408120805460ff19166001179055600b8054869081106114e157fe5b600091825260209091206005909102015460ff16600681111561150057fe5b148061153857506001600b80548690811061151757fe5b600091825260209091206005909102015460ff16600681111561153657fe5b145b1561154657600091506115c0565b6002600b80548690811061155657fe5b600091825260209091206005909102015460ff16600681111561157557fe5b14806115ad57506003600b80548690811061158c57fe5b600091825260209091206005909102015460ff1660068111156115ab57fe5b145b156115bb57600191506115c0565b600291505b60018260028111156115ce57fe5b600b8054879081106115dc57fe5b906000526020600020906005020160040154600019167f6da25da97676350c9baa4a07d3a4613765c6e1e3b2201a797f9d6ee0e8611ade600b8881548110151561162257fe5b906000526020600020906005020160010154600b8981548110151561164357fe5b6000918252602082206002600590920201015490426001600b80548e90811061166857fe5b90600052602060002090600502016003015460405195865260208601949094526040808601939093526060850191909152608084015260a083019190915260c0909101905180910390a4600b805460009190869081106116c457fe5b60009182526020822060016005909202010191909155600b8054869081106116e857fe5b60009182526020822060026005909202010191909155600b80548690811061170c57fe5b60009182526020822060036005909202010191909155600b80548690811061173057fe5b6000918252602090912060046005909202010155600b54600019018414156117a8575060005b600b5481101561179657600b80548290811061176e57fe5b906000526020600020906005020160030154600014151561178e576117a8565b600101611756565b6117a2600b6000611a29565b6000600c555b50505050565b600e5481565b600054600154600254600354600454600554600654600754600160a060020a0397881698968816979586169694861695938416949284169391821692911690565b60026000526008602052600080516020611aa883398151915254600160a060020a0316151561182357600080fd5b60016000526008602052600080516020611ac88339815191525433600160a060020a039081169116148061187c575060026000526008602052600080516020611aa88339815191525433600160a060020a039081169116145b806118ac575060036000526008602052600080516020611a888339815191525433600160a060020a039081169116145b806118dc575060046000526008602052600080516020611b088339815191525433600160a060020a039081169116145b15156118e757600080fd5b60098054600160a060020a03191633600160a060020a03161790554261012c01600a55565b600054600160a060020a031690565b600254600160a060020a031690565b600c5481565b600b80548290811061193e57fe5b60009182526020909120600590910201805460018201546002830154600384015460049094015460ff90931694509092909185565b6008602052600080516020611ae883398151915254600080516020611ac883398151915254600080516020611aa883398151915254600080516020611a88833981519152546004600052600080516020611b0883398151915254600160a060020a03948516959385169492831693918316921690565b600154600160a060020a031690565b815481835581811511611a2457600502816005028360005260206000209182019101611a249190611a4d565b505050565b5080546000825560050290600052602060002090810190611a4a9190611a4d565b50565b6107eb91905b808211156104dd57805460ff1916815560006001820181905560028201819055600382018190556004820155600501611a535600625b35f5e76f098dd7c3a05b10e2e5e78a4a01228d60c3b143426cdf36d264556add646517a5b0f6793cd5891b7937d28a5b2981a5d88ebc7cd776088fea9041ad67d757c34507f157cacfa2e3153e9f260a2244f30428821be7be64587ac55f5eff886ea0ce6ca488a3d6e336d6c0f75f46d19b42c06ce5ee98e42c96d256c79321edea6e3be4df59a344b401fab4f888b556fda1f954244cff9204bad624b8a165627a7a7230582015980f7e33763a36db996bc22fc7104c6edf92375e0286c70d5eaa30a38aaa110029625b35f5e76f098dd7c3a05b10e2e5e78a4a01228d60c3b143426cdf36d264556add646517a5b0f6793cd5891b7937d28a5b2981a5d88ebc7cd776088fea9041ad67d757c34507f157cacfa2e3153e9f260a2244f30428821be7be64587ac55f5eff886ea0ce6ca488a3d6e336d6c0f75f46d19b42c06ce5ee98e42c96d256c79321edea6e3be4df59a344b401fab4f888b556fda1f954244cff9204bad624b8",
  "source": "/**\n * @description Bank contract\n * @copyright (c) 2017 Honest Insurance\n * @author Martin Stellnberger\n * @license GPL-3.0\n */\n\npragma solidity ^0.4.18;\n\nimport \"./Lib.sol\";\nimport \"./Pool.sol\";\n\n\n/** @title Bank contract used by the payment service provider to interact with the pool.*/\ncontract Bank is IntAccessI, ExtAccessI {\n\n    // Storage struct for all payment advice transactions the bank needs to perform\n    struct PaymentAdvice {\n        Lib.PaymentAdviceType adviceType;\n        bytes32 paymentAccountHashRecipient;\n        bytes32 paymentSubject;\n        uint amount;\n        bytes32 internalReferenceHash;\n    }\n\n    // Array to store the payment advice instructions\n    PaymentAdvice[] public bankPaymentAdvice;\n\n    // Index pointing to the last payment advice entry in the PaymentAdvice array\n    uint public countPaymentAdviceEntries = 0;\n\n    // Mapping to store the unique bank transaction reference numbers to avoid double processing\n    mapping(uint => bool) public bankTransactionIdxProcessed;\n\n    // Expense tracking variable for the last 24 hours\n    uint public fundingAccountPaymentsTracking_Cu = 0;\n\n    // Transaction log entries for all bank transactions\n    event LogBank(bytes32 indexed internalReferenceHash, uint indexed accountType, bool indexed success,\n        bytes32 paymentAccountHash, bytes32 paymentSubject, bytes32 info, \n        uint timestamp, uint transactionType, uint amount);\n\n    /**@dev Constructor of the Bank.\n     * @param _trustAdr The address of the Trust.\n     */\n    function Bank(address _trustAdr) IntAccessI(_trustAdr) ExtAccessI(msg.sender) public {\n    }\n\n    /**@dev Resets the fundingAccountPaymentsTracking_Cu varialbe to 0\n     * @return The total amount of expenses from the Funding Account since last processing.\n     */\n    function getResetFundingAccountPaymentsTracking()\n        public\n        isPoolAuth\n        returns (uint)\n    {\n        // Save the value for the return\n        uint payments = fundingAccountPaymentsTracking_Cu;\n        // Reset fundingAccountPaymentsToday to start from 0\n        fundingAccountPaymentsTracking_Cu = 0;\n        // return payments today value\n        return payments;\n    }\n\n    /**@dev Creates a payment advice for the bank to process\n     * @param _adviceType The type of payment to be performed\n     * @param _paymentAccountHashRecipient The account hash of the party RECEIVING the funds\n     * @param _paymentSubject Payment particular/code/reference to be specified for the bank transaction\n     * @param _amount_Cu The requested amount to be paid.\n     * @param _internalReferenceHash The hash of the bond, policy, etc. this bank transaction belongs to (used as a reference for logging)\n     */\n    function createPaymentAdvice(Lib.PaymentAdviceType _adviceType, bytes32 _paymentAccountHashRecipient, \n        bytes32 _paymentSubject, uint _amount_Cu, bytes32 _internalReferenceHash)\n        public\n        isIntAuth\n    {\n        // If it is payment advice instruction from the funding account record it in the fundingAccountPaymentsTracking_Cu variable\n        if ((_adviceType == Lib.PaymentAdviceType.ServiceProvider) ||\n            (_adviceType == Lib.PaymentAdviceType.Trust) ||\n            (_adviceType == Lib.PaymentAdviceType.PoolOperator)) {\n            // Add the amount to the fundingAccountPaymentsToday variable\n            fundingAccountPaymentsTracking_Cu += _amount_Cu;\n        }\n\n        // Add payment advice to list\n        bankPaymentAdvice.push(PaymentAdvice({\n            adviceType: _adviceType,\n            paymentAccountHashRecipient: _paymentAccountHashRecipient,\n            paymentSubject: _paymentSubject,\n            amount: _amount_Cu,\n            internalReferenceHash: _internalReferenceHash\n        }));\n\n        // Increase the number of payment advice entries\n        countPaymentAdviceEntries++;\n    }\n\n    /**@dev Called by the bank when the specified payment advice has been processed.\n     * @param _idx Specifies the processed payment advice\n     * @param _bankTransactionIdx The unique index referencing the bank transaction record\n     */\n    function processPaymentAdvice(uint _idx, uint _bankTransactionIdx)\n        public\n        isExtAuth\n    {\n        // Ensure the idx to process is valid.\n        require(bankPaymentAdvice.length > _idx);\n\n        // If the array holds the idx verify if it has not already been processed (is empty entry)\n        require(bankPaymentAdvice[_idx].amount != 0);\n        \n        // Verify the bankTransactionIdx has not already been processed\n        require(bankTransactionIdxProcessed[_bankTransactionIdx] == false);\n\n        // Mark the bank transaction index as processed to avoid double processing\n        bankTransactionIdxProcessed[_bankTransactionIdx] = true;\n\n        // Get the corresponding account type based on adviceType\n        Lib.AccountType accType;\n        if ((bankPaymentAdvice[_idx].adviceType == Lib.PaymentAdviceType.PremiumRefund) ||\n            (bankPaymentAdvice[_idx].adviceType == Lib.PaymentAdviceType.Premium))\n            accType = Lib.AccountType.PremiumAccount;\n        else if ((bankPaymentAdvice[_idx].adviceType == Lib.PaymentAdviceType.BondMaturity) ||\n            (bankPaymentAdvice[_idx].adviceType == Lib.PaymentAdviceType.Overflow))\n            accType = Lib.AccountType.BondAccount;\n        else \n            accType = Lib.AccountType.FundingAccount;\n\n        // Add bank transaction log entry\n        LogBank(\n            bankPaymentAdvice[_idx].internalReferenceHash,\n            uint(accType),\n            true,\n            bankPaymentAdvice[_idx].paymentAccountHashRecipient,\n            bankPaymentAdvice[_idx].paymentSubject,\n            0x0,\n            now,\n            uint(Lib.TransactionType.Debit),\n            bankPaymentAdvice[_idx].amount\n        );\n\n        // Remove (overwrite) entry from the array\n        bankPaymentAdvice[_idx].paymentAccountHashRecipient = 0x0;\n        bankPaymentAdvice[_idx].paymentSubject = \"\";\n        bankPaymentAdvice[_idx].amount = 0;\n        bankPaymentAdvice[_idx].internalReferenceHash = 0x0;\n\n        // If the current _idx is the last one, verify if all the elements are removed from the array\n        if (_idx == bankPaymentAdvice.length - 1) {\n            // Verify if all entries have been processed\n            for (uint i=0; i < bankPaymentAdvice.length; i++) {\n                // If any other payment advice exist in the list return\n                if (bankPaymentAdvice[i].amount != 0)\n                    return;\n            }\n            // As no entries exist in bankPaymentAdvice array any more, delete the entire array\n            delete bankPaymentAdvice;\n            // Reset the number of payment advice entries to 0\n            countPaymentAdviceEntries = 0;\n        }\n    }\n\n    /**@dev Function is called when currency has been credited to any of the insurance pool's bank account.\n     * @param _bankTransactionIdx The index referencing the this bank transaction record uniquely (is used to avoid double processing)\n     * @param _accountType The bank account index of the pool (0-PremiumAccount; 1-BondAccount; 2-FundingAccount)\n     * @param _paymentAccountHashSender Hash of the sender's name and bank account number\n     * @param _paymentSubject Payment particular/code/reference to be specified for the bank transaction\n     * @param _bankCreditAmount_Cu The amount that has been received at the bank.\n     * @return The result of the Deposit operation. True if successfull, false the bank needs to be transfer the deposit back to the sender.\n     */\n    function processAccountCredit(uint _bankTransactionIdx, uint _accountType, \n        bytes32 _paymentAccountHashSender, bytes32 _paymentSubject, uint _bankCreditAmount_Cu)\n        public\n        isExtAuth\n        returns (bool)\n    {\n        // Ensure the bankTransactionIdx has not already been processed\n        require(bankTransactionIdxProcessed[_bankTransactionIdx] == false);\n        \n        // Ensure the account type is either PremiumAccount, BondAccount or FundingAccount\n        require((Lib.AccountType(_accountType) == Lib.AccountType.PremiumAccount) || \n            (Lib.AccountType(_accountType) == Lib.AccountType.BondAccount) || \n            (Lib.AccountType(_accountType) == Lib.AccountType.FundingAccount));\n        \n        // Verify a paymentAccountHash has been provided for the sender\n        require(_paymentAccountHashSender != bytes32(0x0));\n\n        // Mark the bank transaction index as processed to avoid double processing\n        bankTransactionIdxProcessed[_bankTransactionIdx] = true;\n        \n        bool success;\n        bytes32 info;\n        bytes32 internalReferenceHash;\n        \n        // Process the deposit with the pool\n        (success, info, internalReferenceHash) = Pool(getPoolAdr()).processAccountCredit(Lib.AccountType(_accountType), _paymentAccountHashSender, _paymentSubject, _bankCreditAmount_Cu);\n        \n        LogBank(\n            internalReferenceHash,\n            _accountType,\n            true,\n            _paymentAccountHashSender,\n            _paymentSubject,\n            info,\n            now,\n            uint(Lib.TransactionType.Credit),\n            _bankCreditAmount_Cu\n        );\n\n        // // If operation was unsuccessfull\n        if (success == false) {\n            // Add bank transaction log entry to document the refund of the previously failed Credit operation\n            LogBank(\n                internalReferenceHash, uint(_accountType), true,\n                _paymentAccountHashSender, _paymentSubject, bytes32(\"Refund\"),\n                uint(now), uint(Lib.TransactionType.Debit), _bankCreditAmount_Cu);\n        }\n\n        // Return the result of the deposit processing transaction\n        return success;\n    }\n}",
  "sourcePath": "/Users/Martin/Dapp/01HIC/46-HIC-2017-01-31/contracts/Bank.sol",
  "compiler": {
    "name": "solc",
    "version": "0.4.18+commit.9cf6e910.Emscripten.clang"
  },
  "schemaVersion": "1.0.1",
  "updatedAt": "2018-01-30T23:40:31.860Z"
}