{
  "contractName": "Bond",
  "abi": [
    {
      "constant": true,
      "inputs": [],
      "name": "MIN_BOND_PRINCIPAL_CU",
      "outputs": [
        {
          "name": "",
          "type": "uint256"
        }
      ],
      "payable": false,
      "stateMutability": "view",
      "type": "function"
    },
    {
      "constant": true,
      "inputs": [],
      "name": "MIN_YIELD_PPB",
      "outputs": [
        {
          "name": "",
          "type": "uint256"
        }
      ],
      "payable": false,
      "stateMutability": "view",
      "type": "function"
    },
    {
      "constant": true,
      "inputs": [],
      "name": "POOL_NAME",
      "outputs": [
        {
          "name": "",
          "type": "string"
        }
      ],
      "payable": false,
      "stateMutability": "view",
      "type": "function"
    },
    {
      "constant": true,
      "inputs": [],
      "name": "DURATION_BOND_LOCK_NEXT_STATE_SEC",
      "outputs": [
        {
          "name": "",
          "type": "uint256"
        }
      ],
      "payable": false,
      "stateMutability": "view",
      "type": "function"
    },
    {
      "constant": true,
      "inputs": [],
      "name": "MIN_DURATION_POLICY_PAUSED_DAY",
      "outputs": [
        {
          "name": "",
          "type": "uint256"
        }
      ],
      "payable": false,
      "stateMutability": "view",
      "type": "function"
    },
    {
      "constant": true,
      "inputs": [],
      "name": "MAX_DURATION_POLICY_PAUSED_DAY",
      "outputs": [
        {
          "name": "",
          "type": "uint256"
        }
      ],
      "payable": false,
      "stateMutability": "view",
      "type": "function"
    },
    {
      "constant": true,
      "inputs": [],
      "name": "POOL_DAILY_PROCESSING_OFFSET_SEC",
      "outputs": [
        {
          "name": "",
          "type": "uint256"
        }
      ],
      "payable": false,
      "stateMutability": "view",
      "type": "function"
    },
    {
      "constant": true,
      "inputs": [],
      "name": "MAX_DURATION_POLICY_LAPSED_DAY",
      "outputs": [
        {
          "name": "",
          "type": "uint256"
        }
      ],
      "payable": false,
      "stateMutability": "view",
      "type": "function"
    },
    {
      "constant": true,
      "inputs": [],
      "name": "MAX_YIELD_PPB",
      "outputs": [
        {
          "name": "",
          "type": "uint256"
        }
      ],
      "payable": false,
      "stateMutability": "view",
      "type": "function"
    },
    {
      "constant": true,
      "inputs": [],
      "name": "YAC_INTERVAL_DURATION_SEC",
      "outputs": [
        {
          "name": "",
          "type": "uint256"
        }
      ],
      "payable": false,
      "stateMutability": "view",
      "type": "function"
    },
    {
      "constant": false,
      "inputs": [
        {
          "name": "_trustAdr",
          "type": "address"
        },
        {
          "name": "_poolAdr",
          "type": "address"
        },
        {
          "name": "_bondAdr",
          "type": "address"
        },
        {
          "name": "_bankAdr",
          "type": "address"
        },
        {
          "name": "_policyAdr",
          "type": "address"
        },
        {
          "name": "_settlementAdr",
          "type": "address"
        },
        {
          "name": "_adjustorAdr",
          "type": "address"
        },
        {
          "name": "_timerAdr",
          "type": "address"
        }
      ],
      "name": "setContractAdr",
      "outputs": [],
      "payable": false,
      "stateMutability": "nonpayable",
      "type": "function"
    },
    {
      "constant": true,
      "inputs": [],
      "name": "getBankAdr",
      "outputs": [
        {
          "name": "",
          "type": "address"
        }
      ],
      "payable": false,
      "stateMutability": "view",
      "type": "function"
    },
    {
      "constant": true,
      "inputs": [
        {
          "name": "",
          "type": "bytes32"
        }
      ],
      "name": "dataStorage",
      "outputs": [
        {
          "name": "idx",
          "type": "uint256"
        },
        {
          "name": "owner",
          "type": "address"
        },
        {
          "name": "paymentAccountHash",
          "type": "bytes32"
        },
        {
          "name": "principal_Cu",
          "type": "uint256"
        },
        {
          "name": "yield_Ppb",
          "type": "uint256"
        },
        {
          "name": "maturityPayoutAmount_Cu",
          "type": "uint256"
        },
        {
          "name": "creationDate",
          "type": "uint256"
        },
        {
          "name": "nextStateExpiryDate",
          "type": "uint256"
        },
        {
          "name": "maturityDate",
          "type": "uint256"
        },
        {
          "name": "state",
          "type": "uint8"
        },
        {
          "name": "securityReferenceHash",
          "type": "bytes32"
        }
      ],
      "payable": false,
      "stateMutability": "view",
      "type": "function"
    },
    {
      "constant": true,
      "inputs": [],
      "name": "MAX_DURATION_POLICY_RECONCILIATION_DAYS",
      "outputs": [
        {
          "name": "",
          "type": "uint256"
        }
      ],
      "payable": false,
      "stateMutability": "view",
      "type": "function"
    },
    {
      "constant": true,
      "inputs": [],
      "name": "FUNDING_ACCOUNT_PAYMENT_HASH",
      "outputs": [
        {
          "name": "",
          "type": "bytes32"
        }
      ],
      "payable": false,
      "stateMutability": "view",
      "type": "function"
    },
    {
      "constant": true,
      "inputs": [],
      "name": "hashMap",
      "outputs": [
        {
          "name": "firstIdx",
          "type": "uint256"
        },
        {
          "name": "nextIdx",
          "type": "uint256"
        },
        {
          "name": "count",
          "type": "uint256"
        }
      ],
      "payable": false,
      "stateMutability": "view",
      "type": "function"
    },
    {
      "constant": true,
      "inputs": [
        {
          "name": "_hash",
          "type": "bytes32"
        }
      ],
      "name": "isActive",
      "outputs": [
        {
          "name": "",
          "type": "bool"
        }
      ],
      "payable": false,
      "stateMutability": "view",
      "type": "function"
    },
    {
      "constant": true,
      "inputs": [],
      "name": "MAX_POLICY_CREDIT_CU",
      "outputs": [
        {
          "name": "",
          "type": "uint256"
        }
      ],
      "payable": false,
      "stateMutability": "view",
      "type": "function"
    },
    {
      "constant": false,
      "inputs": [
        {
          "name": "_paymentAccountHash",
          "type": "bytes32"
        },
        {
          "name": "_paymentSubject",
          "type": "bytes32"
        },
        {
          "name": "_creditAmount_Cu",
          "type": "uint256"
        },
        {
          "name": "_currentPoolDay",
          "type": "uint256"
        }
      ],
      "name": "processAccountCredit",
      "outputs": [
        {
          "name": "success",
          "type": "bool"
        },
        {
          "name": "info",
          "type": "bytes32"
        },
        {
          "name": "bondHash",
          "type": "bytes32"
        },
        {
          "name": "reduceWcTransit",
          "type": "bool"
        }
      ],
      "payable": false,
      "stateMutability": "nonpayable",
      "type": "function"
    },
    {
      "constant": true,
      "inputs": [],
      "name": "getPolicyAdr",
      "outputs": [
        {
          "name": "",
          "type": "address"
        }
      ],
      "payable": false,
      "stateMutability": "view",
      "type": "function"
    },
    {
      "constant": true,
      "inputs": [],
      "name": "POOL_OPERATOR_FEE_PPT",
      "outputs": [
        {
          "name": "",
          "type": "uint256"
        }
      ],
      "payable": false,
      "stateMutability": "view",
      "type": "function"
    },
    {
      "constant": true,
      "inputs": [
        {
          "name": "_hash",
          "type": "bytes32"
        }
      ],
      "name": "isValid",
      "outputs": [
        {
          "name": "",
          "type": "bool"
        }
      ],
      "payable": false,
      "stateMutability": "view",
      "type": "function"
    },
    {
      "constant": true,
      "inputs": [],
      "name": "BOND_ACCOUNT_PAYMENT_HASH",
      "outputs": [
        {
          "name": "",
          "type": "bytes32"
        }
      ],
      "payable": false,
      "stateMutability": "view",
      "type": "function"
    },
    {
      "constant": true,
      "inputs": [],
      "name": "TRUST_FEE_PPT",
      "outputs": [
        {
          "name": "",
          "type": "uint256"
        }
      ],
      "payable": false,
      "stateMutability": "view",
      "type": "function"
    },
    {
      "constant": true,
      "inputs": [],
      "name": "getSettlementAdr",
      "outputs": [
        {
          "name": "",
          "type": "address"
        }
      ],
      "payable": false,
      "stateMutability": "view",
      "type": "function"
    },
    {
      "constant": true,
      "inputs": [
        {
          "name": "_beginDay",
          "type": "uint256"
        },
        {
          "name": "_endDay",
          "type": "uint256"
        }
      ],
      "name": "getBondMaturityPayouts",
      "outputs": [
        {
          "name": "bondMaturityPayoutAmountNext3Days_Cu",
          "type": "uint256"
        },
        {
          "name": "bondMaturityPayoutFuturePerDay_Cu",
          "type": "uint256"
        }
      ],
      "payable": false,
      "stateMutability": "view",
      "type": "function"
    },
    {
      "constant": true,
      "inputs": [],
      "name": "PREMIUM_ACCOUNT_PAYMENT_HASH",
      "outputs": [
        {
          "name": "",
          "type": "bytes32"
        }
      ],
      "payable": false,
      "stateMutability": "view",
      "type": "function"
    },
    {
      "constant": true,
      "inputs": [],
      "name": "getAdjustorAdr",
      "outputs": [
        {
          "name": "",
          "type": "address"
        }
      ],
      "payable": false,
      "stateMutability": "view",
      "type": "function"
    },
    {
      "constant": true,
      "inputs": [],
      "name": "TRUST_ACCOUNT_PAYMENT_HASH",
      "outputs": [
        {
          "name": "",
          "type": "bytes32"
        }
      ],
      "payable": false,
      "stateMutability": "view",
      "type": "function"
    },
    {
      "constant": false,
      "inputs": [
        {
          "name": "_principal_Cu",
          "type": "uint256"
        },
        {
          "name": "_hashOfReferenceBond",
          "type": "bytes32"
        }
      ],
      "name": "createBond",
      "outputs": [],
      "payable": false,
      "stateMutability": "nonpayable",
      "type": "function"
    },
    {
      "constant": true,
      "inputs": [
        {
          "name": "",
          "type": "uint256"
        }
      ],
      "name": "bondMaturityPayoutAmount",
      "outputs": [
        {
          "name": "",
          "type": "uint256"
        }
      ],
      "payable": false,
      "stateMutability": "view",
      "type": "function"
    },
    {
      "constant": true,
      "inputs": [],
      "name": "getTimerAdr",
      "outputs": [
        {
          "name": "",
          "type": "address"
        }
      ],
      "payable": false,
      "stateMutability": "view",
      "type": "function"
    },
    {
      "constant": true,
      "inputs": [],
      "name": "POOL_DAYLIGHT_SAVING_ADJUSTMENT_SEC",
      "outputs": [
        {
          "name": "",
          "type": "uint256"
        }
      ],
      "payable": false,
      "stateMutability": "view",
      "type": "function"
    },
    {
      "constant": true,
      "inputs": [
        {
          "name": "_idx",
          "type": "uint256"
        }
      ],
      "name": "get",
      "outputs": [
        {
          "name": "",
          "type": "bytes32"
        }
      ],
      "payable": false,
      "stateMutability": "view",
      "type": "function"
    },
    {
      "constant": true,
      "inputs": [],
      "name": "OPERATOR_ACCOUNT_PAYMENT_HASH",
      "outputs": [
        {
          "name": "",
          "type": "bytes32"
        }
      ],
      "payable": false,
      "stateMutability": "view",
      "type": "function"
    },
    {
      "constant": true,
      "inputs": [],
      "name": "MIN_POLICY_CREDIT_CU",
      "outputs": [
        {
          "name": "",
          "type": "uint256"
        }
      ],
      "payable": false,
      "stateMutability": "view",
      "type": "function"
    },
    {
      "constant": true,
      "inputs": [],
      "name": "WC_POOL_TARGET_TIME_SEC",
      "outputs": [
        {
          "name": "",
          "type": "uint256"
        }
      ],
      "payable": false,
      "stateMutability": "view",
      "type": "function"
    },
    {
      "constant": true,
      "inputs": [],
      "name": "SETTLEMENT_ACCOUNT_PAYMENT_HASH",
      "outputs": [
        {
          "name": "",
          "type": "bytes32"
        }
      ],
      "payable": false,
      "stateMutability": "view",
      "type": "function"
    },
    {
      "constant": true,
      "inputs": [],
      "name": "BOND_REQUIRED_SECURITY_REFERENCE_PPT",
      "outputs": [
        {
          "name": "",
          "type": "uint256"
        }
      ],
      "payable": false,
      "stateMutability": "view",
      "type": "function"
    },
    {
      "constant": true,
      "inputs": [],
      "name": "getContractAdr",
      "outputs": [
        {
          "name": "trustContractAdr",
          "type": "address"
        },
        {
          "name": "poolContractAdr",
          "type": "address"
        },
        {
          "name": "bondContractAdr",
          "type": "address"
        },
        {
          "name": "bankContractAdr",
          "type": "address"
        },
        {
          "name": "policyContractAdr",
          "type": "address"
        },
        {
          "name": "settlementContractAdr",
          "type": "address"
        },
        {
          "name": "adjustorContractAdr",
          "type": "address"
        },
        {
          "name": "timerContractAdr",
          "type": "address"
        }
      ],
      "payable": false,
      "stateMutability": "view",
      "type": "function"
    },
    {
      "constant": true,
      "inputs": [],
      "name": "POLICY_RECONCILIATION_SAFETY_MARGIN",
      "outputs": [
        {
          "name": "",
          "type": "uint256"
        }
      ],
      "payable": false,
      "stateMutability": "view",
      "type": "function"
    },
    {
      "constant": true,
      "inputs": [],
      "name": "getTrustAdr",
      "outputs": [
        {
          "name": "",
          "type": "address"
        }
      ],
      "payable": false,
      "stateMutability": "view",
      "type": "function"
    },
    {
      "constant": true,
      "inputs": [
        {
          "name": "_hash",
          "type": "bytes32"
        }
      ],
      "name": "isArchived",
      "outputs": [
        {
          "name": "",
          "type": "bool"
        }
      ],
      "payable": false,
      "stateMutability": "view",
      "type": "function"
    },
    {
      "constant": true,
      "inputs": [],
      "name": "getBondAdr",
      "outputs": [
        {
          "name": "",
          "type": "address"
        }
      ],
      "payable": false,
      "stateMutability": "view",
      "type": "function"
    },
    {
      "constant": true,
      "inputs": [],
      "name": "YAC_PER_INTERVAL_PPB",
      "outputs": [
        {
          "name": "",
          "type": "uint256"
        }
      ],
      "payable": false,
      "stateMutability": "view",
      "type": "function"
    },
    {
      "constant": true,
      "inputs": [],
      "name": "MAX_BOND_PRINCIPAL_CU",
      "outputs": [
        {
          "name": "",
          "type": "uint256"
        }
      ],
      "payable": false,
      "stateMutability": "view",
      "type": "function"
    },
    {
      "constant": false,
      "inputs": [
        {
          "name": "_subject",
          "type": "uint8"
        },
        {
          "name": "_message",
          "type": "bytes32"
        },
        {
          "name": "_scheduledDateTime",
          "type": "uint256"
        }
      ],
      "name": "ping",
      "outputs": [
        {
          "name": "",
          "type": "uint256"
        }
      ],
      "payable": false,
      "stateMutability": "nonpayable",
      "type": "function"
    },
    {
      "constant": true,
      "inputs": [],
      "name": "POOL_TIME_ZONE_OFFSET",
      "outputs": [
        {
          "name": "",
          "type": "int256"
        }
      ],
      "payable": false,
      "stateMutability": "view",
      "type": "function"
    },
    {
      "constant": true,
      "inputs": [],
      "name": "DURATION_POLICY_POST_LAPSED_DAY",
      "outputs": [
        {
          "name": "",
          "type": "uint256"
        }
      ],
      "payable": false,
      "stateMutability": "view",
      "type": "function"
    },
    {
      "constant": true,
      "inputs": [],
      "name": "DURATION_TO_BOND_MATURITY_SEC",
      "outputs": [
        {
          "name": "",
          "type": "uint256"
        }
      ],
      "payable": false,
      "stateMutability": "view",
      "type": "function"
    },
    {
      "constant": true,
      "inputs": [],
      "name": "ADJUSTOR_ACCOUNT_PAYMENT_HASH",
      "outputs": [
        {
          "name": "",
          "type": "bytes32"
        }
      ],
      "payable": false,
      "stateMutability": "view",
      "type": "function"
    },
    {
      "constant": true,
      "inputs": [],
      "name": "DURATION_WC_EXPENSE_HISTORY_DAYS",
      "outputs": [
        {
          "name": "",
          "type": "uint256"
        }
      ],
      "payable": false,
      "stateMutability": "view",
      "type": "function"
    },
    {
      "constant": true,
      "inputs": [],
      "name": "YAC_EXPENSE_THRESHOLD_PPT",
      "outputs": [
        {
          "name": "",
          "type": "uint256"
        }
      ],
      "payable": false,
      "stateMutability": "view",
      "type": "function"
    },
    {
      "constant": true,
      "inputs": [],
      "name": "getPoolAdr",
      "outputs": [
        {
          "name": "",
          "type": "address"
        }
      ],
      "payable": false,
      "stateMutability": "view",
      "type": "function"
    },
    {
      "inputs": [
        {
          "name": "_trustAdr",
          "type": "address"
        }
      ],
      "payable": false,
      "stateMutability": "nonpayable",
      "type": "constructor"
    },
    {
      "anonymous": false,
      "inputs": [
        {
          "indexed": true,
          "name": "bondHash",
          "type": "bytes32"
        },
        {
          "indexed": true,
          "name": "owner",
          "type": "address"
        },
        {
          "indexed": true,
          "name": "info",
          "type": "bytes32"
        },
        {
          "indexed": false,
          "name": "timestamp",
          "type": "uint256"
        },
        {
          "indexed": false,
          "name": "state",
          "type": "uint256"
        }
      ],
      "name": "LogBond",
      "type": "event"
    }
  ],
  "bytecode": "0x6060604052606060405190810160409081526001808352602083015260009082015260088151816003015560208201518160040155604082015181600501555050341561004b57600080fd5b604051602080612078833981016040528080519150819050600160a060020a038116151561007857600080fd5b60008054600160a060020a03909216600160a060020a031990921691909117905550611fcf806100a96000396000f30060606040526004361061026d5763ffffffff60e060020a60003504166283f8bd8114610272578063079a6f4e146102975780630c131757146102aa5780630c432f2d1461033457806313f915dc14610347578063284f90b11461035a5780632b76d8e61461036d5780632c1b96c914610380578063358327cb146103935780633ff8ba9f146103a65780634414693c146103b95780634aa79747146104045780634af88313146104335780634cdedfe2146104c757806351b87d5f146104da578063584b6410146104ed5780635c36901c146105245780635e1f9f7b14610297578063609e9ad71461054e578063648596e91461059b5780636775d09b146105ae5780636a938567146105c15780636da57da1146105d75780636e2bdb95146105ea57806375c3357b146105fd578063799f14a2146106105780637be4af941461064157806383a46bd71461065457806384ba11ad1461066757806386f939f01461067a5780638cc3e2fe146106935780638d9791a9146106a95780638e244ef2146103a65780639507d39a146106bc5780639557cfa0146106d257806395e0b2931461027257806399e93aac146106e55780639c7b2b9b146106d2578063a2e2d5c8146106f8578063aa08eb241461070b578063abf290b514610773578063ad910d8514610786578063b6b942e814610799578063ba06ae46146107af578063ba684e09146107c2578063c99b168c146107d5578063cc1588e9146107e8578063d3046cec14610807578063d4dcd43714610347578063de3e0c0e146106e5578063dfc6e284146106d2578063e72964ba1461081a578063f756e9f8146104c7578063f83e94a61461082d575b600080fd5b341561027d57600080fd5b610285610840565b60405190815260200160405180910390f35b34156102a257600080fd5b610285610846565b34156102b557600080fd5b6102bd61084d565b60405160208082528190810183818151815260200191508051906020019080838360005b838110156102f95780820151838201526020016102e1565b50505050905090810190601f1680156103265780820380516001836020036101000a031916815260200191505b509250505060405180910390f35b341561033f57600080fd5b610285610884565b341561035257600080fd5b61028561088b565b341561036557600080fd5b610285610890565b341561037857600080fd5b610285610895565b341561038b57600080fd5b61028561089a565b341561039e57600080fd5b61028561089f565b34156103b157600080fd5b6102856108a7565b34156103c457600080fd5b610402600160a060020a0360043581169060243581169060443581169060643581169060843581169060a43581169060c43581169060e435166108ad565b005b341561040f57600080fd5b610417610a0b565b604051600160a060020a03909116815260200160405180910390f35b341561043e57600080fd5b610449600435610a1a565b6040518b8152600160a060020a038b166020820152604081018a9052606081018990526080810188905260a0810187905260c0810186905260e08101859052610100810184905261012081018360078111156104a157fe5b60ff16815260208101929092525060409081019a50985050505050505050505180910390f35b34156104d257600080fd5b610285610a80565b34156104e557600080fd5b610285610a85565b34156104f857600080fd5b610500610aa9565b60405180848152602001838152602001828152602001935050505060405180910390f35b341561052f57600080fd5b61053a600435610ab5565b604051901515815260200160405180910390f35b341561055957600080fd5b61056d600435602435604435606435610b35565b6040519315158452602084019290925260408084019190915290151560608301526080909101905180910390f35b34156105a657600080fd5b6104176111f6565b34156105b957600080fd5b610285611205565b34156105cc57600080fd5b61053a60043561120a565b34156105e257600080fd5b61028561126a565b34156105f557600080fd5b61028561128e565b341561060857600080fd5b610417611293565b341561061b57600080fd5b6106296004356024356112a2565b60405191825260208201526040908101905180910390f35b341561064c57600080fd5b61028561130c565b341561065f57600080fd5b610417611330565b341561067257600080fd5b61028561133f565b341561068557600080fd5b610402600435602435611363565b341561069e57600080fd5b6102856004356118c2565b34156106b457600080fd5b6104176118d4565b34156106c757600080fd5b6102856004356118e3565b34156106dd57600080fd5b610285611943565b34156106f057600080fd5b610285611967565b341561070357600080fd5b61028561196e565b341561071657600080fd5b61071e611973565b604051600160a060020a039889168152968816602088015294871660408088019190915293871660608701529186166080860152851660a0850152841660c0840152921660e082015261010001905180910390f35b341561077e57600080fd5b6102856119b4565b341561079157600080fd5b6104176119b9565b34156107a457600080fd5b61053a6004356119c8565b34156107ba57600080fd5b610417611a28565b34156107cd57600080fd5b610285611a37565b34156107e057600080fd5b610285611a3f565b34156107f357600080fd5b61028560ff60043516602435604435611a46565b341561081257600080fd5b610285611a8a565b341561082557600080fd5b610285611a91565b341561083857600080fd5b610417611a96565b61271081565b624c4b4081565b60408051908101604052600c81527f48494320506f6f6c202320310000000000000000000000000000000000000000602082015281565b6202a30081565b600181565b600281565b600081565b600581565b631dcd650081565b610e1081565b60005433600160a060020a039081169116146108c857600080fd5b600160a060020a03881615156108dd57600080fd5b600160a060020a03871615156108f257600080fd5b600160a060020a038616151561090757600080fd5b600160a060020a038516151561091c57600080fd5b600160a060020a038416151561093157600080fd5b600160a060020a038316151561094657600080fd5b600160a060020a038216151561095b57600080fd5b600160a060020a038116151561097057600080fd5b6000805473ffffffffffffffffffffffffffffffffffffffff19908116600160a060020a039a8b1617909155600180548216988a1698909817909755600280548816968916969096179095556003805487169488169490941790935560048054861692871692909217909155600580548516918616919091179055600680548416918516919091179055600780549092169216919091179055565b600354600160a060020a031690565b600e60205260009081526040902080546001820154600283015460038401546004850154600586015460068701546007880154600889015460098a0154600a909a01549899600160a060020a0390981698969795969495939492939192909160ff16908b565b606481565b7f523009c7e41b6b3159012103fccff17371fb03621a0873eaff2f3d87cdb5fe3681565b600b54600c54600d5483565b600073__Lib___________________________________63199ef7be600884846040516020015260405160e060020a63ffffffff85160281526004810192909252602482015260440160206040518083038186803b1515610b1557600080fd5b6102c65a03f41515610b2657600080fd5b50505060405180519392505050565b600080548190819081908190819033600160a060020a0390811691161480610b6b575060015433600160a060020a039081169116145b80610b84575060025433600160a060020a039081169116145b80610b9d575060035433600160a060020a039081169116145b80610bb6575060045433600160a060020a039081169116145b80610bcf575060055433600160a060020a039081169116145b80610be8575060065433600160a060020a039081169116145b80610c01575060075433600160a060020a039081169116145b1515610c0c57600080fd5b6000898152600e6020526040902060010154600160a060020a031615610c3457889350610c66565b600095507f5061796d656e745375626a65637400000000000000000000000000000000000094508593508392506111e9565b6000848152600e602052604081206009015460ff166007811115610c8657fe5b14158015610cb4575060036000858152600e602052604090206009015460ff166007811115610cb157fe5b14155b15610d66576000848152600e6020526040902060018101546009909101547f426f6e645374617465000000000000000000000000000000000000000000000091600160a060020a0316908690600080516020611f8483398151915290429060ff166007811115610d2057fe5b60405191825260208201526040908101905180910390a4600095507f426f6e645374617465000000000000000000000000000000000000000000000094508592506111e9565b6000848152600e602052604090206007015442901015610e2d576000848152600e6020526040902060018101546009909101547f457870697279446174650000000000000000000000000000000000000000000091600160a060020a0316908690600080516020611f8483398151915290429060ff166007811115610de757fe5b60405191825260208201526040908101905180910390a4600095507f457870697279446174650000000000000000000000000000000000000000000094508592506111e9565b6000848152600e60205260409020600301548814610ef2576000848152600e6020526040902060018101546009909101547f437265646974416d6f756e74000000000000000000000000000000000000000091600160a060020a0316908690600080516020611f8483398151915290429060ff166007811115610eac57fe5b60405191825260208201526040908101905180910390a4600095507f437265646974416d6f756e74000000000000000000000000000000000000000094508592506111e9565b6000848152600e602052604081206009015460ff166007811115610f1257fe5b1415611073576000848152600e6020526040812060098101805460ff1916600190811791829055909101549194508991600160a060020a0316908690600080516020611f8483398151915290429060ff166007811115610f6e57fe5b60405191825260208201526040908101905180910390a4610f8d611a96565b600160a060020a031663d63d3600898a60006040516020015260405160e060020a63ffffffff851602815260048101929092526024820152604401602060405180830381600087803b1515610fe157600080fd5b6102c65a03f11515610ff257600080fd5b50505060405180516000868152600e602052604090206004810182905560098101805460ff191660031790819055600190910154919250600160a060020a03909116908690600080516020611f8483398151915290429060ff16600781111561105757fe5b60405191825260208201526040908101905180910390a461110f565b6000848152600e6020526040808220600a908101548084529183209081019290925560098201805460ff19166004179081905560088301546001938401549396509194509091600160a060020a0316908490600080516020611f8483398151915290429060ff1660078111156110e557fe5b60405191825260208201526040908101905180910390a46000848152600e60205260408120600a01555b506000838152600e6020908152604080832060078101849055600281018d905560098101805460ff191660049081179091558101546003820154633b9aca0091810291909104016005909101819055605a8a01808552600f9093529220805490920190915561117d84611aa5565b6000848152600e60205260409020600881015460018201546009909201549091600160a060020a0316908690600080516020611f8483398151915290429060ff1660078111156111c957fe5b60405191825260208201526040908101905180910390a460019550600094505b5050945094509450949050565b600454600160a060020a031690565b603281565b600073__Lib___________________________________63ecb48425600884846040516020015260405160e060020a63ffffffff85160281526004810192909252602482015260440160206040518083038186803b1515610b1557600080fd5b7f23e2f15b66feab75c1e6aee1f874ef01b346636c780216c8ed4d327be495ac8481565b600a81565b600554600160a060020a031690565b600080835b8381116112ca576000818152600f602052604090205491909101906001016112a7565b600285016000908152600f602052604080822054600188018352818320548884529190922054010192508484038281151561130157fe5b049150509250929050565b7f9701a3e1840f59635c219124a5166d8eb2dfd539967f3c80e19f75e48f7df1fc81565b600654600160a060020a031690565b7fd2034e198b9eadf8e1cbe0748ea895a9b61c191942d760814bbf69b40433b55c81565b600033803b801561137357600080fd5b61271085101561138257600080fd5b6298968085111561139257600080fd5b61139a611a96565b600160a060020a0316638cbc1ca06000604051602001526040518163ffffffff1660e060020a028152600401602060405180830381600087803b15156113df57600080fd5b6102c65a03f115156113f057600080fd5b5050506040518051861115905061140657600080fd5b83156114aa576000848152600e602052604090206001015433600160a060020a0390811691161461143657600080fd5b60046000858152600e602052604090206009015460ff16600781111561145857fe5b1461146257600080fd5b6000848152600e6020526040902060080154426202a30001901161148557600080fd5b6000848152600e60205260409020600301546103e860c887020411156114aa57600080fd5b600c5430336040519283526c01000000000000000000000000600160a060020a03928316810260208501529116026034820152604801604051809103902092506101606040519081016040908152600c548252600160a060020a03331660208301526000908201819052606082018790526080820181905260a082018190524260c083018190526202a3000160e08301526101008201819052610120820190815260006020918201819052858152600e9091526040902081518155602082015160018201805473ffffffffffffffffffffffffffffffffffffffff1916600160a060020a039290921691909117905560408201516002820155606082015181600301556080820151816004015560a0820151816005015560c0820151816006015560e08201518160070155610100820151816008015561012082015160098201805460ff191660018360078111156115fe57fe5b0217905550610140820151600a909101555073__Lib___________________________________63ec72608960088560405160e060020a63ffffffff85160281526004810192909252602482015260440160006040518083038186803b151561166657600080fd5b6102c65a03f4151561167757600080fd5b50505061168383611aa5565b6000838152600e60205260409020600901548590600160a060020a033316908590600080516020611f8483398151915290429060ff1660078111156116c457fe5b60405191825260208201526040908101905180910390a483156118bb576000848152600e60205260408082206009808201805460ff1990811660051782558886529385209182018054909416600217909355600a808301889055018790559186905260019091015490548491600160a060020a0316908690600080516020611f8483398151915290429060ff16600781111561175c57fe5b60405191825260208201526040908101905180910390a46000838152600e6020526040902060018101546009909101548591600160a060020a0316908590600080516020611f8483398151915290429060ff1660078111156117ba57fe5b60405191825260208201526040908101905180910390a46117d9611a96565b600160a060020a031663d63d3600866000806040516020015260405160e060020a63ffffffff851602815260048101929092526024820152604401602060405180830381600087803b151561182d57600080fd5b6102c65a03f1151561183e57600080fd5b50505060405180516000858152600e602052604090206004810182905560098101805460ff191660031790819055600190910154919250600160a060020a03909116908590600080516020611f8483398151915290429060ff1660078111156118a357fe5b60405191825260208201526040908101905180910390a45b5050505050565b600f6020526000908152604090205481565b600754600160a060020a031690565b600073__Lib___________________________________63085db8ab600884846040516020015260405160e060020a63ffffffff85160281526004810192909252602482015260440160206040518083038186803b1515610b1557600080fd5b7f5dfb70a859b83dcaee084a4338268940533335bc927474a5b53609d68502509481565b6276a70081565b60c881565b600054600154600254600354600454600554600654600754600160a060020a0397881698968816979586169694861695938416949284169391821692911690565b600381565b600054600160a060020a031690565b600073__Lib___________________________________6342614936600884846040516020015260405160e060020a63ffffffff85160281526004810192909252602482015260440160206040518083038186803b1515610b1557600080fd5b600254600160a060020a031690565b6301312d0081565b6298968081565b60075460009033600160a060020a03908116911614611a6457600080fd5b60ff84161515611a7f57611a788383611bc6565b9050611a83565b5060005b9392505050565b61b6cf1981565b600e81565b600154600160a060020a031690565b611aad611a96565b600160a060020a031663de3e0c0e6000604051602001526040518163ffffffff1660e060020a028152600401602060405180830381600087803b1515611af257600080fd5b6102c65a03f11515611b0357600080fd5b50505060405180516000838152600e60205260409020600a429290920191820690910360089091015550611b356118d4565b6000828152600e6020526040812060080154600160a060020a039290921691632944ac2e91843060405160e060020a63ffffffff8716028152600481019490945260ff90921660248401526044830152600160a060020a03166064820152608401600060405180830381600087803b1515611baf57600080fd5b6102c65a03f11515611bc057600080fd5b50505050565b6000828152600e60205260408120600801548190819081908190861080611c0c575060076000888152600e602052604090206009015460ff166007811115611c0a57fe5b145b80611c36575060066000888152600e602052604090206009015460ff166007811115611c3457fe5b145b15611c445760009450611f79565b6000878152600e60205260409020600581015460099091015490945060039060ff166007811115611c7157fe5b14611c7d576000611c90565b6000878152600e60205260409020600301545b92506000915060056000888152600e602052604090206009015460ff166007811115611cb857fe5b1415611ce657506000868152600e6020526040808220600a01548083529120600301546103e89060c8020491505b6000878152600e6020526040812083860360059091018190551115611dbc57611d0d610a0b565b6000888152600e602052604090819020600281810154600590920154600160a060020a03949094169363870b1cbe939192918c91908290518663ffffffff1660e060020a02815260040180866006811115611d6457fe5b60ff1681526020810195909552506040808501939093526060840191909152608083015260a090910191506000905180830381600087803b1515611da757600080fd5b6102c65a03f11515611db857600080fd5b5050505b611dc4611a96565b6000888152600e60205260409081902060050154600160a060020a03929092169163f4b07f2a9186905160e060020a63ffffffff851602815260048101929092526024820152604401600060405180830381600087803b1515611e2657600080fd5b6102c65a03f11515611e3757600080fd5b5060049150611e439050565b6000888152600e602052604090206009015460ff166007811115611e6357fe5b1415611e8a576000878152600e60205260409020600901805460ff19166007179055611ea7565b6000878152600e60205260409020600901805460ff191660061790555b6000878152600e60205260409020600581015460018201546009909201549091600160a060020a0316908990600080516020611f8483398151915290429060ff166007811115611ef357fe5b60405191825260208201526040908101905180910390a473__Lib___________________________________63fa8ae1cb60088960405160e060020a63ffffffff85160281526004810192909252602482015260440160006040518083038186803b1515611f6057600080fd5b6102c65a03f41515611f7157600080fd5b505050600094505b50505050929150505600c3e329471035a3d804085e6e164fb80c565248b4dc9ce8432cec08e40a655f4ca165627a7a7230582073d2a3b6eb37d590d308a570399b5af155631e07fd3bf426f2598c2762aa05e70029",
  "source": "/**\n * @description Bond contract\n * @copyright (c) 2017 Honest Insurance\n * @author Martin Stellnberger\n * @license GPL-3.0\n */\n\npragma solidity ^0.4.18;\n\nimport \"./Lib.sol\";\nimport \"./Pool.sol\";\nimport \"./Bank.sol\";\nimport \"./SetupI.sol\";\nimport \"./IntAccessI.sol\";\nimport \"./HashMapI.sol\";\nimport \"./NotificationI.sol\";\nimport \"./Timer.sol\";\n\n\n/** @title Bond contract for liquidity providers.*/\ncontract Bond is SetupI, IntAccessI, NotificationI, HashMapI {\n\n    struct BondData {\n        // Index of this Bond\n        uint idx;\n        // Access key / password of the Bond owner\n        address owner;\n        // Bank payment hash as provided by the bank\n        bytes32 paymentAccountHash;\n\n        // Variables for the bond as per whitepaper\n        uint principal_Cu;\n        uint yield_Ppb;\n        uint maturityPayoutAmount_Cu;\n        \n        // DateTime stamps for the bond\n        uint creationDate;\n        uint nextStateExpiryDate;\n        uint maturityDate;\n        \n        // Different states a Bond can be in \n        Lib.BondState state;\n\n        // Used to store:  => the address of the bond that was used as a security this bond if applicable\n        //                 => AND the address of another bond this bond acts a security for.\n        bytes32 securityReferenceHash;\n    }\n\n    // Storage mapping for all the bond data Hash of the Bond points to its data\n    mapping(bytes32 => BondData) public dataStorage;\n\n    // Store the bond maturity payout amounts for each pool day\n    mapping(uint => uint) public bondMaturityPayoutAmount;\n\n    // Events broadcasted by the Bond / Log events\n    event LogBond(bytes32 indexed bondHash, address indexed owner, bytes32 indexed info, uint timestamp, uint state);\n\n    /**@dev Constructor of the Bond.\n     * @param _trustAdr The address of the Trust.\n     */\n    function Bond(address _trustAdr) IntAccessI(_trustAdr) public {\n    }\n\n    /**@dev Creates an new bond with the requested principal amount in a created state. The transaction (msg.sender) must be an externally owned account (not a contract address)\n     * @param _principal_Cu The principal amount of the Bond.\n     * @param _hashOfReferenceBond Optional parameter with the hash of an existing bond owned by the same person who is submitting this transaction\n     */\n    function createBond(uint _principal_Cu, bytes32 _hashOfReferenceBond) \n        public \n        isNotContractAdr(msg.sender)\n    {\n        // Ensure bond principal is in between the min and max boundaries\n        require(_principal_Cu >= MIN_BOND_PRINCIPAL_CU);\n        require(_principal_Cu <= MAX_BOND_PRINCIPAL_CU);\n\n        // Ensure sufficient IPBs are avaialble for the new bond (this is only a preliminary check)\n        require(_principal_Cu <= Pool(getPoolAdr()).WC_Bond_Cu());\n\n        // In case a hash to provide a security for the newly created bond is provided verify if it is a valid bond\n        if (_hashOfReferenceBond != 0x0) {\n            // Ensure the sender of the transaction is the owner of the bond that is providing the security\n            require(dataStorage[_hashOfReferenceBond].owner == msg.sender);\n\n            // Ensure the bond providing the security is in an issued state\n            require(dataStorage[_hashOfReferenceBond].state == Lib.BondState.Issued);\n\n            // Ensure the bond providing the security does not expire within the next few days\n            require(dataStorage[_hashOfReferenceBond].maturityDate > now + DURATION_BOND_LOCK_NEXT_STATE_SEC);\n            \n            // Ensure that the principal of the bond providing the underwriting is sufficient to provide underwriting for the specified bond\n            require(((_principal_Cu * BOND_REQUIRED_SECURITY_REFERENCE_PPT) / 10**3) <= dataStorage[_hashOfReferenceBond].principal_Cu);\n        }\n\n        // *************************************\n        // *** Create the Bond\n        // *************************************\n\n\t\t// Create a new Bond hash by using random input parameters (Timestamp, nextIdx of the BondHashMapping, address of bond contract and owner address)\n        bytes32 bondHash = keccak256(hashMap.nextIdx, address(this), msg.sender);\n\n        // Add the bond data to the data storage\n        dataStorage[bondHash] = BondData({\n            // Specify the hashMap.nextIdx as the index for this new bond\n            idx: hashMap.nextIdx,\n            // Save the address of the bond's owner\n            owner: msg.sender,\n            // Set the bond principal amount\n            principal_Cu: _principal_Cu,\n            // Set the creation date to now\n            creationDate: now,\n            // Set the timestamp for expiry of bond being in an underwritten state\n            nextStateExpiryDate: now + DURATION_BOND_LOCK_NEXT_STATE_SEC,\n            // Set the bonds status to created\n            state: Lib.BondState.Created,\n            // Set the remaining bond variables to 0 or 0x0\n            maturityDate: 0,\n            paymentAccountHash: bytes32(0x0),\n            yield_Ppb: 0,\n            maturityPayoutAmount_Cu: 0,\n            securityReferenceHash: bytes32(0x0)\n        });\n\n        // Add the bond to the Hash map\n        hashMap.add(bondHash);\n\n        // Set and schedule the preliminary bond maturity event notification\n        setScheduleMaturityEvent(bondHash);\n\n        // Add log entry to document creation of bond\n        LogBond(bondHash, msg.sender, bytes32(_principal_Cu), now, uint(dataStorage[bondHash].state));\n\n\n        // *************************************\n        // *** Secure and Sign the Bond (if applicable)\n        // *************************************\n        \n        // In case a hash to provide a security for the newly created bond is provided continue with securing and signing the new bond\n        if (_hashOfReferenceBond != 0x0) {\n\n            // Change the bonds' status\n            dataStorage[_hashOfReferenceBond].state = Lib.BondState.LockedReferenceBond;\n            dataStorage[bondHash].state = Lib.BondState.SecuredReferenceBond;\n\n            // Set the cross-references of the bonds\n            dataStorage[_hashOfReferenceBond].securityReferenceHash = bondHash;\n            dataStorage[bondHash].securityReferenceHash = _hashOfReferenceBond;\n\n            // Create log entries\n            LogBond(_hashOfReferenceBond, dataStorage[_hashOfReferenceBond].owner, bondHash, now, uint(dataStorage[_hashOfReferenceBond].state));\n            LogBond(bondHash, dataStorage[bondHash].owner, _hashOfReferenceBond, now, uint(dataStorage[bondHash].state));\n\n            // Submitt the bond for signing by the pool and get bond yield\n            dataStorage[bondHash].yield_Ppb = Pool(getPoolAdr()).signBond(_principal_Cu, 0);\n\n            // Change the bond's status to Signed\n            dataStorage[bondHash].state = Lib.BondState.Signed;\n\n            // Create log entries\n            LogBond(bondHash, dataStorage[bondHash].owner, bytes32(dataStorage[bondHash].yield_Ppb), now, uint(dataStorage[bondHash].state));\n        }\n    }\n\n    /**@dev Function is called by the Insurance Pool, when a liquidity provider made a deposit and it\n            has been credited to the insurance pool's Funding Account.\n     * @param _paymentAccountHash The payment account hash of the sender used for this bank payment.\n     * @param _paymentSubject Payment particular/code/reference to be specified for the bank transaction (must be equal to the bond hash)\n     * @param _creditAmount_Cu The principal amount that has been credited to the Funding Account.\n     * @return info describing an unsuccessfull funding otherwise empty (0x0)\n     */\n    function processAccountCredit(bytes32 _paymentAccountHash, bytes32 _paymentSubject, uint _creditAmount_Cu, uint _currentPoolDay)\n        public\n        isIntAuth\n        returns (bool success, bytes32 info, bytes32 bondHash, bool reduceWcTransit)\n    {\n        // Verify if the paymentSubject provided matches the any of the Bond hashes\n        if (dataStorage[_paymentSubject].owner != 0x0)\n            bondHash = _paymentSubject;\n        else \n            return (false, bytes32(\"PaymentSubject\"), 0x0, false);\n        \n\n        // Verify if the bond is in a valid state (Created or Signed)\n        if ((dataStorage[bondHash].state != Lib.BondState.Created) &&\n            (dataStorage[bondHash].state != Lib.BondState.Signed)) \n        {\n            // Add log entry as bond is in invalid state\n            LogBond(bondHash, dataStorage[bondHash].owner, bytes32(\"BondState\"), now, uint(dataStorage[bondHash].state));\n            // Return the bond is in an invalid State 'BondState'\n            return (false, bytes32(\"BondState\"), bondHash, false);\n        }\n\n        // Verify the credit has been made within the next state expiry time frame\n        if (dataStorage[bondHash].nextStateExpiryDate < now) {\n            // Add log entry as credit has been made too late\n            LogBond(bondHash, dataStorage[bondHash].owner, bytes32(\"ExpiryDate\"), now, uint(dataStorage[bondHash].state));\n            // Return the bond is in an invalid State 'BondState'\n            return (false, bytes32(\"ExpiryDate\"), bondHash, false);\n        }\n\n        // Verify the credited amount is the correct amount\n        if (dataStorage[bondHash].principal_Cu != _creditAmount_Cu) {\n            // Add log entry\n            LogBond(bondHash, dataStorage[bondHash].owner, bytes32(\"CreditAmount\"), now, uint(dataStorage[bondHash].state));\n            // return subject\n            return (false, bytes32(\"CreditAmount\"), bondHash, false);\n        }\n\n        // If bond is in a \"Created\" state\n        if (dataStorage[bondHash].state == Lib.BondState.Created) {\n            // Wc transit does not need to be reduced\n            reduceWcTransit = false;\n            // Change bond status\n            dataStorage[bondHash].state = Lib.BondState.SecuredBondPrincipal;\n            // Create log entry\n            LogBond(bondHash, dataStorage[bondHash].owner, bytes32(_creditAmount_Cu), now, uint(dataStorage[bondHash].state));\n            \n            // Submitt the bond for signing by the pool and get bond yield\n            dataStorage[bondHash].yield_Ppb = Pool(getPoolAdr()).signBond(_creditAmount_Cu, _creditAmount_Cu);\n            // Change the bond's status to Signed\n            dataStorage[bondHash].state = Lib.BondState.Signed;\n            // Create log entry\n            LogBond(bondHash, dataStorage[bondHash].owner, bytes32(dataStorage[bondHash].yield_Ppb), now, uint(dataStorage[bondHash].state));\n        \n        } else {\n            // Bond is in \"Signed\" state (Bond was secured with a reference Bond) => Pool is expecting a payment (i.e. WcTransit has to be reduced)\n            reduceWcTransit = true;\n            // Get the reference bond Hash that performed the security\n            bytes32 refBondHash = dataStorage[bondHash].securityReferenceHash;\n            // Remove the security liablity\n            dataStorage[refBondHash].securityReferenceHash = 0x0;\n            // Change the state of the security bond back to issued\n            dataStorage[refBondHash].state = Lib.BondState.Issued;\n            // Add log entry for underwriting bond\n            LogBond(refBondHash, dataStorage[refBondHash].owner, bytes32(dataStorage[refBondHash].maturityDate), now, uint(dataStorage[refBondHash].state));\n\n            // Remove the underwriting bond's reference\n            dataStorage[bondHash].securityReferenceHash = 0x0;\n        }\n\n        // Remove the bond's next phase expiry date\n        dataStorage[bondHash].nextStateExpiryDate = 0;\n        // Save the payment hash\n        dataStorage[bondHash].paymentAccountHash = _paymentAccountHash;\n        // Change the Bond's state to issued\n        dataStorage[bondHash].state = Lib.BondState.Issued;\n        \n        // Calculate the preliminary BondMaturityPayoutAmount\n        dataStorage[bondHash].maturityPayoutAmount_Cu = dataStorage[bondHash].principal_Cu + \n            (dataStorage[bondHash].principal_Cu * dataStorage[bondHash].yield_Ppb / 10**9);\n\n        // Calculate the day this bond matures\n        uint maturityDay = _currentPoolDay + (DURATION_TO_BOND_MATURITY_SEC / 1 days);\n\n        // Add the bond's maturity payout amount for the maturity day\n        bondMaturityPayoutAmount[maturityDay] += dataStorage[bondHash].maturityPayoutAmount_Cu;\n\n        // Set and schedule the final bond maturity event notification\n        setScheduleMaturityEvent(bondHash);\n\n        // Add log entry\n        LogBond(bondHash, dataStorage[bondHash].owner, bytes32(dataStorage[bondHash].maturityDate), now, uint(dataStorage[bondHash].state));\n        // Return empty subject as successfull\n        return (true, 0x0, bondHash, reduceWcTransit);\n    }\n\n    /**@dev Performs the final bond processing (calculation of payout and penalty amounts)\n            This function can only be called from internal ping function\n     * @param _bondHash The hash of the bond that should be processed for maturity\n     * @param _scheduledDateTime The dateTime this event is scheduled for\n     * @return 0 if successfull or EPOCH timestamp for re-scheduling the bond maturity processing\n     */\n    function processMaturedBond(bytes32 _bondHash, uint _scheduledDateTime)\n        private\n        returns (uint)\n    {\n        // If the maturity date does not match the scheduled ping notification return 0 or\n        // the bond is in a Matured or Defaulted state return 0\n        if ((_scheduledDateTime < dataStorage[_bondHash].maturityDate) || \n            (dataStorage[_bondHash].state == Lib.BondState.Matured) || \n            (dataStorage[_bondHash].state == Lib.BondState.Defaulted))\n            return 0;\n\n        // Set the payout amount to the previously calculated maturity payout amount for the bond\n        uint payoutAmount_Cu = dataStorage[_bondHash].maturityPayoutAmount_Cu;\n        // Set the transitAmount_Cu if the Bond is 'Signed' state\n        uint reduceWcTransitAmount_Cu = (dataStorage[_bondHash].state == Lib.BondState.Signed ? \n            dataStorage[_bondHash].principal_Cu : 0);\n        // Variable to store the penalty amount if bond is in a LockedReferenceBond state\n        uint penaltyAmount_Cu = 0;\n\n        // Calculate the penalty amount in case the Bond is 'LockedReferenceBond'\n        if (dataStorage[_bondHash].state == Lib.BondState.LockedReferenceBond) {\n            // Get the reference bond Hash that performed the underwriting\n            bytes32 refBondHash = dataStorage[_bondHash].securityReferenceHash;\n            // Calculate the penalty amount\n            penaltyAmount_Cu = (dataStorage[refBondHash].principal_Cu * BOND_REQUIRED_SECURITY_REFERENCE_PPT) / 10**3;\n        }\n\n        // Calculate the final maturityPayoutAmount_Cu\n        dataStorage[_bondHash].maturityPayoutAmount_Cu = payoutAmount_Cu - penaltyAmount_Cu;\n\n        // If the maturity payout amount is greater than 0 then create a bank payment advice\n        if (dataStorage[_bondHash].maturityPayoutAmount_Cu > 0) {\n            // Create payment instruction for the bank\n            Bank(getBankAdr()).createPaymentAdvice(Lib.PaymentAdviceType.BondMaturity, \n                dataStorage[_bondHash].paymentAccountHash, _bondHash, dataStorage[_bondHash].maturityPayoutAmount_Cu, _bondHash);\n        }\n\n        // Call the pool and update the bank and transit balances if applicable\n        Pool(getPoolAdr()).processMaturedBond(dataStorage[_bondHash].maturityPayoutAmount_Cu, reduceWcTransitAmount_Cu);\n        \n        // Change the bond's status\n        if (dataStorage[_bondHash].state == Lib.BondState.Issued)\n            dataStorage[_bondHash].state = Lib.BondState.Matured;\n        else \n            dataStorage[_bondHash].state = Lib.BondState.Defaulted;\n        \n        // Add log entry\n        LogBond(_bondHash, dataStorage[_bondHash].owner, bytes32(dataStorage[_bondHash].maturityPayoutAmount_Cu), now, uint(dataStorage[_bondHash].state));\n        \n        // Archive the bond\n        hashMap.archive(_bondHash);\n\n        // Return 0 as processing completed succefully and no event notification re-scheduling is required\n        return 0;\n    }\n\n    // *******************************\n    // *** Miscellaneous functions\n    // *******************************\n\n    /**@dev Calculates and returns the bond payout amounts for all the bonds when they mature.\n     * @param _beginDay The starting day (currentPoolDay) to start adding the bond maturity amounts\n     * @param _endDay The last day to add the the bond maturity aount for\n     * @return bondMaturityPayoutAmountNext3Days_Cu Total amount of expected bond payouts for today, tomorrow and the day after tomorrow.\n     * @return bondMaturityPayoutFuturePerDay_Cu Total amount of expected bond payouts in the future on a per day basis\n     */\n    function getBondMaturityPayouts(uint _beginDay, uint _endDay)\n        public\n        constant\n        returns (uint bondMaturityPayoutAmountNext3Days_Cu, uint bondMaturityPayoutFuturePerDay_Cu)\n    {\n        // Iterate through the hash mapping of all bonds between the first and the last idx\n        for (uint i = _beginDay; i<=_endDay; i++) {\n            bondMaturityPayoutFuturePerDay_Cu += bondMaturityPayoutAmount[i];\n        }\n\n        // Calculate the combined bond maturity payout amounts for today, tomorrow and the day after tomorrow\n        bondMaturityPayoutAmountNext3Days_Cu = bondMaturityPayoutAmount[_beginDay] + bondMaturityPayoutAmount[_beginDay + 1] + bondMaturityPayoutAmount[_beginDay + 2];\n        \n        // Calculate the bond maturity payouts for the future on a per day basis\n        bondMaturityPayoutFuturePerDay_Cu /= (_endDay - _beginDay);\n\n        // Return the \n        return (bondMaturityPayoutAmountNext3Days_Cu, bondMaturityPayoutFuturePerDay_Cu);\n    }\n\n    /**@dev Calculates the maturity time for the bond and schedules a ping notification\n     * @param _bondHash The hash of the bond to schedule the maturity ping notification for\n     */\n    function setScheduleMaturityEvent(bytes32 _bondHash) \n        private\n    {\n        // Calculate the maturity time for the bond\n        dataStorage[_bondHash].maturityDate = now + Pool(getPoolAdr()).DURATION_TO_BOND_MATURITY_SEC();\n        // Adjust the maturity date slightly to by reducing the last digit to 0\n        // This is required for successfull Ping notification execution in the function processMaturedBond()\n        // e.g. A ping notification originally scheduled for timestamp 1508355318 is now scheduled for 1508355310 (last digit is replaced by 0)\n        dataStorage[_bondHash].maturityDate -= dataStorage[_bondHash].maturityDate % 10;\n        // Schedule the event notification with the Timer contract\n        Timer(getTimerAdr()).addNotification(dataStorage[_bondHash].maturityDate,\n            uint8(NotificationSubject.BondMaturity), _bondHash, address(this));\n    }\n\n    /**@dev Executes on a ping notification initiated by the Timer\n     * @param _subject The subject of the ping notifiction\n     * @param _message The message of the ping notifiction\n     * @param _scheduledDateTime The time the notification was scheduled for\n     * @return The delta time in seconds to add to _dateTime to re-schedule the next ping; 0 for no re-scheduling.\n     */\n    function ping(uint8 _subject, bytes32 _message, uint _scheduledDateTime)\n        public\n        isTimerAuth\n        returns (uint)\n    {\n        if (_subject == uint8(NotificationSubject.BondMaturity)) {\n            return processMaturedBond(_message, _scheduledDateTime);\n        }\n        return 0;\n    }\n\n    // *******************************\n    // Bond enums and structs\n    // *******************************\n\n    // Enum of the diffent Notification subjects of the pool\n    enum NotificationSubject {\n        /*0*/ BondMaturity\n    }\n}",
  "sourcePath": "/Users/Martin/Dapp/01HIC/46-HIC-2017-01-31/contracts/Bond.sol",
  "compiler": {
    "name": "solc",
    "version": "0.4.18+commit.9cf6e910.Emscripten.clang"
  },
  "schemaVersion": "1.0.1",
  "updatedAt": "2018-01-30T23:40:31.809Z"
}