{
  "contractName": "ExtAccessI",
  "abi": [
    {
      "constant": false,
      "inputs": [],
      "name": "rotateKey",
      "outputs": [],
      "payable": false,
      "stateMutability": "nonpayable",
      "type": "function"
    },
    {
      "constant": true,
      "inputs": [],
      "name": "getPreAuthKey",
      "outputs": [
        {
          "name": "",
          "type": "address"
        }
      ],
      "payable": false,
      "stateMutability": "view",
      "type": "function"
    },
    {
      "constant": true,
      "inputs": [],
      "name": "getPreAuthExpiry",
      "outputs": [
        {
          "name": "",
          "type": "uint256"
        }
      ],
      "payable": false,
      "stateMutability": "view",
      "type": "function"
    },
    {
      "constant": false,
      "inputs": [
        {
          "name": "_adr",
          "type": "address"
        }
      ],
      "name": "addKey",
      "outputs": [],
      "payable": false,
      "stateMutability": "nonpayable",
      "type": "function"
    },
    {
      "constant": true,
      "inputs": [],
      "name": "EXT_ACCESS_PRE_AUTH_DURATION_SEC",
      "outputs": [
        {
          "name": "",
          "type": "uint256"
        }
      ],
      "payable": false,
      "stateMutability": "view",
      "type": "function"
    },
    {
      "constant": false,
      "inputs": [],
      "name": "preAuth",
      "outputs": [],
      "payable": false,
      "stateMutability": "nonpayable",
      "type": "function"
    },
    {
      "constant": true,
      "inputs": [],
      "name": "getExtAccessKey",
      "outputs": [
        {
          "name": "authKey0",
          "type": "address"
        },
        {
          "name": "authKey1",
          "type": "address"
        },
        {
          "name": "authKey2",
          "type": "address"
        },
        {
          "name": "authKey3",
          "type": "address"
        },
        {
          "name": "authKey4",
          "type": "address"
        }
      ],
      "payable": false,
      "stateMutability": "view",
      "type": "function"
    },
    {
      "inputs": [
        {
          "name": "_adr",
          "type": "address"
        }
      ],
      "payable": false,
      "stateMutability": "nonpayable",
      "type": "constructor"
    }
  ],
  "bytecode": "0x606060405260018054600160a060020a0319169055600060025534156200002557600080fd5b604051602080620012ea83398101604052808051915050600160a060020a03811615156200005257600080fd5b6200006b81640100000000620004956200007282021704565b50620005f7565b6002600090815260208190526000805160206200126a83398151915254600160a060020a031615620001b45742600254118015620000ba5750600154600160a060020a031615155b8015620000d6575060015433600160a060020a03908116911614155b1515620000e257600080fd5b600160009081526020526000805160206200128a8339815191525433600160a060020a03908116911614806200013e5750600260009081526020526000805160206200126a8339815191525433600160a060020a039081169116145b80620001705750600360009081526020526000805160206200124a8339815191525433600160a060020a039081169116145b80620001a2575060046000908152602052600080516020620012aa8339815191525433600160a060020a039081169116145b1515620001ae57600080fd5b6200029f565b6000808052602052600080516020620012ca83398151915254600160a060020a03161580620002345750600160009081526020526000805160206200128a83398151915254600160a060020a03161580156200023457506000808052602052600080516020620012ca8339815191525433600160a060020a039081169116145b80620002935750600260009081526020526000805160206200126a83398151915254600160a060020a0316158015620002935750600160009081526020526000805160206200128a8339815191525433600160a060020a039081169116145b15156200029f57600080fd5b60018054600160a060020a03191690556000600255600160a060020a0382161515620002ca57600080fd5b6000808052602052600080516020620012ca83398151915254600160a060020a03838116911614801590620003255750600160009081526020526000805160206200128a83398151915254600160a060020a03838116911614155b8015620003585750600260009081526020526000805160206200126a83398151915254600160a060020a03838116911614155b80156200038b5750600360009081526020526000805160206200124a83398151915254600160a060020a03838116911614155b8015620003be575060046000908152602052600080516020620012aa83398151915254600160a060020a03838116911614155b1515620003ca57600080fd5b60046000908152602052600080516020620012aa83398151915254600160a060020a031615620003f957600080fd5b50803b80156200040857600080fd5b6000808052602052600080516020620012ca83398151915254600160a060020a0316151562000468576000808052602052600080516020620012ca8339815191528054600160a060020a031916600160a060020a038416179055620005f3565b600160009081526020526000805160206200128a83398151915254600160a060020a03161515620004cc57600160009081526020526000805160206200128a8339815191528054600160a060020a031916600160a060020a038416179055620005f3565b600260009081526020526000805160206200126a83398151915254600160a060020a031615156200053057600260009081526020526000805160206200126a8339815191528054600160a060020a031916600160a060020a038416179055620005f3565b600360009081526020526000805160206200124a83398151915254600160a060020a031615156200059457600360009081526020526000805160206200124a8339815191528054600160a060020a031916600160a060020a038416179055620005f3565b60046000908152602052600080516020620012aa83398151915254600160a060020a03161515620005f35760046000908152602052600080516020620012aa8339815191528054600160a060020a031916600160a060020a0384161790555b5050565b610c4380620006076000396000f3006060604052600436106100825763ffffffff7c0100000000000000000000000000000000000000000000000000000000600035041663153a5eaa81146100875780631a8ff0811461009c5780631be5cec3146100cb5780635f7b68be146100f05780636e7bc1631461010f578063ac9dddc614610122578063c52a9d4f14610135575b600080fd5b341561009257600080fd5b61009a610186565b005b34156100a757600080fd5b6100af610480565b604051600160a060020a03909116815260200160405180910390f35b34156100d657600080fd5b6100de61048f565b60405190815260200160405180910390f35b34156100fb57600080fd5b61009a600160a060020a0360043516610495565b341561011a57600080fd5b6100de6109e1565b341561012d57600080fd5b61009a6109e7565b341561014057600080fd5b610148610afe565b604051600160a060020a039586168152938516602085015291841660408085019190915290841660608401529216608082015260a001905180910390f35b60026000908152602052600080516020610b9883398151915254600160a060020a0316156102b857426002541180156101c95750600154600160a060020a031615155b80156101e4575060015433600160a060020a03908116911614155b15156101ef57600080fd5b60016000908152602052600080516020610bb88339815191525433600160a060020a0390811691161480610248575060026000908152602052600080516020610b988339815191525433600160a060020a039081169116145b80610278575060036000908152602052600080516020610b788339815191525433600160a060020a039081169116145b806102a8575060046000908152602052600080516020610bd88339815191525433600160a060020a039081169116145b15156102b357600080fd5b610399565b6000808052602052600080516020610bf883398151915254600160a060020a03161580610333575060016000908152602052600080516020610bb883398151915254600160a060020a031615801561033357506000808052602052600080516020610bf88339815191525433600160a060020a039081169116145b8061038e575060026000908152602052600080516020610b9883398151915254600160a060020a031615801561038e575060016000908152602052600080516020610bb88339815191525433600160a060020a039081169116145b151561039957600080fd5b60018054600160a060020a03191690556000600281905560048152602052600080516020610bd883398151915254600160a060020a031615156103db57600080fd5b60006020819052600080516020610bb88339815191528054600080516020610bf88339815191528054600160a060020a0319908116600160a060020a0380851691909117909255600080516020610b98833981519152805493821684841617909455600080516020610b78833981519152805493821684841617909455600080516020610bd88339815191528054938216928416929092179093556004909352169055565b600154600160a060020a031690565b60025490565b600260009081526020819052600080516020610b9883398151915254600160a060020a0316156105c957426002541180156104da5750600154600160a060020a031615155b80156104f5575060015433600160a060020a03908116911614155b151561050057600080fd5b60016000908152602052600080516020610bb88339815191525433600160a060020a0390811691161480610559575060026000908152602052600080516020610b988339815191525433600160a060020a039081169116145b80610589575060036000908152602052600080516020610b788339815191525433600160a060020a039081169116145b806105b9575060046000908152602052600080516020610bd88339815191525433600160a060020a039081169116145b15156105c457600080fd5b6106aa565b6000808052602052600080516020610bf883398151915254600160a060020a03161580610644575060016000908152602052600080516020610bb883398151915254600160a060020a031615801561064457506000808052602052600080516020610bf88339815191525433600160a060020a039081169116145b8061069f575060026000908152602052600080516020610b9883398151915254600160a060020a031615801561069f575060016000908152602052600080516020610bb88339815191525433600160a060020a039081169116145b15156106aa57600080fd5b60018054600160a060020a03191690556000600255600160a060020a03821615156106d457600080fd5b6000808052602052600080516020610bf883398151915254600160a060020a0383811691161480159061072c575060016000908152602052600080516020610bb883398151915254600160a060020a03838116911614155b801561075d575060026000908152602052600080516020610b9883398151915254600160a060020a03838116911614155b801561078e575060036000908152602052600080516020610b7883398151915254600160a060020a03838116911614155b80156107bf575060046000908152602052600080516020610bd883398151915254600160a060020a03838116911614155b15156107ca57600080fd5b60046000908152602052600080516020610bd883398151915254600160a060020a0316156107f757600080fd5b50803b801561080557600080fd5b6000808052602052600080516020610bf883398151915254600160a060020a03161515610861576000808052602052600080516020610bf88339815191528054600160a060020a031916600160a060020a0384161790556109dd565b60016000908152602052600080516020610bb883398151915254600160a060020a031615156108c15760016000908152602052600080516020610bb88339815191528054600160a060020a031916600160a060020a0384161790556109dd565b60026000908152602052600080516020610b9883398151915254600160a060020a031615156109215760026000908152602052600080516020610b988339815191528054600160a060020a031916600160a060020a0384161790556109dd565b60036000908152602052600080516020610b7883398151915254600160a060020a031615156109815760036000908152602052600080516020610b788339815191528054600160a060020a031916600160a060020a0384161790556109dd565b60046000908152602052600080516020610bd883398151915254600160a060020a031615156109dd5760046000908152602052600080516020610bd88339815191528054600160a060020a031916600160a060020a0384161790555b5050565b61012c81565b60026000908152602052600080516020610b9883398151915254600160a060020a03161515610a1557600080fd5b60016000908152602052600080516020610bb88339815191525433600160a060020a0390811691161480610a6e575060026000908152602052600080516020610b988339815191525433600160a060020a039081169116145b80610a9e575060036000908152602052600080516020610b788339815191525433600160a060020a039081169116145b80610ace575060046000908152602052600080516020610bd88339815191525433600160a060020a039081169116145b1515610ad957600080fd5b60018054600160a060020a03191633600160a060020a03161790554261012c01600255565b60006020819052600080516020610bf883398151915254600080516020610bb883398151915254600080516020610b9883398151915254600080516020610b78833981519152546004909452600080516020610bd883398151915254600160a060020a03938416959284169491841693918216929116905600101e368776582e57ab3d116ffe2517c0a585cd5b23174b01e275c2d8329c3d83abbb5caa7dda850e60932de0934eb1f9d0f59695050f761dc64e443e5030a569ada5013122d395ba3c54772283fb069b10426056ef8ca54750cb9bb552a59e7d52d75039926638d3c558b2bdefb945d5be8dae29dedd1c313212a4d472d9fde5ad3228b676f7d3cd4284a5443f17f1962b36e491b30a40b2405849e597ba5fb5a165627a7a7230582069324352c18c18f8082ad1e3e6dc6f003e851aaeebee124a9d8ff9d380b0b54c0029101e368776582e57ab3d116ffe2517c0a585cd5b23174b01e275c2d8329c3d83abbb5caa7dda850e60932de0934eb1f9d0f59695050f761dc64e443e5030a569ada5013122d395ba3c54772283fb069b10426056ef8ca54750cb9bb552a59e7d52d75039926638d3c558b2bdefb945d5be8dae29dedd1c313212a4d472d9fde5ad3228b676f7d3cd4284a5443f17f1962b36e491b30a40b2405849e597ba5fb5",
  "source": "/**\n * @description External Access Interface contract\n * @copyright (c) 2017 Honest Insurance\n * @author Martin Stellnberger\n * @license GPL-3.0\n */\n\npragma solidity ^0.4.18;\n\n\n/** @title Interface contract managing external access keys for authorisation and authentication.*/\ncontract ExtAccessI {\n\n    // Time duration pre-authorisation remains active in seconds\n    uint public constant EXT_ACCESS_PRE_AUTH_DURATION_SEC = 5 minutes;\n    \n    // Storage mapping for 5 access keys (0, 1, 2, 3, 4)\n    mapping(uint => address) private authKeys;\n\n    // Address variable that was used to perform pre-authorisation\n    address private preAuthKeyUsed = 0x0;\n\n    // Pre-authorisation expiry timestamp\n    uint private preAuthExpiry = 0;\n\n    /**\n    * @dev Constructor for ExtAccessI.\n    * @param _adr Address to add as the first key.\n    */\n    function ExtAccessI(address _adr) public {\n        // Verify a valid address has been provided\n        require(_adr != address(0x0));\n        // Add the address provided to the authorised keys\n        addKey(_adr);\n    }\n\n    /**\n    * @dev Modifier verifies if sender is authorised to perform a transaction\n    */\n    modifier isExtAuth() {\n        require(\n            (authKeys[0] == address(0x0)) ||    // If no key is specified authorisation is granted\n            (authKeys[0] == msg.sender) ||      // If it matches key 0 authorisation is granted\n            (authKeys[1] == msg.sender)         // If it matches key 1 authorisation is granted\n        );\n        _;\n    }\n\n    /**\n    * @dev Modifier verifies if sender is authorised to complete a transaction that requires pre-authorisation\n    */\n    modifier isPreAuth() {\n        // If 3 or more keys are specified a valid pre-authorisation needs to exist\n        if (authKeys[2] != address(0x0)) {\n            // Verify if pre-auth exist, is still valid and current sender of the transaction is not the pre-auth key used\n            require((preAuthExpiry > now) && (preAuthKeyUsed != address(0x0)) && (preAuthKeyUsed != msg.sender)); \n            // Check the sender of the transaction matches any of the specified keys\n            require(\n                (authKeys[1] == msg.sender) || \n                (authKeys[2] == msg.sender) || \n                (authKeys[3] == msg.sender) || \n                (authKeys[4] == msg.sender)\n            );\n        \n        } else {\n            // If less than 3 keys are specified no pre-authorisation needs to exist\n            require(\n                // No key is specified\n                (authKeys[0] == address(0x0)) ||\n                // One key is currently specified check if it matches that key\n                ((authKeys[1] == address(0x0)) && (authKeys[0] == msg.sender)) ||\n                // Two keys are currently specified check if it matches the key in key slot 1\n                ((authKeys[2] == address(0x0)) && (authKeys[1] == msg.sender))\n            );\n        }\n        // Remove pre-authorisation\n        preAuthKeyUsed = address(0x0);\n        // Remove preAuthExpiry\n        preAuthExpiry = 0;\n        _;\n    }\n\n    /**\n    * @dev Performs a pre-authorisation by msg.sender. If successful the ExtAccessI is in a pre-authorised state.\n    */\n    function preAuth() public {\n        // Ensure that at least 3 keys have been specified\n        require(authKeys[2] != address(0x0));\n\n        // Ensure msg.sender matches the keys in key slot 1, 2, 3 or 4\n        require(\n            (authKeys[1] == msg.sender) || \n            (authKeys[2] == msg.sender) || \n            (authKeys[3] == msg.sender) || \n            (authKeys[4] == msg.sender)\n        );\n        \n        // Save the pre-authorisation key used\n        preAuthKeyUsed = msg.sender;\n        // Set the pre-authorisation expiry time\n        preAuthExpiry = EXT_ACCESS_PRE_AUTH_DURATION_SEC + now;\n    }\n\n    /**\n    * @dev Adds a new key to the authorised keys. Only up to 5 unique keys can be specified.\n    * @param _adr Key to add.\n    */\n    function addKey(address _adr)\n        public\n        isPreAuth\n    {\n        // Check if it is a valid key\n        require(_adr != address(0x0));\n       \n        // Check if the new key is not yet part of the authorised keys list (no duplications)\n        require(\n            (authKeys[0] != _adr) && \n            (authKeys[1] != _adr) && \n            (authKeys[2] != _adr) &&\n            (authKeys[3] != _adr) && \n            (authKeys[4] != _adr)\n        );\n        \n        // Check if not all key slots have already been filled\n        require(authKeys[4] == address(0x0));\n\n        // Check if the address provided is not a contract address (must be an externally owned account)\n        uint size;\n        // Retrieve the size of the code that is stored against the provided address\n        assembly { size := extcodesize(_adr) }\n        // Ensure that the 'address size' is 0 (if the size is greater than 0 this address is owned by a contract)\n        require(size == 0);\n\n        // Add the key to the first empty key slot\n        if (authKeys[0] == address(0x0)) \n            authKeys[0] = _adr;\n        else if (authKeys[1] == address(0x0))\n            authKeys[1] = _adr;\n        else if (authKeys[2] == address(0x0))\n            authKeys[2] = _adr;\n        else if (authKeys[3] == address(0x0)) \n            authKeys[3] = _adr;\n        else if (authKeys[4] == address(0x0)) \n            authKeys[4] = _adr;\n    }\n\n    /**\n    * @dev Removes key in key slot 0 and move up all the remaining keys. All 5 key slots need to be filled.\n    */\n    function rotateKey()\n        public\n        isPreAuth\n    {\n        // Ensure all key slots have already been filled\n        require(authKeys[4] != address(0x0));\n\n        // Rotate the keys and remove the key in key slot 0\n        authKeys[0] = authKeys[1];\n        authKeys[1] = authKeys[2];\n        authKeys[2] = authKeys[3];\n        authKeys[3] = authKeys[4];\n        authKeys[4] = address(0x0);\n    }\n\n    /**\n    * @dev Returns the requested key in the specified key slot\n    * @return The configured access keys.\n    */\n    function getExtAccessKey() public constant returns (\n        address authKey0, \n        address authKey1, \n        address authKey2, \n        address authKey3,\n        address authKey4)\n    {\n        return (authKeys[0], authKeys[1], authKeys[2], authKeys[3], authKeys[4]);\n    }\n\n    /**\n    * @dev Returns the pre-authorisation key if one has been specified.\n    * @return The address of the used pre-authorisation key used.\n    */\n    function getPreAuthKey() public constant returns (address) {\n        return preAuthKeyUsed;\n    }\n\n    /**\n    * @dev Returns the timestamp when pre-authorisation expires.\n    * @return EPOCH time when pre-authorisation expires. \n    */\n    function getPreAuthExpiry() public constant returns (uint) {\n        return preAuthExpiry;\n    }\n}",
  "sourcePath": "/Users/Martin/Dapp/01HIC/46-HIC-2017-01-31/contracts/ExtAccessI.sol",
  "compiler": {
    "name": "solc",
    "version": "0.4.18+commit.9cf6e910.Emscripten.clang"
  },
  "schemaVersion": "1.0.1",
  "updatedAt": "2018-01-30T23:40:31.880Z"
}