{
  "contractName": "HashMapI",
  "abi": [
    {
      "constant": true,
      "inputs": [],
      "name": "hashMap",
      "outputs": [
        {
          "name": "firstIdx",
          "type": "uint256"
        },
        {
          "name": "nextIdx",
          "type": "uint256"
        },
        {
          "name": "count",
          "type": "uint256"
        }
      ],
      "payable": false,
      "stateMutability": "view",
      "type": "function"
    },
    {
      "constant": true,
      "inputs": [
        {
          "name": "_hash",
          "type": "bytes32"
        }
      ],
      "name": "isActive",
      "outputs": [
        {
          "name": "",
          "type": "bool"
        }
      ],
      "payable": false,
      "stateMutability": "view",
      "type": "function"
    },
    {
      "constant": true,
      "inputs": [
        {
          "name": "_hash",
          "type": "bytes32"
        }
      ],
      "name": "isValid",
      "outputs": [
        {
          "name": "",
          "type": "bool"
        }
      ],
      "payable": false,
      "stateMutability": "view",
      "type": "function"
    },
    {
      "constant": true,
      "inputs": [
        {
          "name": "_idx",
          "type": "uint256"
        }
      ],
      "name": "get",
      "outputs": [
        {
          "name": "",
          "type": "bytes32"
        }
      ],
      "payable": false,
      "stateMutability": "view",
      "type": "function"
    },
    {
      "constant": true,
      "inputs": [
        {
          "name": "_hash",
          "type": "bytes32"
        }
      ],
      "name": "isArchived",
      "outputs": [
        {
          "name": "",
          "type": "bool"
        }
      ],
      "payable": false,
      "stateMutability": "view",
      "type": "function"
    }
  ],
  "bytecode": "0x6060604052606060405190810160409081526001808352602083015260009082018190528151816003015560208201518160040155604082015181600501555050341561004b57600080fd5b6102e18061005a6000396000f3006060604052600436106100535763ffffffff60e060020a600035041663584b641081146100585780635c36901c1461008f5780636a938567146100b95780639507d39a146100cf578063b6b942e8146100f7575b600080fd5b341561006357600080fd5b61006b61010d565b60405180848152602001838152602001828152602001935050505060405180910390f35b341561009a57600080fd5b6100a5600435610119565b604051901515815260200160405180910390f35b34156100c457600080fd5b6100a5600435610198565b34156100da57600080fd5b6100e56004356101f7565b60405190815260200160405180910390f35b341561010257600080fd5b6100a5600435610256565b60035460045460055483565b600073__Lib___________________________________63199ef7be8284816040516020015260405160e060020a63ffffffff85160281526004810192909252602482015260440160206040518083038186803b151561017857600080fd5b6102c65a03f4151561018957600080fd5b50505060405180519392505050565b600073__Lib___________________________________63ecb484258284816040516020015260405160e060020a63ffffffff85160281526004810192909252602482015260440160206040518083038186803b151561017857600080fd5b600073__Lib___________________________________63085db8ab8284816040516020015260405160e060020a63ffffffff85160281526004810192909252602482015260440160206040518083038186803b151561017857600080fd5b600073__Lib___________________________________63426149368284816040516020015260405160e060020a63ffffffff85160281526004810192909252602482015260440160206040518083038186803b151561017857600080fd00a165627a7a72305820d1992d2ac7acf9dabee88ba61a835cbc1672ecada6276babbf084967931720a60029",
  "source": "/**\n * @description Hash Map Interface contract\n * @copyright (c) 2017 Honest Insurance\n * @author Martin Stellnberger\n * @license GPL-3.0\n */\n\npragma solidity ^0.4.18;\n\nimport \"./Lib.sol\";\n\n\n/** @title Hash Map contract that can be inherited by any contracts that requires an iterable mapping */\ncontract HashMapI {\n\n    // Mapping to allow iterating through the hashes\n\tusing Lib for Lib.HashMappping;\n    Lib.HashMappping public hashMap = Lib.HashMappping({firstIdx: 1, nextIdx:1, count: 0 });\n\n    /**\n     * @dev Verifies if the hash provided is a currently an active hash\n     * @param _hash Hash to verify\n     * @return Indicates if the hash is active (and part of the mapping)\n     */\n\tfunction isActive(bytes32 _hash) public constant returns (bool) {\n\t\treturn hashMap.isActive(_hash);\n\t}\n\n    /**\n     * @dev Verifies if the hash provided is an archived hash and part of the mapping\n     * @param _hash Hash to verify\n     * @return Indicates if the hash is archived (and part of the mapping)\n     */\n    function isArchived(bytes32 _hash) public constant returns (bool) {\n        return hashMap.isArchived(_hash);\n    }\n\n    /**\n    * @dev Verifies if the hash provided is either an active or archived hash and part of the mapping\n    * @param _hash Hash to verify\n    * @return Indicates if the hash is either active or archived (part of the mapping)\n    */\n\tfunction isValid(bytes32 _hash) public constant returns (bool) {\n        return hashMap.isValid(_hash);\n    }\n\n    /**\n     * @dev Retrieve the hash stored and the position of _idx\n     * @param _idx Index of the hash to retrieve\n     * @return Hash specified by the _idx value (returns 0x0 if _idx is an invalid index)\n     */\n    function get(uint _idx) public constant returns (bytes32) {\n\t\treturn hashMap.get(_idx);\n    }\n}",
  "sourcePath": "/Users/Martin/Dapp/01HIC/46-HIC-2017-01-31/contracts/HashMapI.sol",
  "compiler": {
    "name": "solc",
    "version": "0.4.18+commit.9cf6e910.Emscripten.clang"
  },
  "schemaVersion": "1.0.1",
  "updatedAt": "2018-01-30T23:40:31.891Z"
}