{
  "contractName": "HashMapITest",
  "abi": [
    {
      "constant": false,
      "inputs": [
        {
          "name": "_hash",
          "type": "bytes32"
        }
      ],
      "name": "addHash",
      "outputs": [],
      "payable": false,
      "stateMutability": "nonpayable",
      "type": "function"
    },
    {
      "constant": true,
      "inputs": [],
      "name": "hashMap",
      "outputs": [
        {
          "name": "firstIdx",
          "type": "uint256"
        },
        {
          "name": "nextIdx",
          "type": "uint256"
        },
        {
          "name": "count",
          "type": "uint256"
        }
      ],
      "payable": false,
      "stateMutability": "view",
      "type": "function"
    },
    {
      "constant": true,
      "inputs": [
        {
          "name": "_hash",
          "type": "bytes32"
        }
      ],
      "name": "isActive",
      "outputs": [
        {
          "name": "",
          "type": "bool"
        }
      ],
      "payable": false,
      "stateMutability": "view",
      "type": "function"
    },
    {
      "constant": true,
      "inputs": [
        {
          "name": "_hash",
          "type": "bytes32"
        }
      ],
      "name": "isValid",
      "outputs": [
        {
          "name": "",
          "type": "bool"
        }
      ],
      "payable": false,
      "stateMutability": "view",
      "type": "function"
    },
    {
      "constant": true,
      "inputs": [
        {
          "name": "_idx",
          "type": "uint256"
        }
      ],
      "name": "get",
      "outputs": [
        {
          "name": "",
          "type": "bytes32"
        }
      ],
      "payable": false,
      "stateMutability": "view",
      "type": "function"
    },
    {
      "constant": false,
      "inputs": [
        {
          "name": "_hash",
          "type": "bytes32"
        }
      ],
      "name": "archiveHash",
      "outputs": [],
      "payable": false,
      "stateMutability": "nonpayable",
      "type": "function"
    },
    {
      "constant": true,
      "inputs": [
        {
          "name": "_hash",
          "type": "bytes32"
        }
      ],
      "name": "isArchived",
      "outputs": [
        {
          "name": "",
          "type": "bool"
        }
      ],
      "payable": false,
      "stateMutability": "view",
      "type": "function"
    }
  ],
  "bytecode": "0x6060604052606060405190810160409081526001808352602083015260009082018190528151816003015560208201518160040155604082015181600501555050341561004b57600080fd5b6103e88061005a6000396000f3006060604052600436106100695763ffffffff60e060020a60003504166343e08ad1811461006e578063584b6410146100865780635c36901c146100bd5780636a938567146100e75780639507d39a146100fd578063b3ac319d14610125578063b6b942e81461013b575b600080fd5b341561007957600080fd5b610084600435610151565b005b341561009157600080fd5b6100996101be565b60405180848152602001838152602001828152602001935050505060405180910390f35b34156100c857600080fd5b6100d36004356101ca565b604051901515815260200160405180910390f35b34156100f257600080fd5b6100d3600435610249565b341561010857600080fd5b6101136004356102a8565b60405190815260200160405180910390f35b341561013057600080fd5b610084600435610307565b341561014657600080fd5b6100d360043561035d565b73__Lib___________________________________63ec72608960008360405160e060020a63ffffffff85160281526004810192909252602482015260440160006040518083038186803b15156101a757600080fd5b6102c65a03f415156101b857600080fd5b50505050565b60035460045460055483565b600073__Lib___________________________________63199ef7be8284816040516020015260405160e060020a63ffffffff85160281526004810192909252602482015260440160206040518083038186803b151561022957600080fd5b6102c65a03f4151561023a57600080fd5b50505060405180519392505050565b600073__Lib___________________________________63ecb484258284816040516020015260405160e060020a63ffffffff85160281526004810192909252602482015260440160206040518083038186803b151561022957600080fd5b600073__Lib___________________________________63085db8ab8284816040516020015260405160e060020a63ffffffff85160281526004810192909252602482015260440160206040518083038186803b151561022957600080fd5b73__Lib___________________________________63fa8ae1cb60008360405160e060020a63ffffffff85160281526004810192909252602482015260440160006040518083038186803b15156101a757600080fd5b600073__Lib___________________________________63426149368284816040516020015260405160e060020a63ffffffff85160281526004810192909252602482015260440160206040518083038186803b151561022957600080fd00a165627a7a723058205fbae82a412c7b1badb0e4607aeb9446977e9076d07b8e5a27b6100b8ae6cefa0029",
  "source": "/**\n * @description Hash Map Interface Test contract\n * @copyright (c) 2017 Honest Insurance\n * @author Martin Stellnberger\n * @license GPL-3.0\n */\n\npragma solidity ^0.4.18;\n\nimport \"./HashMapI.sol\";\n\n\n/** @title Contract exists only for the purpose of testing the HashMapI contract */\ncontract HashMapITest is HashMapI {\n\n\tfunction addHash(bytes32 _hash) public {\n\t\thashMap.add(_hash);\n\t}\n\n\tfunction archiveHash(bytes32 _hash) public {\n\t\thashMap.archive(_hash);\n\t}\n}",
  "sourcePath": "/Users/Martin/Dapp/01HIC/46-HIC-2017-01-31/contracts/HashMapITest.sol",
  "compiler": {
    "name": "solc",
    "version": "0.4.18+commit.9cf6e910.Emscripten.clang"
  },
  "schemaVersion": "1.0.1",
  "updatedAt": "2018-01-30T23:40:31.899Z"
}