{
  "contractName": "IntAccessI",
  "abi": [
    {
      "constant": false,
      "inputs": [
        {
          "name": "_trustAdr",
          "type": "address"
        },
        {
          "name": "_poolAdr",
          "type": "address"
        },
        {
          "name": "_bondAdr",
          "type": "address"
        },
        {
          "name": "_bankAdr",
          "type": "address"
        },
        {
          "name": "_policyAdr",
          "type": "address"
        },
        {
          "name": "_settlementAdr",
          "type": "address"
        },
        {
          "name": "_adjustorAdr",
          "type": "address"
        },
        {
          "name": "_timerAdr",
          "type": "address"
        }
      ],
      "name": "setContractAdr",
      "outputs": [],
      "payable": false,
      "stateMutability": "nonpayable",
      "type": "function"
    },
    {
      "constant": true,
      "inputs": [],
      "name": "getBankAdr",
      "outputs": [
        {
          "name": "",
          "type": "address"
        }
      ],
      "payable": false,
      "stateMutability": "view",
      "type": "function"
    },
    {
      "constant": true,
      "inputs": [],
      "name": "getPolicyAdr",
      "outputs": [
        {
          "name": "",
          "type": "address"
        }
      ],
      "payable": false,
      "stateMutability": "view",
      "type": "function"
    },
    {
      "constant": true,
      "inputs": [],
      "name": "getSettlementAdr",
      "outputs": [
        {
          "name": "",
          "type": "address"
        }
      ],
      "payable": false,
      "stateMutability": "view",
      "type": "function"
    },
    {
      "constant": true,
      "inputs": [],
      "name": "getAdjustorAdr",
      "outputs": [
        {
          "name": "",
          "type": "address"
        }
      ],
      "payable": false,
      "stateMutability": "view",
      "type": "function"
    },
    {
      "constant": true,
      "inputs": [],
      "name": "getTimerAdr",
      "outputs": [
        {
          "name": "",
          "type": "address"
        }
      ],
      "payable": false,
      "stateMutability": "view",
      "type": "function"
    },
    {
      "constant": true,
      "inputs": [],
      "name": "getContractAdr",
      "outputs": [
        {
          "name": "trustContractAdr",
          "type": "address"
        },
        {
          "name": "poolContractAdr",
          "type": "address"
        },
        {
          "name": "bondContractAdr",
          "type": "address"
        },
        {
          "name": "bankContractAdr",
          "type": "address"
        },
        {
          "name": "policyContractAdr",
          "type": "address"
        },
        {
          "name": "settlementContractAdr",
          "type": "address"
        },
        {
          "name": "adjustorContractAdr",
          "type": "address"
        },
        {
          "name": "timerContractAdr",
          "type": "address"
        }
      ],
      "payable": false,
      "stateMutability": "view",
      "type": "function"
    },
    {
      "constant": true,
      "inputs": [],
      "name": "getTrustAdr",
      "outputs": [
        {
          "name": "",
          "type": "address"
        }
      ],
      "payable": false,
      "stateMutability": "view",
      "type": "function"
    },
    {
      "constant": true,
      "inputs": [],
      "name": "getBondAdr",
      "outputs": [
        {
          "name": "",
          "type": "address"
        }
      ],
      "payable": false,
      "stateMutability": "view",
      "type": "function"
    },
    {
      "constant": true,
      "inputs": [],
      "name": "getPoolAdr",
      "outputs": [
        {
          "name": "",
          "type": "address"
        }
      ],
      "payable": false,
      "stateMutability": "view",
      "type": "function"
    },
    {
      "inputs": [
        {
          "name": "_trustAdr",
          "type": "address"
        }
      ],
      "payable": false,
      "stateMutability": "nonpayable",
      "type": "constructor"
    }
  ],
  "bytecode": "0x6060604052341561000f57600080fd5b6040516020806104bc83398101604052808051915050600160a060020a038116151561003a57600080fd5b60008054600160a060020a03909216600160a060020a03199092169190911790556104528061006a6000396000f3006060604052600436106100a35763ffffffff7c01000000000000000000000000000000000000000000000000000000006000350416634414693c81146100a85780634aa79747146100f3578063648596e91461012257806375c3357b1461013557806383a46bd7146101485780638d9791a91461015b578063aa08eb241461016e578063ad910d85146101d6578063ba06ae46146101e9578063f83e94a6146101fc575b600080fd5b34156100b357600080fd5b6100f1600160a060020a0360043581169060243581169060443581169060643581169060843581169060a43581169060c43581169060e4351661020f565b005b34156100fe57600080fd5b61010661036d565b604051600160a060020a03909116815260200160405180910390f35b341561012d57600080fd5b61010661037c565b341561014057600080fd5b61010661038b565b341561015357600080fd5b61010661039a565b341561016657600080fd5b6101066103a9565b341561017957600080fd5b6101816103b8565b604051600160a060020a039889168152968816602088015294871660408088019190915293871660608701529186166080860152851660a0850152841660c0840152921660e082015261010001905180910390f35b34156101e157600080fd5b6101066103f9565b34156101f457600080fd5b610106610408565b341561020757600080fd5b610106610417565b60005433600160a060020a0390811691161461022a57600080fd5b600160a060020a038816151561023f57600080fd5b600160a060020a038716151561025457600080fd5b600160a060020a038616151561026957600080fd5b600160a060020a038516151561027e57600080fd5b600160a060020a038416151561029357600080fd5b600160a060020a03831615156102a857600080fd5b600160a060020a03821615156102bd57600080fd5b600160a060020a03811615156102d257600080fd5b6000805473ffffffffffffffffffffffffffffffffffffffff19908116600160a060020a039a8b1617909155600180548216988a1698909817909755600280548816968916969096179095556003805487169488169490941790935560048054861692871692909217909155600580548516918616919091179055600680548416918516919091179055600780549092169216919091179055565b600354600160a060020a031690565b600454600160a060020a031690565b600554600160a060020a031690565b600654600160a060020a031690565b600754600160a060020a031690565b600054600154600254600354600454600554600654600754600160a060020a0397881698968816979586169694861695938416949284169391821692911690565b600054600160a060020a031690565b600254600160a060020a031690565b600154600160a060020a0316905600a165627a7a723058204bd63291c64362f0ae5b12666bebfb24ef49ac811faeb254ae9840197c30d89f0029",
  "source": "/**\n * @description Internal Access Interface contract\n * @copyright (c) 2017 Honest Insurance\n * @author Martin Stellnberger\n * @license GPL-3.0\n */\n\npragma solidity ^0.4.18;\n\n\n/** @title Is used by contracts that receive function calls to be authorised from other contract transactions.*/\ncontract IntAccessI {\n\n    // Address variables of the contract addresses in this solution\n    address private trustAdr;\n    address private poolAdr;\n    address private bondAdr;\n    address private bankAdr;\n    address private policyAdr;\n    address private settlementAdr;\n    address private adjustorAdr;\n    address private timerAdr;\n\n    /**\n    * @dev Constructor for IntAccessI.\n    * @param _trustAdr Address of the trust contract\n    */\n    function IntAccessI(address _trustAdr) public {\n        // Verify a valid deployment controller address\n        require(_trustAdr != address(0x0));\n        // Save the deployment controller's address\n        trustAdr = _trustAdr;\n    }\n\n    /**\n    * @dev Modifier verifies if sender is an authorised controller contract being part of this solution\n    */\n    modifier isIntAuth() {\n        // Verify the sender is either the Trust, Pool, Bond, Bank Policy, Settlement, Adjustor or Timer contract\n        require((msg.sender == trustAdr) || (msg.sender == poolAdr) || (msg.sender == bondAdr) || (msg.sender == bankAdr) || (msg.sender == policyAdr) || (msg.sender == settlementAdr) || (msg.sender == adjustorAdr) || (msg.sender == timerAdr));\n        _;\n    }\n\n    /**\n    * @dev Modifiers verifies if sender is an authorised controller contract\n    */\n    modifier isTrustAuth() {require((msg.sender == trustAdr)); _;}\n    modifier isPoolAuth() {require((msg.sender == poolAdr)); _;}\n    modifier isBondAuth() {require((msg.sender == bondAdr)); _;}\n    modifier isBankAuth() {require((msg.sender == bankAdr)); _;}\n    modifier isPolicyAuth() {require((msg.sender == policyAdr)); _;}\n    modifier isSettlementAuth() {require((msg.sender == settlementAdr)); _;}\n    modifier isAdjustorAuth() {require((msg.sender == adjustorAdr)); _;}\n    modifier isTimerAuth() {require((msg.sender == timerAdr)); _;}\n\n    /**\n     * @dev This modifiers checks if the provided address is a contract address or an externaly owned account\n     * @param _adr Address to verify\n     */\n    modifier isNotContractAdr(address _adr) {\n        uint size;\n        // Retrieve the size of the code that is stored against the provided address\n        assembly { size := extcodesize(_adr) }\n        // Ensure that the 'address size' is 0 (if the size is greater than 0 this address is owned by a contract)\n        require(size == 0);\n        _;\n    }\n\n    /**\n    * @dev Sets all the contract addresses for the solution\n    */\n    function setContractAdr(\n        address _trustAdr,\n        address _poolAdr, \n        address _bondAdr, \n        address _bankAdr, \n        address _policyAdr, \n        address _settlementAdr, \n        address _adjustorAdr, \n        address _timerAdr\n    )\n        public\n        isTrustAuth\n    {\n        // Verify valid address have been provided for all contracts\n        require(_trustAdr != address(0x0));\n        require(_poolAdr != address(0x0));\n        require(_bondAdr != address(0x0));\n        require(_bankAdr != address(0x0));\n        require(_policyAdr != address(0x0));\n        require(_settlementAdr != address(0x0));\n        require(_adjustorAdr != address(0x0));\n        require(_timerAdr != address(0x0)); \n\n        // Save the remaining contract's addresses\n        trustAdr = _trustAdr;\n        poolAdr = _poolAdr;\n        bondAdr = _bondAdr;\n        bankAdr = _bankAdr;\n        policyAdr = _policyAdr;\n        settlementAdr = _settlementAdr;\n        adjustorAdr = _adjustorAdr;\n        timerAdr = _timerAdr;\n    }\n\n    /**\n    * @dev Returns all the internal contract addresses\n    * @return The 8 address of the contracts\n    */\n    function getContractAdr() public constant returns (\n        address trustContractAdr,\n        address poolContractAdr, \n        address bondContractAdr, \n        address bankContractAdr, \n        address policyContractAdr, \n        address settlementContractAdr, \n        address adjustorContractAdr, \n        address timerContractAdr) \n    {\n        return (trustAdr, poolAdr, bondAdr, bankAdr, \n            policyAdr, settlementAdr, adjustorAdr, timerAdr);\n    }\n\n    function getTrustAdr() public constant returns (address) { return trustAdr; }\n    function getPoolAdr() public constant returns (address) { return poolAdr; }\n    function getBondAdr() public constant returns (address) { return bondAdr; }\n    function getBankAdr() public constant returns (address) { return bankAdr; }\n    function getPolicyAdr() public constant returns (address) { return policyAdr; }\n    function getSettlementAdr() public constant returns (address) { return settlementAdr; }\n    function getAdjustorAdr() public constant returns (address) { return adjustorAdr; }\n    function getTimerAdr() public constant returns (address) { return timerAdr; }\n}",
  "sourcePath": "/Users/Martin/Dapp/01HIC/46-HIC-2017-01-31/contracts/IntAccessI.sol",
  "compiler": {
    "name": "solc",
    "version": "0.4.18+commit.9cf6e910.Emscripten.clang"
  },
  "schemaVersion": "1.0.1",
  "updatedAt": "2018-01-30T23:40:31.902Z"
}