{
  "contractName": "Lib",
  "abi": [
    {
      "constant": true,
      "inputs": [
        {
          "name": "self",
          "type": "Lib.HashMappping storage"
        },
        {
          "name": "_idx",
          "type": "uint256"
        }
      ],
      "name": "get",
      "outputs": [
        {
          "name": "",
          "type": "bytes32"
        }
      ],
      "payable": false,
      "stateMutability": "view",
      "type": "function"
    },
    {
      "constant": true,
      "inputs": [
        {
          "name": "self",
          "type": "Lib.HashMappping storage"
        },
        {
          "name": "_hash",
          "type": "bytes32"
        }
      ],
      "name": "isActive",
      "outputs": [
        {
          "name": "",
          "type": "bool"
        }
      ],
      "payable": false,
      "stateMutability": "view",
      "type": "function"
    },
    {
      "constant": true,
      "inputs": [
        {
          "name": "self",
          "type": "Lib.HashMappping storage"
        },
        {
          "name": "_hash",
          "type": "bytes32"
        }
      ],
      "name": "isArchived",
      "outputs": [
        {
          "name": "",
          "type": "bool"
        }
      ],
      "payable": false,
      "stateMutability": "view",
      "type": "function"
    },
    {
      "constant": false,
      "inputs": [
        {
          "name": "self",
          "type": "Lib.HashMappping storage"
        },
        {
          "name": "_hash",
          "type": "bytes32"
        }
      ],
      "name": "add",
      "outputs": [],
      "payable": false,
      "stateMutability": "nonpayable",
      "type": "function"
    },
    {
      "constant": true,
      "inputs": [
        {
          "name": "self",
          "type": "Lib.HashMappping storage"
        },
        {
          "name": "_hash",
          "type": "bytes32"
        }
      ],
      "name": "isValid",
      "outputs": [
        {
          "name": "",
          "type": "bool"
        }
      ],
      "payable": false,
      "stateMutability": "view",
      "type": "function"
    },
    {
      "constant": false,
      "inputs": [
        {
          "name": "self",
          "type": "Lib.HashMappping storage"
        },
        {
          "name": "_hash",
          "type": "bytes32"
        }
      ],
      "name": "archive",
      "outputs": [],
      "payable": false,
      "stateMutability": "nonpayable",
      "type": "function"
    }
  ],
  "bytecode": "0x6060604052341561000f57600080fd5b6102e68061001e6000396000f3006060604052600436106100775763ffffffff7c0100000000000000000000000000000000000000000000000000000000600035041663085db8ab811461007c578063199ef7be1461009c57806342614936146100be578063ec726089146100cc578063ecb48425146100dc578063fa8ae1cb146100ea575b600080fd5b61008a6004356024356100f8565b60405190815260200160405180910390f35b6100aa60043560243561010e565b604051901515815260200160405180910390f35b6100aa600435602435610124565b6100da60043560243561013d565b005b6100aa6004356024356101bc565b6100da6004356024356101f0565b6000908152600291909101602052604090205490565b6000908152602091909152604090205460ff1690565b6000908152600191909101602052604090205460ff1690565b60008181526020839052604090205460ff1615801561016d5750600081815260018301602052604090205460ff16155b151561017557fe5b600081815260208381526040808320805460ff1916600190811790915560048601805485526002870190935292209290925581548101909155600590910180549091019055565b60008181526020839052604081205460ff16806101e95750600082815260018401602052604090205460ff165b9392505050565b60008181526020839052604090205460ff16151560011461020d57fe5b600081815260208381526040808320805460ff199081169091556001808701808552838620805490931682179092556005870180546000190190556003870154855260028701845282852054855292529091205460ff16151514156102785760038201805460010190555b60038201546000908152600283016020908152604080832054835260018086019092529091205460ff16151514156102b65760038201805460010190555b50505600a165627a7a72305820219f0a6a40609b73945d2fb0a6c604589b983ac8893cbc7519974eedef4b610e0029",
  "source": "/**\n * @description Library contract\n * @copyright (c) 2017 Honest Insurance\n * @author Martin Stellnberger\n * @license GPL-3.0\n */\n\npragma solidity ^0.4.18;\n\n\n/** @title Library functions used by contracts within this ecosystem.*/\nlibrary Lib {\n    \n    /**\n    * @dev Enum of the diffent Bank accounts held by the pool\n    */\n    enum PaymentAdviceType {\n        /*0*/ PremiumRefund,\n        /*1*/ Premium,\n        /*2*/ BondMaturity,\n        /*3*/ Overflow,\n        /*4*/ PoolOperator,\n        /*5*/ ServiceProvider,\n        /*6*/ Trust\n    }\n\n    /**\n    * @dev Enum of the diffent Bank accounts held by the pool\n    */\n    enum AccountType {\n        /*0*/ PremiumAccount,\n        /*1*/ BondAccount,\n        /*2*/ FundingAccount\n    }\n\n    /**\n    * @dev Enum of the two types of bank transactions (Credit; Debit)\n    */\n    enum TransactionType {\n        /*0*/ Credit,\n        /*1*/ Debit\n    }\n\n    /**\n    * @dev Enum of the different states a Bond can be in.\n    */\n    enum BondState {\n        /*0*/ Created,\n        /*1*/ SecuredBondPrincipal,\n        /*2*/ SecuredReferenceBond,\n        /*3*/ Signed,\n        /*4*/ Issued,\n        /*5*/ LockedReferenceBond,\n        /*6*/ Defaulted,\n        /*7*/ Matured\n    }\n\n    /**\n    * @dev Enum of the different states a Policy can be in.\n    */\n    enum PolicyState {\n        /*0*/ Paused,       // Policy owner deactivated the policy termporarily (temporarily prevent from continuing or being in force or effect)\n        /*1*/ Issued,       // Policy is in an active state\n        /*2*/ Lapsed,       // Policy ran out of funds (no longer valid; expired.)\n        /*3*/ PostLapsed,   // Policy has been refunded and is due for Re-Issuing\n        /*4*/ Retired       // The policy has been cancelled and is archived permanently.\n    }\n\n    /**\n    * @dev Enum of the different states a Settlement can be in.\n    */\n    enum SettlementState {\n        /*0*/ Created,      // An adjustor created a new Settlement\n        /*1*/ Processing,   // Settlement is in a processing state\n        /*2*/ Settled       // The settlement request has been completed (no further amendments are possible)\n    }\n    \n    /**\n    * @dev Efficient storage container for active and archived hashes enabling iteration\n    */\n\tstruct HashMappping {\n        mapping(bytes32 => bool) hashActive;\n        mapping(bytes32 => bool) hashArchive;\n        mapping(uint => bytes32) itHashMap;\n        uint firstIdx;\n        uint nextIdx;\n        uint count;\n    }\n\n    /**\n    * @dev Add a new hash to the storage container if it is not yet part of it\n    * @param self Struct storage container pointing to itself\n    * @param _hash Hash to add to the struct\n    */\n    function add(HashMappping storage self, bytes32 _hash) public {\n        // Ensure that the hash has not been previously already been added to the active or archived list\n        assert((self.hashActive[_hash] == false) && (self.hashArchive[_hash] == false));\n        // Activate the hash (set it to true)\n        self.hashActive[_hash] = true;\n        // Index the hash with the next idx\n        self.itHashMap[self.nextIdx] = _hash;\n        self.nextIdx++;\n        self.count++;\n    }\n\n    /**\n    * @dev Archives an existing hash if it is an active hash part of the struct\n    * @param self Struct storage container pointing to itself\n    * @param _hash Hash to archive in the struct\n    */\n    function archive(HashMappping storage self, bytes32 _hash) public {\n        // Ensure that the hash is active\n        assert(self.hashActive[_hash] == true);\n        // 'Remove' _hash from the valid hashes\n        self.hashActive[_hash] = false;\n        // Add the hash to the archive\n        self.hashArchive[_hash] = true;\n        // Reduce the size of the number of active hashes\n        self.count--;\n\n        // Check if the first hash in the active list is in an archived state\n        if (self.hashArchive[self.itHashMap[self.firstIdx]] == true) {\n            self.firstIdx++;\n        }\n\n        // Repeat one more time to allowing for 'catch up' of firstIdx;\n        // Check if the first hash in the active list is still active or has it already been archived\n        if (self.hashArchive[self.itHashMap[self.firstIdx]] == true) {\n            self.firstIdx++;\n        }\n    }\n\n    /**\n    * @dev Verifies if the hash provided is a currently active hash and part of the mapping\n    * @param self Struct storage container pointing to itself\n    * @param _hash Hash to verify\n    * @return Indicates if the hash is active (and part of the mapping)\n    */\n    function isActive(HashMappping storage self, bytes32 _hash) public constant returns (bool) {\n        return self.hashActive[_hash];\n    }\n\n    /**\n    * @dev Verifies if the hash provided is an archived hash and part of the mapping\n    * @param self Struct storage container pointing to itself\n    * @param _hash Hash to verify\n    * @return Indicates if the hash is archived (and part of the mapping)\n    */\n    function isArchived(HashMappping storage self, bytes32 _hash) public constant returns (bool) {\n        return self.hashArchive[_hash];\n    }\n\n    /**\n    * @dev Verifies if the hash provided is either an active or archived hash and part of the mapping\n    * @param self Struct storage container pointing to itself\n    * @param _hash Hash to verify\n    * @return Indicates if the hash is either active or archived (part of the mapping)\n    */\n    function isValid(HashMappping storage self, bytes32 _hash) public constant returns (bool) {\n        return (self.hashActive[_hash] || self.hashArchive[_hash]);\n    }\n\n    /**\n    * @dev Retrieve the specified (_idx) hash from the struct\n    * @param self Struct storage container pointing to itself\n    * @param _idx Index of the hash to retrieve\n    * @return Hash specified by the _idx value (returns 0x0 if _idx is an invalid index)\n    */\n    function get(HashMappping storage self, uint _idx) public constant returns (bytes32) {\n        return self.itHashMap[_idx];\n    }\n}",
  "sourcePath": "/Users/Martin/Dapp/01HIC/46-HIC-2017-01-31/contracts/Lib.sol",
  "compiler": {
    "name": "solc",
    "version": "0.4.18+commit.9cf6e910.Emscripten.clang"
  },
  "schemaVersion": "1.0.1",
  "updatedAt": "2018-01-30T23:40:31.907Z"
}