{
  "contractName": "Policy",
  "abi": [
    {
      "constant": true,
      "inputs": [],
      "name": "MIN_BOND_PRINCIPAL_CU",
      "outputs": [
        {
          "name": "",
          "type": "uint256"
        }
      ],
      "payable": false,
      "stateMutability": "view",
      "type": "function"
    },
    {
      "constant": true,
      "inputs": [],
      "name": "MIN_YIELD_PPB",
      "outputs": [
        {
          "name": "",
          "type": "uint256"
        }
      ],
      "payable": false,
      "stateMutability": "view",
      "type": "function"
    },
    {
      "constant": true,
      "inputs": [],
      "name": "POOL_NAME",
      "outputs": [
        {
          "name": "",
          "type": "string"
        }
      ],
      "payable": false,
      "stateMutability": "view",
      "type": "function"
    },
    {
      "constant": true,
      "inputs": [],
      "name": "DURATION_BOND_LOCK_NEXT_STATE_SEC",
      "outputs": [
        {
          "name": "",
          "type": "uint256"
        }
      ],
      "payable": false,
      "stateMutability": "view",
      "type": "function"
    },
    {
      "constant": true,
      "inputs": [],
      "name": "MIN_DURATION_POLICY_PAUSED_DAY",
      "outputs": [
        {
          "name": "",
          "type": "uint256"
        }
      ],
      "payable": false,
      "stateMutability": "view",
      "type": "function"
    },
    {
      "constant": false,
      "inputs": [
        {
          "name": "_adjustorHash",
          "type": "bytes32"
        },
        {
          "name": "_policyHash",
          "type": "bytes32"
        },
        {
          "name": "_documentHash",
          "type": "bytes32"
        },
        {
          "name": "_riskPoints",
          "type": "uint256"
        }
      ],
      "name": "updatePolicy",
      "outputs": [],
      "payable": false,
      "stateMutability": "nonpayable",
      "type": "function"
    },
    {
      "constant": true,
      "inputs": [],
      "name": "MAX_DURATION_POLICY_PAUSED_DAY",
      "outputs": [
        {
          "name": "",
          "type": "uint256"
        }
      ],
      "payable": false,
      "stateMutability": "view",
      "type": "function"
    },
    {
      "constant": true,
      "inputs": [],
      "name": "POOL_DAILY_PROCESSING_OFFSET_SEC",
      "outputs": [
        {
          "name": "",
          "type": "uint256"
        }
      ],
      "payable": false,
      "stateMutability": "view",
      "type": "function"
    },
    {
      "constant": true,
      "inputs": [],
      "name": "MAX_DURATION_POLICY_LAPSED_DAY",
      "outputs": [
        {
          "name": "",
          "type": "uint256"
        }
      ],
      "payable": false,
      "stateMutability": "view",
      "type": "function"
    },
    {
      "constant": true,
      "inputs": [],
      "name": "MAX_YIELD_PPB",
      "outputs": [
        {
          "name": "",
          "type": "uint256"
        }
      ],
      "payable": false,
      "stateMutability": "view",
      "type": "function"
    },
    {
      "constant": true,
      "inputs": [],
      "name": "YAC_INTERVAL_DURATION_SEC",
      "outputs": [
        {
          "name": "",
          "type": "uint256"
        }
      ],
      "payable": false,
      "stateMutability": "view",
      "type": "function"
    },
    {
      "constant": false,
      "inputs": [
        {
          "name": "_trustAdr",
          "type": "address"
        },
        {
          "name": "_poolAdr",
          "type": "address"
        },
        {
          "name": "_bondAdr",
          "type": "address"
        },
        {
          "name": "_bankAdr",
          "type": "address"
        },
        {
          "name": "_policyAdr",
          "type": "address"
        },
        {
          "name": "_settlementAdr",
          "type": "address"
        },
        {
          "name": "_adjustorAdr",
          "type": "address"
        },
        {
          "name": "_timerAdr",
          "type": "address"
        }
      ],
      "name": "setContractAdr",
      "outputs": [],
      "payable": false,
      "stateMutability": "nonpayable",
      "type": "function"
    },
    {
      "constant": false,
      "inputs": [
        {
          "name": "_premiumPerRiskPoint",
          "type": "uint256"
        },
        {
          "name": "_currentPoolDay",
          "type": "uint256"
        }
      ],
      "name": "setPremiumPerRiskPoint",
      "outputs": [],
      "payable": false,
      "stateMutability": "nonpayable",
      "type": "function"
    },
    {
      "constant": true,
      "inputs": [],
      "name": "getBankAdr",
      "outputs": [
        {
          "name": "",
          "type": "address"
        }
      ],
      "payable": false,
      "stateMutability": "view",
      "type": "function"
    },
    {
      "constant": true,
      "inputs": [
        {
          "name": "",
          "type": "bytes32"
        }
      ],
      "name": "dataStorage",
      "outputs": [
        {
          "name": "idx",
          "type": "uint256"
        },
        {
          "name": "owner",
          "type": "address"
        },
        {
          "name": "paymentAccountHash",
          "type": "bytes32"
        },
        {
          "name": "documentHash",
          "type": "bytes32"
        },
        {
          "name": "riskPoints",
          "type": "uint256"
        },
        {
          "name": "premiumCredited_Cu",
          "type": "uint256"
        },
        {
          "name": "premiumCharged_Cu_Ppt",
          "type": "uint256"
        },
        {
          "name": "state",
          "type": "uint8"
        },
        {
          "name": "lastReconciliationDay",
          "type": "uint256"
        },
        {
          "name": "nextReconciliationDay",
          "type": "uint256"
        }
      ],
      "payable": false,
      "stateMutability": "view",
      "type": "function"
    },
    {
      "constant": true,
      "inputs": [],
      "name": "MAX_DURATION_POLICY_RECONCILIATION_DAYS",
      "outputs": [
        {
          "name": "",
          "type": "uint256"
        }
      ],
      "payable": false,
      "stateMutability": "view",
      "type": "function"
    },
    {
      "constant": false,
      "inputs": [
        {
          "name": "_adjustorHash",
          "type": "bytes32"
        },
        {
          "name": "_owner",
          "type": "address"
        },
        {
          "name": "_documentHash",
          "type": "bytes32"
        },
        {
          "name": "_riskPoints",
          "type": "uint256"
        }
      ],
      "name": "createPolicy",
      "outputs": [],
      "payable": false,
      "stateMutability": "nonpayable",
      "type": "function"
    },
    {
      "constant": true,
      "inputs": [],
      "name": "FUNDING_ACCOUNT_PAYMENT_HASH",
      "outputs": [
        {
          "name": "",
          "type": "bytes32"
        }
      ],
      "payable": false,
      "stateMutability": "view",
      "type": "function"
    },
    {
      "constant": true,
      "inputs": [],
      "name": "hashMap",
      "outputs": [
        {
          "name": "firstIdx",
          "type": "uint256"
        },
        {
          "name": "nextIdx",
          "type": "uint256"
        },
        {
          "name": "count",
          "type": "uint256"
        }
      ],
      "payable": false,
      "stateMutability": "view",
      "type": "function"
    },
    {
      "constant": true,
      "inputs": [
        {
          "name": "_hash",
          "type": "bytes32"
        }
      ],
      "name": "isActive",
      "outputs": [
        {
          "name": "",
          "type": "bool"
        }
      ],
      "payable": false,
      "stateMutability": "view",
      "type": "function"
    },
    {
      "constant": true,
      "inputs": [],
      "name": "MAX_POLICY_CREDIT_CU",
      "outputs": [
        {
          "name": "",
          "type": "uint256"
        }
      ],
      "payable": false,
      "stateMutability": "view",
      "type": "function"
    },
    {
      "constant": true,
      "inputs": [],
      "name": "getPolicyAdr",
      "outputs": [
        {
          "name": "",
          "type": "address"
        }
      ],
      "payable": false,
      "stateMutability": "view",
      "type": "function"
    },
    {
      "constant": true,
      "inputs": [],
      "name": "POOL_OPERATOR_FEE_PPT",
      "outputs": [
        {
          "name": "",
          "type": "uint256"
        }
      ],
      "payable": false,
      "stateMutability": "view",
      "type": "function"
    },
    {
      "constant": true,
      "inputs": [
        {
          "name": "_hash",
          "type": "bytes32"
        }
      ],
      "name": "isValid",
      "outputs": [
        {
          "name": "",
          "type": "bool"
        }
      ],
      "payable": false,
      "stateMutability": "view",
      "type": "function"
    },
    {
      "constant": true,
      "inputs": [],
      "name": "BOND_ACCOUNT_PAYMENT_HASH",
      "outputs": [
        {
          "name": "",
          "type": "bytes32"
        }
      ],
      "payable": false,
      "stateMutability": "view",
      "type": "function"
    },
    {
      "constant": true,
      "inputs": [],
      "name": "TRUST_FEE_PPT",
      "outputs": [
        {
          "name": "",
          "type": "uint256"
        }
      ],
      "payable": false,
      "stateMutability": "view",
      "type": "function"
    },
    {
      "constant": true,
      "inputs": [],
      "name": "getSettlementAdr",
      "outputs": [
        {
          "name": "",
          "type": "address"
        }
      ],
      "payable": false,
      "stateMutability": "view",
      "type": "function"
    },
    {
      "constant": true,
      "inputs": [],
      "name": "totalIssuedPolicyRiskPoints",
      "outputs": [
        {
          "name": "",
          "type": "uint256"
        }
      ],
      "payable": false,
      "stateMutability": "view",
      "type": "function"
    },
    {
      "constant": true,
      "inputs": [],
      "name": "PREMIUM_ACCOUNT_PAYMENT_HASH",
      "outputs": [
        {
          "name": "",
          "type": "bytes32"
        }
      ],
      "payable": false,
      "stateMutability": "view",
      "type": "function"
    },
    {
      "constant": false,
      "inputs": [
        {
          "name": "_paymentAccountHash",
          "type": "bytes32"
        },
        {
          "name": "_paymentSubject",
          "type": "bytes32"
        },
        {
          "name": "_creditAmount_Cu",
          "type": "uint256"
        }
      ],
      "name": "processAccountCredit",
      "outputs": [
        {
          "name": "success",
          "type": "bool"
        },
        {
          "name": "info",
          "type": "bytes32"
        },
        {
          "name": "policyHash",
          "type": "bytes32"
        }
      ],
      "payable": false,
      "stateMutability": "nonpayable",
      "type": "function"
    },
    {
      "constant": true,
      "inputs": [],
      "name": "getAdjustorAdr",
      "outputs": [
        {
          "name": "",
          "type": "address"
        }
      ],
      "payable": false,
      "stateMutability": "view",
      "type": "function"
    },
    {
      "constant": true,
      "inputs": [],
      "name": "TRUST_ACCOUNT_PAYMENT_HASH",
      "outputs": [
        {
          "name": "",
          "type": "bytes32"
        }
      ],
      "payable": false,
      "stateMutability": "view",
      "type": "function"
    },
    {
      "constant": true,
      "inputs": [
        {
          "name": "",
          "type": "uint256"
        },
        {
          "name": "",
          "type": "uint256"
        }
      ],
      "name": "premiumPerRiskPoint_Cu_Ppm",
      "outputs": [
        {
          "name": "",
          "type": "uint256"
        }
      ],
      "payable": false,
      "stateMutability": "view",
      "type": "function"
    },
    {
      "constant": true,
      "inputs": [],
      "name": "getTimerAdr",
      "outputs": [
        {
          "name": "",
          "type": "address"
        }
      ],
      "payable": false,
      "stateMutability": "view",
      "type": "function"
    },
    {
      "constant": true,
      "inputs": [],
      "name": "POOL_DAYLIGHT_SAVING_ADJUSTMENT_SEC",
      "outputs": [
        {
          "name": "",
          "type": "uint256"
        }
      ],
      "payable": false,
      "stateMutability": "view",
      "type": "function"
    },
    {
      "constant": false,
      "inputs": [
        {
          "name": "_policyHash",
          "type": "bytes32"
        }
      ],
      "name": "suspendPolicy",
      "outputs": [],
      "payable": false,
      "stateMutability": "nonpayable",
      "type": "function"
    },
    {
      "constant": true,
      "inputs": [
        {
          "name": "_idx",
          "type": "uint256"
        }
      ],
      "name": "get",
      "outputs": [
        {
          "name": "",
          "type": "bytes32"
        }
      ],
      "payable": false,
      "stateMutability": "view",
      "type": "function"
    },
    {
      "constant": true,
      "inputs": [],
      "name": "OPERATOR_ACCOUNT_PAYMENT_HASH",
      "outputs": [
        {
          "name": "",
          "type": "bytes32"
        }
      ],
      "payable": false,
      "stateMutability": "view",
      "type": "function"
    },
    {
      "constant": true,
      "inputs": [],
      "name": "MIN_POLICY_CREDIT_CU",
      "outputs": [
        {
          "name": "",
          "type": "uint256"
        }
      ],
      "payable": false,
      "stateMutability": "view",
      "type": "function"
    },
    {
      "constant": true,
      "inputs": [],
      "name": "WC_POOL_TARGET_TIME_SEC",
      "outputs": [
        {
          "name": "",
          "type": "uint256"
        }
      ],
      "payable": false,
      "stateMutability": "view",
      "type": "function"
    },
    {
      "constant": true,
      "inputs": [],
      "name": "SETTLEMENT_ACCOUNT_PAYMENT_HASH",
      "outputs": [
        {
          "name": "",
          "type": "bytes32"
        }
      ],
      "payable": false,
      "stateMutability": "view",
      "type": "function"
    },
    {
      "constant": true,
      "inputs": [],
      "name": "BOND_REQUIRED_SECURITY_REFERENCE_PPT",
      "outputs": [
        {
          "name": "",
          "type": "uint256"
        }
      ],
      "payable": false,
      "stateMutability": "view",
      "type": "function"
    },
    {
      "constant": true,
      "inputs": [],
      "name": "getContractAdr",
      "outputs": [
        {
          "name": "trustContractAdr",
          "type": "address"
        },
        {
          "name": "poolContractAdr",
          "type": "address"
        },
        {
          "name": "bondContractAdr",
          "type": "address"
        },
        {
          "name": "bankContractAdr",
          "type": "address"
        },
        {
          "name": "policyContractAdr",
          "type": "address"
        },
        {
          "name": "settlementContractAdr",
          "type": "address"
        },
        {
          "name": "adjustorContractAdr",
          "type": "address"
        },
        {
          "name": "timerContractAdr",
          "type": "address"
        }
      ],
      "payable": false,
      "stateMutability": "view",
      "type": "function"
    },
    {
      "constant": false,
      "inputs": [
        {
          "name": "_policyHash",
          "type": "bytes32"
        }
      ],
      "name": "unsuspendPolicy",
      "outputs": [],
      "payable": false,
      "stateMutability": "nonpayable",
      "type": "function"
    },
    {
      "constant": true,
      "inputs": [],
      "name": "POLICY_RECONCILIATION_SAFETY_MARGIN",
      "outputs": [
        {
          "name": "",
          "type": "uint256"
        }
      ],
      "payable": false,
      "stateMutability": "view",
      "type": "function"
    },
    {
      "constant": true,
      "inputs": [],
      "name": "getTrustAdr",
      "outputs": [
        {
          "name": "",
          "type": "address"
        }
      ],
      "payable": false,
      "stateMutability": "view",
      "type": "function"
    },
    {
      "constant": true,
      "inputs": [
        {
          "name": "_hash",
          "type": "bytes32"
        }
      ],
      "name": "isArchived",
      "outputs": [
        {
          "name": "",
          "type": "bool"
        }
      ],
      "payable": false,
      "stateMutability": "view",
      "type": "function"
    },
    {
      "constant": true,
      "inputs": [],
      "name": "getBondAdr",
      "outputs": [
        {
          "name": "",
          "type": "address"
        }
      ],
      "payable": false,
      "stateMutability": "view",
      "type": "function"
    },
    {
      "constant": true,
      "inputs": [],
      "name": "YAC_PER_INTERVAL_PPB",
      "outputs": [
        {
          "name": "",
          "type": "uint256"
        }
      ],
      "payable": false,
      "stateMutability": "view",
      "type": "function"
    },
    {
      "constant": true,
      "inputs": [],
      "name": "MAX_BOND_PRINCIPAL_CU",
      "outputs": [
        {
          "name": "",
          "type": "uint256"
        }
      ],
      "payable": false,
      "stateMutability": "view",
      "type": "function"
    },
    {
      "constant": false,
      "inputs": [
        {
          "name": "_subject",
          "type": "uint8"
        },
        {
          "name": "_message",
          "type": "bytes32"
        },
        {
          "name": "_scheduledDateTime",
          "type": "uint256"
        }
      ],
      "name": "ping",
      "outputs": [
        {
          "name": "",
          "type": "uint256"
        }
      ],
      "payable": false,
      "stateMutability": "nonpayable",
      "type": "function"
    },
    {
      "constant": true,
      "inputs": [],
      "name": "POOL_TIME_ZONE_OFFSET",
      "outputs": [
        {
          "name": "",
          "type": "int256"
        }
      ],
      "payable": false,
      "stateMutability": "view",
      "type": "function"
    },
    {
      "constant": true,
      "inputs": [],
      "name": "DURATION_POLICY_POST_LAPSED_DAY",
      "outputs": [
        {
          "name": "",
          "type": "uint256"
        }
      ],
      "payable": false,
      "stateMutability": "view",
      "type": "function"
    },
    {
      "constant": true,
      "inputs": [],
      "name": "DURATION_TO_BOND_MATURITY_SEC",
      "outputs": [
        {
          "name": "",
          "type": "uint256"
        }
      ],
      "payable": false,
      "stateMutability": "view",
      "type": "function"
    },
    {
      "constant": true,
      "inputs": [],
      "name": "ADJUSTOR_ACCOUNT_PAYMENT_HASH",
      "outputs": [
        {
          "name": "",
          "type": "bytes32"
        }
      ],
      "payable": false,
      "stateMutability": "view",
      "type": "function"
    },
    {
      "constant": true,
      "inputs": [],
      "name": "DURATION_WC_EXPENSE_HISTORY_DAYS",
      "outputs": [
        {
          "name": "",
          "type": "uint256"
        }
      ],
      "payable": false,
      "stateMutability": "view",
      "type": "function"
    },
    {
      "constant": true,
      "inputs": [],
      "name": "currentPoolDay",
      "outputs": [
        {
          "name": "",
          "type": "uint256"
        }
      ],
      "payable": false,
      "stateMutability": "view",
      "type": "function"
    },
    {
      "constant": false,
      "inputs": [
        {
          "name": "_policyHash",
          "type": "bytes32"
        }
      ],
      "name": "retirePolicy",
      "outputs": [],
      "payable": false,
      "stateMutability": "nonpayable",
      "type": "function"
    },
    {
      "constant": true,
      "inputs": [],
      "name": "YAC_EXPENSE_THRESHOLD_PPT",
      "outputs": [
        {
          "name": "",
          "type": "uint256"
        }
      ],
      "payable": false,
      "stateMutability": "view",
      "type": "function"
    },
    {
      "constant": true,
      "inputs": [],
      "name": "getPoolAdr",
      "outputs": [
        {
          "name": "",
          "type": "address"
        }
      ],
      "payable": false,
      "stateMutability": "view",
      "type": "function"
    },
    {
      "inputs": [
        {
          "name": "_trustAdr",
          "type": "address"
        }
      ],
      "payable": false,
      "stateMutability": "nonpayable",
      "type": "constructor"
    },
    {
      "anonymous": false,
      "inputs": [
        {
          "indexed": true,
          "name": "policyHash",
          "type": "bytes32"
        },
        {
          "indexed": true,
          "name": "owner",
          "type": "address"
        },
        {
          "indexed": true,
          "name": "info",
          "type": "bytes32"
        },
        {
          "indexed": false,
          "name": "timestamp",
          "type": "uint256"
        },
        {
          "indexed": false,
          "name": "state",
          "type": "uint256"
        }
      ],
      "name": "LogPolicy",
      "type": "event"
    }
  ],
  "bytecode": "0x60606040526060604051908101604090815260018083526020830152600090820152600881518160030155602082015181600401556040820151816005015550506000600e556000600f55341561005557600080fd5b60405160208061275d833981016040528080519150819050600160a060020a038116151561008257600080fd5b60008054600160a060020a03909216600160a060020a0319909216919091179055506126aa806100b36000396000f3006060604052600436106102af5763ffffffff60e060020a60003504166283f8bd81146102b4578063079a6f4e146102d95780630c131757146102ec5780630c432f2d1461037657806313f915dc1461038957806323bcd0061461039c578063284f90b1146103bd5780632b76d8e6146103d05780632c1b96c9146103e3578063358327cb146103f65780633ff8ba9f146104095780634414693c1461041c5780634583beb7146104655780634aa797471461047e5780634af88313146104ad5780634cdedfe214610534578063513919c61461054757806351b87d5f1461056f578063584b6410146105825780635c36901c146105b95780635e1f9f7b146102d9578063648596e9146105e35780636775d09b146105f65780636a938567146106095780636da57da11461061f5780636e2bdb951461063257806375c3357b14610645578063797a2932146106585780637be4af941461066b5780637e29cca71461067e57806383a46bd7146106c057806384ba11ad146106d35780638c561f7a146106e65780638d9791a9146106ff5780638e244ef21461040957806393754ed4146107125780639507d39a146107285780639557cfa01461073e57806395e0b293146102b457806399e93aac146107515780639c7b2b9b1461073e578063a2e2d5c814610764578063aa08eb2414610777578063aafebcb4146107df578063abf290b5146107f5578063ad910d8514610808578063b6b942e81461081b578063ba06ae4614610831578063ba684e0914610844578063c99b168c14610857578063cc1588e91461086a578063d3046cec14610889578063d4dcd43714610389578063de3e0c0e14610751578063dfc6e2841461073e578063e72964ba1461089c578063ec955831146108af578063f230748f146108c2578063f756e9f814610534578063f83e94a6146108d8575b600080fd5b34156102bf57600080fd5b6102c76108eb565b60405190815260200160405180910390f35b34156102e457600080fd5b6102c76108f1565b34156102f757600080fd5b6102ff6108f8565b60405160208082528190810183818151815260200191508051906020019080838360005b8381101561033b578082015183820152602001610323565b50505050905090810190601f1680156103685780820380516001836020036101000a031916815260200191505b509250505060405180910390f35b341561038157600080fd5b6102c761092f565b341561039457600080fd5b6102c7610936565b34156103a757600080fd5b6103bb60043560243560443560643561093b565b005b34156103c857600080fd5b6102c7610c2a565b34156103db57600080fd5b6102c7610c2f565b34156103ee57600080fd5b6102c7610c34565b341561040157600080fd5b6102c7610c39565b341561041457600080fd5b6102c7610c41565b341561042757600080fd5b6103bb600160a060020a0360043581169060243581169060443581169060643581169060843581169060a43581169060c43581169060e43516610c47565b341561047057600080fd5b6103bb600435602435610da5565b341561048957600080fd5b610491610e91565b604051600160a060020a03909116815260200160405180910390f35b34156104b857600080fd5b6104c3600435610ea0565b6040518a8152600160a060020a038a16602082015260408101899052606081018890526080810187905260a0810186905260c0810185905260e0810184600481111561050b57fe5b60ff1681526020018381526020018281526020019a505050505050505050505060405180910390f35b341561053f57600080fd5b6102c7610eff565b341561055257600080fd5b6103bb600435600160a060020a0360243516604435606435610f04565b341561057a57600080fd5b6102c7611262565b341561058d57600080fd5b610595611286565b60405180848152602001838152602001828152602001935050505060405180910390f35b34156105c457600080fd5b6105cf600435611292565b604051901515815260200160405180910390f35b34156105ee57600080fd5b610491611312565b341561060157600080fd5b6102c7611321565b341561061457600080fd5b6105cf600435611326565b341561062a57600080fd5b6102c7611386565b341561063d57600080fd5b6102c76113aa565b341561065057600080fd5b6104916113af565b341561066357600080fd5b6102c76113be565b341561067657600080fd5b6102c76113c4565b341561068957600080fd5b61069a6004356024356044356113e8565b604051921515835260208301919091526040808301919091526060909101905180910390f35b34156106cb57600080fd5b6104916119e8565b34156106de57600080fd5b6102c76119f7565b34156106f157600080fd5b6102c7600435602435611a1b565b341561070a57600080fd5b610491611a38565b341561071d57600080fd5b6103bb600435611a47565b341561073357600080fd5b6102c7600435611b2b565b341561074957600080fd5b6102c7611b8b565b341561075c57600080fd5b6102c7611baf565b341561076f57600080fd5b6102c7611bb6565b341561078257600080fd5b61078a611bbb565b604051600160a060020a039889168152968816602088015294871660408088019190915293871660608701529186166080860152851660a0850152841660c0840152921660e082015261010001905180910390f35b34156107ea57600080fd5b6103bb600435611bfc565b341561080057600080fd5b6102c7611d3e565b341561081357600080fd5b610491611d43565b341561082657600080fd5b6105cf600435611d52565b341561083c57600080fd5b610491611db2565b341561084f57600080fd5b6102c7611dc1565b341561086257600080fd5b6102c7611dc9565b341561087557600080fd5b6102c760ff60043516602435604435611dd0565b341561089457600080fd5b6102c7611e16565b34156108a757600080fd5b6102c7611e1d565b34156108ba57600080fd5b6102c7611e22565b34156108cd57600080fd5b6103bb600435611e28565b34156108e357600080fd5b6104916120c0565b61271081565b624c4b4081565b60408051908101604052600c81527f48494320506f6f6c202320310000000000000000000000000000000000000000602082015281565b6202a30081565b600181565b600084826109476119e8565b600160a060020a031663d338997583338460006040516020015260405160e060020a63ffffffff86160281526004810193909352600160a060020a0390911660248301526044820152606401602060405180830381600087803b15156109ac57600080fd5b6102c65a03f115156109bd57600080fd5b5050506040518051151560011490506109d557600080fd5b8415156109e157600080fd5b600084116109ee57600080fd5b6109f786611292565b1515600114610a0557600080fd5b600160008781526010602052604090206007015460ff166004811115610a2757fe5b1415610b56576001610a38876120cf565b6004811115610a4357fe5b14610a4d57600080fd5b600086815260106020526040902060048082018054600e805489019190910390556003830188905586905560018201546007909201548692600160a060020a031691899160008051602061265f83398151915291429160ff1690811115610ab057fe5b60405191825260208201526040908101905180910390a4600086815260106020526040902060018101546007909101548691600160a060020a031690889060008051602061265f83398151915290429060ff166004811115610b0e57fe5b60405191825260208201526040908101905180910390a4610b2e866121ca565b925060008311610b3d57600080fd5b6000868152601060205260409020600901839055610c21565b600086815260106020526040902060038101869055600480820186905560018201546007909201548692600160a060020a031691899160008051602061265f83398151915291429160ff1690811115610bab57fe5b60405191825260208201526040908101905180910390a4600086815260106020526040902060018101546007909101548691600160a060020a031690889060008051602061265f83398151915290429060ff166004811115610c0957fe5b60405191825260208201526040908101905180910390a45b50505050505050565b600281565b600081565b600581565b631dcd650081565b610e1081565b60005433600160a060020a03908116911614610c6257600080fd5b600160a060020a0388161515610c7757600080fd5b600160a060020a0387161515610c8c57600080fd5b600160a060020a0386161515610ca157600080fd5b600160a060020a0385161515610cb657600080fd5b600160a060020a0384161515610ccb57600080fd5b600160a060020a0383161515610ce057600080fd5b600160a060020a0382161515610cf557600080fd5b600160a060020a0381161515610d0a57600080fd5b6000805473ffffffffffffffffffffffffffffffffffffffff19908116600160a060020a039a8b1617909155600180548216988a1698909817909755600280548816968916969096179095556003805487169488169490941790935560048054861692871692909217909155600580548516918616919091179055600680548416918516919091179055600780549092169216919091179055565b60015460009033600160a060020a03908116911614610dc357600080fd5b600f829055600082815260116020908152604080832083805290915290205415610de957fe5b50600f8054600090815260116020818152604080842084805282528084208790559354600019810184528282528484208480528252848420549084529181528383206001845290529190205560025b60648111610e8c57600f546000818152601160208181526040808420600180865281845282862054600019978801875294845282862096880186529583528185205487865292529092209101905501610e38565b505050565b600354600160a060020a031690565b60106020526000908152604090208054600182015460028301546003840154600485015460058601546006870154600788015460088901546009909901549798600160a060020a03909716979596949593949293919260ff909116918a565b606481565b600083803b8015610f1457600080fd5b8684610f1e6119e8565b600160a060020a031663d338997583338460006040516020015260405160e060020a63ffffffff86160281526004810193909352600160a060020a0390911660248301526044820152606401602060405180830381600087803b1515610f8357600080fd5b6102c65a03f11515610f9457600080fd5b505050604051805115156001149050610fac57600080fd5b600160a060020a0388161515610fc157600080fd5b861515610fcd57600080fd5b60008611610fda57600080fd5b600c544290308a60405193845260208401929092526c01000000000000000000000000600160a060020a0391821681026040808601919091529290911602605483015260689091019051809103902094506101406040519081016040908152600c548252600160a060020a038a166020808401919091526000828401819052606084018b9052608084018a905260a0840181905260c0840181905260e08401819052600f54610100850181905260020161012085015288815260109091522081518155602082015160018201805473ffffffffffffffffffffffffffffffffffffffff1916600160a060020a039290921691909117905560408201516002820155606082015160038201556080820151816004015560a0820151816005015560c0820151816006015560e082015160078201805460ff1916600183600481111561112057fe5b021790555061010082015181600801556101208201516009909101555073__Lib___________________________________63ec72608960088760405160e060020a63ffffffff85160281526004810192909252602482015260440160006040518083038186803b151561119357600080fd5b6102c65a03f415156111a457600080fd5b5050506000858152601060205260409020600701548690600160a060020a038a1690879060008051602061265f83398151915290429060ff1660048111156111e857fe5b60405191825260208201526040908101905180910390a46000858152601060205260409020600701548790600160a060020a038a1690879060008051602061265f83398151915290429060ff16600481111561124057fe5b60405191825260208201526040908101905180910390a4505050505050505050565b7f523009c7e41b6b3159012103fccff17371fb03621a0873eaff2f3d87cdb5fe3681565b600b54600c54600d5483565b600073__Lib___________________________________63199ef7be600884846040516020015260405160e060020a63ffffffff85160281526004810192909252602482015260440160206040518083038186803b15156112f257600080fd5b6102c65a03f4151561130357600080fd5b50505060405180519392505050565b600454600160a060020a031690565b603281565b600073__Lib___________________________________63ecb48425600884846040516020015260405160e060020a63ffffffff85160281526004810192909252602482015260440160206040518083038186803b15156112f257600080fd5b7f23e2f15b66feab75c1e6aee1f874ef01b346636c780216c8ed4d327be495ac8481565b600a81565b600554600160a060020a031690565b600e5481565b7f9701a3e1840f59635c219124a5166d8eb2dfd539967f3c80e19f75e48f7df1fc81565b600080548190819033600160a060020a0390811691161480611418575060015433600160a060020a039081169116145b80611431575060025433600160a060020a039081169116145b8061144a575060035433600160a060020a039081169116145b80611463575060045433600160a060020a039081169116145b8061147c575060055433600160a060020a039081169116145b80611495575060065433600160a060020a039081169116145b806114ae575060075433600160a060020a039081169116145b15156114b957600080fd5b600085815260106020526040902060010154600160a060020a0316156114e057508361150e565b50600091507f5061796d656e745375626a6563740000000000000000000000000000000000009050816119df565b600460008281526010602052604090206007015460ff16600481111561153057fe5b14156115645750600091507f506f6c69637953746174650000000000000000000000000000000000000000009050816119df565b61156c6120c0565b600160a060020a03166395e0b2936000604051602001526040518163ffffffff1660e060020a028152600401602060405180830381600087803b15156115b157600080fd5b6102c65a03f115156115c257600080fd5b5050506040518051905084108061163f57506115dc6120c0565b600160a060020a0316635e1f9f7b6000604051602001526040518163ffffffff1660e060020a028152600401602060405180830381600087803b151561162157600080fd5b6102c65a03f1151561163257600080fd5b5050506040518051905084115b156116725750600091507f437265646974416d6f756e7400000000000000000000000000000000000000009050816119df565b6000818152601060205260408120600501541180156116a257506000818152601060205260409020600201548614155b156116d55750600091507f5061796d656e744163636f756e744861736800000000000000000000000000009050816119df565b600160008281526010602052604090206007015460ff1660048111156116f757fe5b14806117225750600360008281526010602052604090206007015460ff16600481111561172057fe5b145b80611764575060008181526010602052604081206007015460ff16600481111561174857fe5b1480156117645750600081815260106020526040812060050154115b156117ba576000818152601060205260409020600581018054860190556007015460019060ff16600481111561179657fe5b14156117b5576117a5816121ca565b156117b5576117b3816120cf565b505b6119d6565b60008181526010602052604081206007015460ff1660048111156117da57fe5b1480156117f65750600081815260106020526040902060050154155b156118c857600081815260106020526040902060028101879055600501805485019055611822816121ca565b60008281526010602052604081206009018290559011156117b557600f546000828152601060205260408120600881019290925560078201805460ff191660019081178255600480850154600e8054909101905593015490549192600160a060020a0390911691849160008051602061265f83398151915291429160ff909116908111156118ac57fe5b60405191825260208201526040908101905180910390a46119d6565b600260008281526010602052604090206007015460ff1660048111156118ea57fe5b14156119d657600081815260106020526040902060050154151561191d5760008181526010602052604090206002018690555b600081815260106020526040902060050180548501905561193d816121ca565b6000828152601060205260409020600901819055600f546001019011156119c357600f80546000838152601060205260408120600192830160098201559254600884015560078301805460ff1916600317908190559190920154600160a060020a031690839060008051602061265f83398151915290429060ff1660048111156118ac57fe5b6000818152601060205260408120600901555b60019250600091505b93509350939050565b600654600160a060020a031690565b7fd2034e198b9eadf8e1cbe0748ea895a9b61c191942d760814bbf69b40433b55c81565b601160209081526000928352604080842090915290825290205481565b600754600160a060020a031690565b60008181526010602052604090206001015433600160a060020a03908116911614611a7157600080fd5b600160008281526010602052604090206007015460ff166004811115611a9357fe5b14611a9d57600080fd5b611aa6816120cf565b50600081815260106020526040812060078101805460ff19168155600480830154600e8054919091039055600f5460020160098401556001909201549054600160a060020a0390911691849160008051602061265f83398151915291429160ff1690811115611b1157fe5b60405191825260208201526040908101905180910390a450565b600073__Lib___________________________________63085db8ab600884846040516020015260405160e060020a63ffffffff85160281526004810192909252602482015260440160206040518083038186803b15156112f257600080fd5b7f5dfb70a859b83dcaee084a4338268940533335bc927474a5b53609d68502509481565b6276a70081565b60c881565b600054600154600254600354600454600554600654600754600160a060020a0397881698968816979586169694861695938416949284169391821692911690565b60008181526010602052604081206001015433600160a060020a03908116911614611c2657600080fd5b60008281526010602052604081206007015460ff166004811115611c4657fe5b14611c5057600080fd5b600f546000838152601060205260409020600801546001011115611c7357600080fd5b600f546000838152601060205260409020600801546002011015611c9657600080fd5b611c9f826121ca565b9050801515611cad57600080fd5b600f54600083815260106020526040812060088101929092556009820183905560078201805460ff191660019081178255600480850154600e8054909101905593015490549192600160a060020a0390911691859160008051602061265f83398151915291429160ff90911690811115611d2357fe5b60405191825260208201526040908101905180910390a45050565b600381565b600054600160a060020a031690565b600073__Lib___________________________________6342614936600884846040516020015260405160e060020a63ffffffff85160281526004810192909252602482015260440160206040518083038186803b15156112f257600080fd5b600254600160a060020a031690565b6301312d0081565b6298968081565b60075460009033600160a060020a03908116911614611dee57600080fd5b6000821015611df957fe5b60ff84161515611e0c57611e0c83612271565b5060009392505050565b61b6cf1981565b600e81565b600f5481565b600030600160a060020a031633600160a060020a0316141515611e6f5760008281526010602052604090206001015433600160a060020a03908116911614611e6f57600080fd5b600160008381526010602052604090206007015460ff166004811115611e9157fe5b1480611ebc5750600260008381526010602052604090206007015460ff166004811115611eba57fe5b145b1515611ec757600080fd5b600160008381526010602052604090206007015460ff166004811115611ee957fe5b1415611f1657611ef8826120cf565b50600082815260106020526040902060040154600e80549190910390555b50600f54600082815260106020526040812060088101929092556009820181905560078201805460ff1916600417905560068201546005909201546103e89092049091039081111561200f57611f6a610e91565b60008381526010602052604080822060020154600160a060020a03939093169263870b1cbe9291869086908290518663ffffffff1660e060020a02815260040180866006811115611fb757fe5b60ff1681526020810195909552506040808501939093526060840191909152608083015260a090910191506000905180830381600087803b1515611ffa57600080fd5b6102c65a03f1151561200b57600080fd5b5050505b73__Lib___________________________________63fa8ae1cb60088460405160e060020a63ffffffff85160281526004810192909252602482015260440160006040518083038186803b151561206557600080fd5b6102c65a03f4151561207657600080fd5b50505060008281526010602052604081206001810154600790910154600160a060020a0390911690849060008051602061265f83398151915290429060ff166004811115611d2357fe5b600154600160a060020a031690565b600080600160008481526010602052604090206007015460ff1660048111156120f457fe5b146120fe57600080fd5b50600082815260106020526040812060080154600f54039081111561216257600f54600090815260116020908152604080832084845282528083205486845260109092529091206004810154600690910180546103e8929093029190910490910190555b600f54600084815260106020526040902060080155612180836121ca565b600084815260106020526040902060090181905515156121bf57600f5460008481526010602052604090206005909101600990910155600291506121c4565b600191505b50919050565b600081815260106020908152604080832060068101546005820154600490920154600f54865260118552838620868052909452918420546103e89182029290920392919091020482828211156122235760009350612269565b81151561223757600f546001019350612269565b816003028381151561224557fe5b04905060648110156122605780600f54600101019350612269565b6064600f540193505b505050919050565b8060008082151561228257600b5492505b600c548310801561229457506103e882105b156125cc5760019091019073__Lib___________________________________63085db8ab60088560006040516020015260405160e060020a63ffffffff85160281526004810192909252602482015260440160206040518083038186803b15156122fe57600080fd5b6102c65a03f4151561230f57600080fd5b5050506040518051600081815260106020526040902060090154600f54919350141590506125c157600a9190910190600160008281526010602052604090206007015460ff16600481111561236057fe5b1415612401576002612371826120cf565b600481111561237c57fe5b14156123fc57600081815260106020526040812060078101805460ff19166002178155600480830154600e80549190910390556001909201549054600160a060020a0390911691849160008051602061265f83398151915291429160ff16908111156123e457fe5b60405191825260208201526040908101905180910390a45b6125c1565b60008181526010602052604081206007015460ff16600481111561242157fe5b141561248a57600081815260106020526040812060078101805460ff191660021790819055600f54600883018190556005016009830155600190910154600160a060020a031690839060008051602061265f83398151915290429060ff1660048111156123e457fe5b600360008281526010602052604090206007015460ff1660048111156124ac57fe5b141561253e57600081815260106020526040902060078101805460ff191660011790556004810154600e80549091019055600f546008909101556124ef816121ca565b6000828152601060205260408120600981019290925560018201546007909201549091600160a060020a031690839060008051602061265f83398151915290429060ff1660048111156123e457fe5b600260008281526010602052604090206007015460ff16600481111561256057fe5b14156125c15730600160a060020a031663f230748f8260405160e060020a63ffffffff84160281526004810191909152602401600060405180830381600087803b15156125ac57600080fd5b6102c65a03f115156125bd57600080fd5b5050505b600190920191612282565b600c548314612658576125dd611a38565b600160a060020a0316632944ac2e61012c42016000863060405160e060020a63ffffffff8716028152600481019490945260ff90921660248401526044830152600160a060020a03166064820152608401600060405180830381600087803b151561264757600080fd5b6102c65a03f11515610c2157600080fd5b505050505600b181d60ccd47dbe55cd52a34459329bab14f292a5dda976cffcf67f39ed88ba5a165627a7a723058203353eb18c1c7f4d1d79e199dfc0d2e9dcb6c11469bc58aa7140821dcd4374e250029",
  "source": "/**\n * @description Policy contract\n * @copyright (c) 2017 Honest Insurance\n * @author Martin Stellnberger\n * @license GPL-3.0\n */\n\npragma solidity ^0.4.18;\n\nimport \"./Lib.sol\";\nimport \"./Pool.sol\";\nimport \"./SetupI.sol\";\nimport \"./Bank.sol\";\nimport \"./HashMapI.sol\";\nimport \"./Adjustor.sol\";\nimport \"./IntAccessI.sol\";\nimport \"./NotificationI.sol\";\nimport \"./Timer.sol\";\n\n\n/** @title Policy contract insurance consumers.*/\ncontract Policy is SetupI, IntAccessI, NotificationI, HashMapI {\n    \n    struct PolicyData {\n        // Index of this Policy\n        uint idx;\n        // Access key / password of the Bond owner\n        address owner;\n        // Bank payment hash as provided by the bank\n        bytes32 paymentAccountHash;\n\n         // Policy document hash\n        bytes32 documentHash;\n        // Risk points associated with this policy\n        uint riskPoints;\n\n        // Total premium payments made by the policy owner\n        uint premiumCredited_Cu;\n        // Total premium this policy has been changed by the pool\n        uint premiumCharged_Cu_Ppt;\n\n        // Different states a Bond can be in \n        Lib.PolicyState state;\n\n        // The days to perform the reconciliation process\n        uint lastReconciliationDay;\n        uint nextReconciliationDay;\n    }\n\n    // The number of total policy risk points / sum of all policies in Issued state\n    uint public totalIssuedPolicyRiskPoints = 0;\n    // Save the current pool day\n    uint public currentPoolDay = 0;\n\n    // Storage mapping for all the bond data Hash of the Bond points to its data\n    mapping(bytes32 => PolicyData) public dataStorage;\n\n    // Mapping to store the risk premiums charged by the pool per risk point (current day => # cummulated days back => premium)\n    mapping(uint => mapping(uint => uint)) public premiumPerRiskPoint_Cu_Ppm;\n\n    // Events broadcasted by the Bond / Log events\n    event LogPolicy(bytes32 indexed policyHash, address indexed owner, bytes32 indexed info, uint timestamp, uint state);\n\n    /**@dev Constructor of the  Bond.\n     * @param _trustAdr The address of the Trust.\n     */\n    function Policy(address _trustAdr) IntAccessI(_trustAdr) public {\n    }\n\n    /**\n    * @dev Modifier verifies if the Adjustor hash and signing private key and the adjustor's policy risk point limit are sufficient\n    */\n    modifier isAdjustorPolicyPermissioned(bytes32 _adjustorHash, uint _riskPoints) {\n        require(Adjustor(getAdjustorAdr()).isAdjustorPolicyPermissioned(_adjustorHash, msg.sender, _riskPoints) == true);\n        _;\n    }\n\n    /**@dev Creates an new policy\n     * @param _adjustorHash The hash of the adjustor creating this policy\n     * @param _owner The address of the policy owner. This must be an externally owned account and not a contract address!\n     * @param _documentHash The hash of the policy document\n     * @param _riskPoints The risk points associated with this policy\n     */\n    function createPolicy(bytes32 _adjustorHash, address _owner, bytes32 _documentHash, uint _riskPoints) \n        public\n        isNotContractAdr(_owner)\n        isAdjustorPolicyPermissioned(_adjustorHash, _riskPoints)\n    {\n        // Ensure valid parameter have been provided\n        require(_owner != 0x0);\n        require(_documentHash != 0x0);\n        require(_riskPoints > 0);\n\n        // Create a new Policy hash by using random input parameters (Timestamp, nextIdx of the PolicyHashMapping)\n        bytes32 policyHash = keccak256(now, hashMap.nextIdx, address(this), _owner);\n\n        // Add the policy data to the data storage\n        dataStorage[policyHash] = PolicyData({\n            // Specify the hashMap.nextIdx as the index for this new policy\n            idx: hashMap.nextIdx,\n            // Save the address of the policy's owner\n            owner: _owner,\n            // Set the policy document hash\n            documentHash: _documentHash,\n            // Set the policy risk points\n            riskPoints: _riskPoints,\n            // Set the policy's preliminary maturity date (this will be overwritten later)\n            premiumCredited_Cu: 0,\n            premiumCharged_Cu_Ppt: 0,\n            // Set the policys status to created\n            state: Lib.PolicyState.Paused,\n            // Set the remaining policy variables to 0 or 0x0\n            paymentAccountHash: bytes32(0x0),\n            // Set the last reconciliation day to today\n            lastReconciliationDay: currentPoolDay,\n            // Set the next reconciliation day to max duration in the future\n            nextReconciliationDay: currentPoolDay + MAX_DURATION_POLICY_PAUSED_DAY\n        });\n\n        // Add the policy to the Hash map\n        hashMap.add(policyHash);\n\n        // Add log entry to document creation of the policy (document policy hash and risk points)\n        LogPolicy(policyHash, _owner, bytes32(_riskPoints), now, uint(dataStorage[policyHash].state));\n        LogPolicy(policyHash, _owner, bytes32(_documentHash), now, uint(dataStorage[policyHash].state));\n    }\n\n    /**@dev Updates an existing policy\n     * @param _adjustorHash The hash of the adjustor creating this policy\n     * @param _policyHash The hash of the policy to update\n     * @param _documentHash The new hash of the policy document\n     * @param _riskPoints The new risk points associated with this policy\n     */\n    function updatePolicy(bytes32 _adjustorHash, bytes32 _policyHash, bytes32 _documentHash, uint _riskPoints) \n        public\n        isAdjustorPolicyPermissioned(_adjustorHash, _riskPoints)\n    {\n        // Ensure valid parameter have been provided\n        require(_documentHash != 0x0);\n        require(_riskPoints > 0);\n        // Ensure the policy is a valid and active policy\n        require(isActive(_policyHash) == true);\n\n        if (dataStorage[_policyHash].state == Lib.PolicyState.Issued) {\n            // Reconcile the policy and ensure the policy is still in an Issued state\n            require(reconcilePolicy(_policyHash) == Lib.PolicyState.Issued);\n\n            // Adjust the total issued policy risk points\n            totalIssuedPolicyRiskPoints = totalIssuedPolicyRiskPoints + _riskPoints - dataStorage[_policyHash].riskPoints;\n\n            // Update the policy data\n            dataStorage[_policyHash].documentHash = _documentHash;\n            dataStorage[_policyHash].riskPoints = _riskPoints;\n\n            // Add log entry to document creation of the policy (document policy hash and risk points)\n            LogPolicy(_policyHash, dataStorage[_policyHash].owner, bytes32(_riskPoints), now, uint(dataStorage[_policyHash].state));\n            LogPolicy(_policyHash, dataStorage[_policyHash].owner, bytes32(_documentHash), now, uint(dataStorage[_policyHash].state));\n\n            // Calculate the next reconciliation day\n            uint nextDay = calculateNextReconciliationDay(_policyHash);\n            // If the next reconciliation day is 0 (insufficient funds revert the entire policy update)\n            require(nextDay > 0);\n            // Save the next reconciliation day\n            dataStorage[_policyHash].nextReconciliationDay = nextDay;\n        } else {\n            // Update the policy data\n            dataStorage[_policyHash].documentHash = _documentHash;\n            dataStorage[_policyHash].riskPoints = _riskPoints;\n\n            // Add log entry to document creation of the policy (document policy hash and risk points)\n            LogPolicy(_policyHash, dataStorage[_policyHash].owner, bytes32(_riskPoints), now, uint(dataStorage[_policyHash].state));\n            LogPolicy(_policyHash, dataStorage[_policyHash].owner, bytes32(_documentHash), now, uint(dataStorage[_policyHash].state));\n        }\n    }\n\n    /**@dev Function is called by the Insurance Pool, when a policy holder made a deposit and it\n            has been credited to the insurance pool's Premium Account.\n     * @param _paymentAccountHash The payment account hash of the sender used for this bank payment.\n     * @param _paymentSubject Payment particular/code/reference to be specified for the bank transaction\n     * @param _creditAmount_Cu The amount that has been credited to the Premium Account.\n     * @return info describing an unsuccessfull funding otherwise empty (0x0)\n     */\n    function processAccountCredit(bytes32 _paymentAccountHash, bytes32 _paymentSubject, uint _creditAmount_Cu)\n        public\n        isIntAuth\n        returns (bool success, bytes32 info, bytes32 policyHash)\n    {\n         // Verify if the paymentSubject provided matches the any of the Policy hashes\n        if (dataStorage[_paymentSubject].owner != 0x0)\n            policyHash = _paymentSubject;\n        else \n            return (false, bytes32(\"PaymentSubject\"), 0x0);\n\n        // Verify if the policy is not in a Retired state\n        if (dataStorage[policyHash].state == Lib.PolicyState.Retired)\n            return (false, bytes32(\"PolicyState\"), 0x0);\n        \n        // Verify the amount credited is between min and max amount\n        if ((_creditAmount_Cu < Pool(getPoolAdr()).MIN_POLICY_CREDIT_CU()) ||\n            (_creditAmount_Cu > Pool(getPoolAdr()).MAX_POLICY_CREDIT_CU()))\n            return (false, bytes32(\"CreditAmount\"), 0x0);\n\n        // Verify the payment account hash is valid in case previous premium payments have alredy been made\n        if ((dataStorage[policyHash].premiumCredited_Cu > 0) && \n            (dataStorage[policyHash].paymentAccountHash != _paymentAccountHash))\n            return (false, bytes32(\"PaymentAccountHash\"), 0x0);\n        \n        // If the policy is in an issued state or policy is in a PostedLapsed state or policy is in a paused state but has previously already received payments\n        if ((dataStorage[policyHash].state == Lib.PolicyState.Issued) || \n            (dataStorage[policyHash].state == Lib.PolicyState.PostLapsed) || \n            ((dataStorage[policyHash].state == Lib.PolicyState.Paused) && (dataStorage[policyHash].premiumCredited_Cu > 0)))\n        {\n            // Credit the amount to the policy\n            dataStorage[policyHash].premiumCredited_Cu += _creditAmount_Cu;\n\n            // If policy is in an issued state potentially perform a reconciliation\n            if (dataStorage[policyHash].state == Lib.PolicyState.Issued) {\n                // Check if it is safe to perform a policy reconciliation - one that would not require a change of the policy's state\n                if (calculateNextReconciliationDay(policyHash) != 0) {\n                    reconcilePolicy(policyHash);\n                }\n            }\n\n        // If policy is in a paused state and this is the first premium payment being received\n        } else if ((dataStorage[policyHash].state == Lib.PolicyState.Paused) && \n            (dataStorage[policyHash].premiumCredited_Cu == 0))\n        {\n            // Set the payment Account hash\n            dataStorage[policyHash].paymentAccountHash = _paymentAccountHash;\n            // Credit the amount to the policy\n            dataStorage[policyHash].premiumCredited_Cu += _creditAmount_Cu;\n\n            // Calculate the next reconciliation day\n            dataStorage[policyHash].nextReconciliationDay = calculateNextReconciliationDay(policyHash);\n            // Verify if sufficient funds have been credited and a future reconciliation day has been specified\n            if (dataStorage[policyHash].nextReconciliationDay > 0) {\n                // Set the last reconciliation day to today (starting point of the policy)\n                dataStorage[policyHash].lastReconciliationDay = currentPoolDay;\n                // Change the policies status to Issued\n                dataStorage[policyHash].state = Lib.PolicyState.Issued;\n                // Add the policy risk points\n                totalIssuedPolicyRiskPoints += dataStorage[policyHash].riskPoints;\n                // Add log entry\n                LogPolicy(policyHash, dataStorage[policyHash].owner, 0x0, now, uint(dataStorage[policyHash].state));\n            }\n\n        // If policy is in a lapsed state\n        } else if (dataStorage[policyHash].state == Lib.PolicyState.Lapsed) {\n            // In case this is the first premium payment being received\n            if (dataStorage[policyHash].premiumCredited_Cu == 0) {\n                // Set the payment Account hash\n                dataStorage[policyHash].paymentAccountHash = _paymentAccountHash;\n            }\n\n            // Credit the amount to the policy\n            dataStorage[policyHash].premiumCredited_Cu += _creditAmount_Cu;\n\n            // Calculate the next reconciliation day\n            dataStorage[policyHash].nextReconciliationDay = calculateNextReconciliationDay(policyHash);\n            // Verify if sufficient funds have been credited (next reconciliation day is sufficiently in the future)\n            if (dataStorage[policyHash].nextReconciliationDay > currentPoolDay + DURATION_POLICY_POST_LAPSED_DAY) {\n                // Set the next reconciliation day to the time when the policy should change to issued state\n                dataStorage[policyHash].nextReconciliationDay = currentPoolDay + DURATION_POLICY_POST_LAPSED_DAY;\n                // Set the last reconciliation day to today (starting point of the policy)\n                dataStorage[policyHash].lastReconciliationDay = currentPoolDay;\n                // Change the policies status to Issued\n                dataStorage[policyHash].state = Lib.PolicyState.PostLapsed;\n                // Add log entry\n                LogPolicy(policyHash, dataStorage[policyHash].owner, 0x0, now, uint(dataStorage[policyHash].state));\n            }\n            // In case insufficient funds have been credited to allow state to change set next reconciliation day to 0\n            else dataStorage[policyHash].nextReconciliationDay = 0;\n        }\n        // Return a positive result\n        return (true, 0x0, policyHash);\n    }\n\n    /**@dev Function is called by the owner of a policy to temporarily suspend the policy\n     * @param _policyHash The hash of the policy that should be suspended\n     */\n    function suspendPolicy(bytes32 _policyHash) public {\n        // Ensure the sender of the transaction is the owner of the policy\n        require(dataStorage[_policyHash].owner == msg.sender);\n\n        // Ensure the policy is in an Issued state\n        require(dataStorage[_policyHash].state == Lib.PolicyState.Issued);\n\n        // Reconcile this policy (Note: The 'new' state of the policy returned as part of this reconciliation\n        // is ignored (even if 'should' be changed to Lapsed because of insufficient funds)\n        reconcilePolicy(_policyHash);\n\n        // Change the policy state to Paused\n        dataStorage[_policyHash].state = Lib.PolicyState.Paused;\n\n        // Remove the policy risk points\n        totalIssuedPolicyRiskPoints -= dataStorage[_policyHash].riskPoints;\n\n        // Set the next reconciliation day to the max duration this policy is allowed to remain in paused state\n        dataStorage[_policyHash].nextReconciliationDay = currentPoolDay + MAX_DURATION_POLICY_PAUSED_DAY;\n\n        // Add log entry\n        LogPolicy(_policyHash, dataStorage[_policyHash].owner, 0x0, now, uint(dataStorage[_policyHash].state));\n    }\n\n    /**@dev Function is called by the owner of a policy to re-issue a previously suspend the policy\n     * @param _policyHash The hash of the policy that should be re-issued\n     */\n    function unsuspendPolicy(bytes32 _policyHash) public {\n        // Ensure the sender of the transaction is the owner of the policy\n        require(dataStorage[_policyHash].owner == msg.sender);\n\n        // Ensure the policy is in a Paused state\n        require(dataStorage[_policyHash].state == Lib.PolicyState.Paused);\n\n        // Ensure the policy is in between the minimum and maximum policy paused duration\n        require(dataStorage[_policyHash].lastReconciliationDay + MIN_DURATION_POLICY_PAUSED_DAY <= currentPoolDay);\n        require(dataStorage[_policyHash].lastReconciliationDay + MAX_DURATION_POLICY_PAUSED_DAY >= currentPoolDay);\n\n        // Get the next reconciliation day\n        uint nextReconciliationDay = calculateNextReconciliationDay(_policyHash);\n\n        // Ensure sufficient funds are available to pay for todays premium by check if the provided next day is in the future and not 0\n        require(nextReconciliationDay != 0);\n\n        // Set the last and next reconciliation day\n        dataStorage[_policyHash].lastReconciliationDay = currentPoolDay;\n        dataStorage[_policyHash].nextReconciliationDay = nextReconciliationDay;\n\n        // Change the policy state to Issued\n        dataStorage[_policyHash].state = Lib.PolicyState.Issued;\n\n        // Add the policy risk points\n        totalIssuedPolicyRiskPoints += dataStorage[_policyHash].riskPoints;\n\n        // Add log entry\n        LogPolicy(_policyHash, dataStorage[_policyHash].owner, 0x0, now, uint(dataStorage[_policyHash].state));\n    }\n\n    /**@dev This function can only be called by the owner of the policy or the policy contract itself (this)\n     * @param _policyHash The hash of the policy that should be retired\n     */\n    function retirePolicy(bytes32 _policyHash) public {\n        // If the caller of this function is not the policy contract itself\n        if (msg.sender != address(this)) {\n            // Ensure the caller of the transaction is the owner of the policy\n            require(dataStorage[_policyHash].owner == msg.sender);\n        }\n        // Ensure the policy is either in an Issued or Lapsed state\n        require((dataStorage[_policyHash].state == Lib.PolicyState.Issued) ||\n            (dataStorage[_policyHash].state == Lib.PolicyState.Lapsed));\n\n        // If Policy is in an issued state reconcile the policy a last time and remove the risk points\n        if (dataStorage[_policyHash].state == Lib.PolicyState.Issued) {\n            // Reconcile the policy\n            reconcilePolicy(_policyHash);\n            // Remove the policy risk points\n            totalIssuedPolicyRiskPoints -= dataStorage[_policyHash].riskPoints;\n        }\n        // Set the last and next reconciliation day\n        dataStorage[_policyHash].lastReconciliationDay = currentPoolDay;\n        dataStorage[_policyHash].nextReconciliationDay = 0;\n        // Change the policy state to Retired\n        dataStorage[_policyHash].state = Lib.PolicyState.Retired;\n        // Refund the oustanding policy owner's account balance from the Premium Holding account by creating a payment advice\n        \n        uint refundAmount = dataStorage[_policyHash].premiumCredited_Cu - (dataStorage[_policyHash].premiumCharged_Cu_Ppt / 10**3);\n        // If the refund amount is greater than 0 then create a bank payment advice\n        if (refundAmount > 0) {\n            // Create payment instruction for the bank\n            Bank(getBankAdr()).createPaymentAdvice(Lib.PaymentAdviceType.PremiumRefund, \n                dataStorage[_policyHash].paymentAccountHash, _policyHash, refundAmount, _policyHash);\n        }\n\n        // Archive the policy\n        hashMap.archive(_policyHash);\n        // Add log entry\n        LogPolicy(_policyHash, dataStorage[_policyHash].owner, 0x0, now, uint(dataStorage[_policyHash].state));\n    }\n\n    function processPolicy(bytes32 _message) private {\n        uint currentPolicyIdx = uint(_message);\n        // Extract the next policy id to be processed from _message\n        uint gasProcessIterations = 0;\n        // temp variable for the policy hash\n        bytes32 pHash;\n\n        // If a value of 0 has been provided as the first policy idx to process set the first policy to process to the\n        // first active policy according to the hash map.\n        if (currentPolicyIdx == 0)\n            currentPolicyIdx = hashMap.firstIdx;\n\n        for (; (currentPolicyIdx < hashMap.nextIdx) && (gasProcessIterations < 1000); currentPolicyIdx++) {\n            // Increase the gas counter by 1\n            gasProcessIterations++;\n            // Get the hash of the current policy\n            pHash = hashMap.get(currentPolicyIdx);\n\n            // Verify if the policy needs to be processed by comparing today's with the policy's nextReconciliationDay\n            if (currentPoolDay ==  dataStorage[pHash].nextReconciliationDay) {\n                // Increase the gas counter by 10 since this is an gas expensive policy to process \n                gasProcessIterations += 10;\n                // ******************************************************************\n                // POLICY STATE: Issued   ==>   New State: Issued|Lapsed\n                // ******************************************************************\n                if (dataStorage[pHash].state == Lib.PolicyState.Issued) {\n                    // Reconcile the policy and verify if the new state returned is Lapsed (due to insufficient funds)\n                    if (reconcilePolicy(pHash) == Lib.PolicyState.Lapsed) {\n                        // Change the policy state to Lapsed\n                        dataStorage[pHash].state = Lib.PolicyState.Lapsed;\n                        // Remove the policy risk points\n                        totalIssuedPolicyRiskPoints -= dataStorage[pHash].riskPoints;\n                        // Create a log entry to document the change of the policy's state\n                        LogPolicy(pHash, dataStorage[pHash].owner, 0x0, now, uint(dataStorage[pHash].state));\n                    }\n\n                // ******************************************************************\n                // POLICY STATE: Paused   ==>   New State: Lapsed\n                // ******************************************************************\n                } else if (dataStorage[pHash].state == Lib.PolicyState.Paused) {\n                    // Change the policy state to Lapsed\n                    dataStorage[pHash].state = Lib.PolicyState.Lapsed;\n                    // Set the last and next reconciliation day\n                    dataStorage[pHash].lastReconciliationDay = currentPoolDay;\n                    dataStorage[pHash].nextReconciliationDay = currentPoolDay + MAX_DURATION_POLICY_LAPSED_DAY;\n                    // Create a log entry to document the change of the policy's state\n                    LogPolicy(pHash, dataStorage[pHash].owner, 0x0, now, uint(dataStorage[pHash].state));      \n                \n                // ******************************************************************\n                // POLICY STATE: PostLapsed   ==>   New State: Issued\n                // ******************************************************************\n                } else if (dataStorage[pHash].state == Lib.PolicyState.PostLapsed) {\n                    // Change the policy state to Issued\n                    dataStorage[pHash].state = Lib.PolicyState.Issued;\n                    // Add the policy risk points\n                    totalIssuedPolicyRiskPoints += dataStorage[pHash].riskPoints;\n                    // Set the last and next reconciliation day\n                    dataStorage[pHash].lastReconciliationDay = currentPoolDay;\n                    dataStorage[pHash].nextReconciliationDay = calculateNextReconciliationDay(pHash);\n                    // Create a log entry to document the change of the policy's state\n                    LogPolicy(pHash, dataStorage[pHash].owner, 0x0, now, uint(dataStorage[pHash].state));\n\n                // ******************************************************************\n                // POLICY STATE: Lapsed   ==>   New State: Retired\n                // ******************************************************************\n                } else if (dataStorage[pHash].state == Lib.PolicyState.Lapsed) {\n                    // Perform an external call of this function so that the function 'retirePolicy' can verify the \n                    // caller as the policy contract itself\n                    this.retirePolicy(pHash);\n                }\n            }\n        }\n\n        // Book a new timer notification to process the next batch of policies in 5 min from now if required\n        if (currentPolicyIdx != hashMap.nextIdx) {\n            Timer(getTimerAdr()).addNotification(now + 300, uint8(NotificationSubject.PolicyProcessing),\n                bytes32(currentPolicyIdx), address(this));\n        }\n    }\n\n    /**@dev Function performs the process of reconciling a policy (Note: The policy is not being 'charged' for today's premium (only historic days))\n     * @param _policyHash The hash of the policy that should be reconciled\n     * @return newState The policy's new state after the reconciliation has been completed\n     */\n    function reconcilePolicy(bytes32 _policyHash) private returns (Lib.PolicyState newState) {\n        // Ensure the policy is in an issued state\n        require(dataStorage[_policyHash].state == Lib.PolicyState.Issued);\n        // Calculate the number of days since last reconciliation (Note: Today must not be reconciled - only past days!!!)\n        uint totalDays = currentPoolDay - dataStorage[_policyHash].lastReconciliationDay;\n        // Only adjust the premiums charged if the total days to reconcile is greater than 0\n        if (totalDays > 0)\n            dataStorage[_policyHash].premiumCharged_Cu_Ppt += (dataStorage[_policyHash].riskPoints * premiumPerRiskPoint_Cu_Ppm[currentPoolDay][totalDays] / (10**3));\n        // Set the last reconciliation day to today\n        dataStorage[_policyHash].lastReconciliationDay = currentPoolDay;\n        // Calculate the ideal next reconciliation day in the future\n        dataStorage[_policyHash].nextReconciliationDay = calculateNextReconciliationDay(_policyHash);\n        // Verify if the nextReconciliationDay calculated is 0 (Policy's state may be changed to Lapsed)\n        if (dataStorage[_policyHash].nextReconciliationDay == 0) {\n            // Set the next reconciliation to the max duration the policy is allowed to remain in a lapsed state\n            dataStorage[_policyHash].nextReconciliationDay = currentPoolDay + MAX_DURATION_POLICY_LAPSED_DAY;\n            // Return the new state of Lapsed\n            return Lib.PolicyState.Lapsed;\n        }\n        return Lib.PolicyState.Issued;\n    }\n\n    /**@dev Function calculates the ideal day in the future to reconcile this policy again\n     * @param _policyHash The hash of the policy that should be considered\n     * @return nextRecDay Is 0 if insufficient funds are availalbe even for the current day otherwise the next pool day\n     */\n    function calculateNextReconciliationDay(bytes32 _policyHash)\n        private \n        constant \n        returns (uint nextRecDay)\n    {\n        // Calculate the remaining funds for this policy\n        uint funds_Cu_Ppt = (dataStorage[_policyHash].premiumCredited_Cu * (10**3)) - dataStorage[_policyHash].premiumCharged_Cu_Ppt;\n        // Calculate the premium charged for the current pool day for this policy \n        uint costPerDay_Cu_Ppt = (premiumPerRiskPoint_Cu_Ppm[currentPoolDay][0] * dataStorage[_policyHash].riskPoints) / (10**3);\n        // If the remaining funds for this policy are insufficient to cover today's premium return 0\n        if (costPerDay_Cu_Ppt > funds_Cu_Ppt)\n            return 0;\n        // If the costsPerDay are 0 return the next reconciliation day of tomorrow\n        if (costPerDay_Cu_Ppt == 0)\n            return currentPoolDay + 1;\n        // Calculate the ideal next reconciliation day with safety margin\n        uint futureDays = (funds_Cu_Ppt / (POLICY_RECONCILIATION_SAFETY_MARGIN * costPerDay_Cu_Ppt));\n        if (futureDays < 100) {\n            return currentPoolDay + 1 + futureDays;\n        } else { \n            return currentPoolDay + MAX_DURATION_POLICY_RECONCILIATION_DAYS;\n        }\n    }\n\n    /**@dev Sets the premium per risk point for all the policies for the specified day \n     * @param _premiumPerRiskPoint The premium amount a policy is chared for the current day per risk point\n     * @param _currentPoolDay The current day to store the risk premium for\n     */\n    function setPremiumPerRiskPoint(uint _premiumPerRiskPoint, uint _currentPoolDay)\n        public\n        isPoolAuth\n    {\n        // Save the new currentPoolDay\n        currentPoolDay = _currentPoolDay;\n        // Ensure that this function can only be called once for a particular day by the pool by checking if the current pool day's risk point premium is still 0\n        assert(premiumPerRiskPoint_Cu_Ppm[currentPoolDay][0] == 0);\n        // Save premium per risk point as calculated for today\n        premiumPerRiskPoint_Cu_Ppm[currentPoolDay][0] = _premiumPerRiskPoint;\n        // Save premium per risk point for 1 day (only yesterday)\n        premiumPerRiskPoint_Cu_Ppm[currentPoolDay][1] = premiumPerRiskPoint_Cu_Ppm[currentPoolDay - 1][0];\n        // Iterate and calculate the risk points for any number of days for reconciliation\n        for (uint i = 2; i<=MAX_DURATION_POLICY_RECONCILIATION_DAYS; i++) {\n            // Calculate the historic cummulated premiums per risk points over the past days (copy of yesterday's history + new premium for today)\n            premiumPerRiskPoint_Cu_Ppm[currentPoolDay][i] = premiumPerRiskPoint_Cu_Ppm[currentPoolDay - 1][i-1] + premiumPerRiskPoint_Cu_Ppm[currentPoolDay][1];\n        }\n    }\n    \n    /**@dev Executes on a ping notification initiated by the Timer\n     * @param _subject The subject of the ping notifiction\n     * @param _message The message of the ping notifiction\n     * @param _scheduledDateTime The time the notification was scheduled for\n     * @return The delta time in seconds to add to _dateTime to re-schedule the next ping; 0 for no re-scheduling.\n     */\n    function ping(uint8 _subject, bytes32 _message, uint _scheduledDateTime)\n        public\n        isTimerAuth\n        returns (uint)\n    {\n        // To avoid warning message of unused local variable of _scheduledDateTime perform a 'dummy' assertation\n        assert(_scheduledDateTime >= 0);\n        // Check if the notification subject is PolicyProcessing\n        if (_subject == uint8(NotificationSubject.PolicyProcessing)) {\n            processPolicy(_message);\n        }\n        return 0;\n    }\n\n    // *******************************\n    // Policy enums and structs\n    // *******************************\n\n    // Enum of the diffent Notification subjects of the pool\n    enum NotificationSubject {\n        /*0*/ PolicyProcessing\n    }\n}",
  "sourcePath": "/Users/Martin/Dapp/01HIC/46-HIC-2017-01-31/contracts/Policy.sol",
  "compiler": {
    "name": "solc",
    "version": "0.4.18+commit.9cf6e910.Emscripten.clang"
  },
  "schemaVersion": "1.0.1",
  "updatedAt": "2018-01-30T23:40:31.925Z"
}