{
  "contractName": "Pool",
  "abi": [
    {
      "constant": true,
      "inputs": [],
      "name": "MIN_BOND_PRINCIPAL_CU",
      "outputs": [
        {
          "name": "",
          "type": "uint256"
        }
      ],
      "payable": false,
      "stateMutability": "view",
      "type": "function"
    },
    {
      "constant": true,
      "inputs": [],
      "name": "MIN_YIELD_PPB",
      "outputs": [
        {
          "name": "",
          "type": "uint256"
        }
      ],
      "payable": false,
      "stateMutability": "view",
      "type": "function"
    },
    {
      "constant": true,
      "inputs": [],
      "name": "POOL_NAME",
      "outputs": [
        {
          "name": "",
          "type": "string"
        }
      ],
      "payable": false,
      "stateMutability": "view",
      "type": "function"
    },
    {
      "constant": true,
      "inputs": [],
      "name": "DURATION_BOND_LOCK_NEXT_STATE_SEC",
      "outputs": [
        {
          "name": "",
          "type": "uint256"
        }
      ],
      "payable": false,
      "stateMutability": "view",
      "type": "function"
    },
    {
      "constant": true,
      "inputs": [],
      "name": "MIN_DURATION_POLICY_PAUSED_DAY",
      "outputs": [
        {
          "name": "",
          "type": "uint256"
        }
      ],
      "payable": false,
      "stateMutability": "view",
      "type": "function"
    },
    {
      "constant": false,
      "inputs": [
        {
          "name": "_wcExpenses_Cu",
          "type": "uint256"
        }
      ],
      "name": "setWcExpenses",
      "outputs": [],
      "payable": false,
      "stateMutability": "nonpayable",
      "type": "function"
    },
    {
      "constant": true,
      "inputs": [],
      "name": "overwriteWcExpenses",
      "outputs": [
        {
          "name": "",
          "type": "bool"
        }
      ],
      "payable": false,
      "stateMutability": "view",
      "type": "function"
    },
    {
      "constant": false,
      "inputs": [
        {
          "name": "_accountType",
          "type": "uint8"
        },
        {
          "name": "_paymentAccountHash",
          "type": "bytes32"
        },
        {
          "name": "_paymentSubject",
          "type": "bytes32"
        },
        {
          "name": "_bankCreditAmount_Cu",
          "type": "uint256"
        }
      ],
      "name": "processAccountCredit",
      "outputs": [
        {
          "name": "success",
          "type": "bool"
        },
        {
          "name": "info",
          "type": "bytes32"
        },
        {
          "name": "internalReferenceHash",
          "type": "bytes32"
        }
      ],
      "payable": false,
      "stateMutability": "nonpayable",
      "type": "function"
    },
    {
      "constant": true,
      "inputs": [],
      "name": "MAX_DURATION_POLICY_PAUSED_DAY",
      "outputs": [
        {
          "name": "",
          "type": "uint256"
        }
      ],
      "payable": false,
      "stateMutability": "view",
      "type": "function"
    },
    {
      "constant": true,
      "inputs": [],
      "name": "POOL_DAILY_PROCESSING_OFFSET_SEC",
      "outputs": [
        {
          "name": "",
          "type": "uint256"
        }
      ],
      "payable": false,
      "stateMutability": "view",
      "type": "function"
    },
    {
      "constant": true,
      "inputs": [],
      "name": "MAX_DURATION_POLICY_LAPSED_DAY",
      "outputs": [
        {
          "name": "",
          "type": "uint256"
        }
      ],
      "payable": false,
      "stateMutability": "view",
      "type": "function"
    },
    {
      "constant": true,
      "inputs": [],
      "name": "MAX_YIELD_PPB",
      "outputs": [
        {
          "name": "",
          "type": "uint256"
        }
      ],
      "payable": false,
      "stateMutability": "view",
      "type": "function"
    },
    {
      "constant": false,
      "inputs": [
        {
          "name": "_isWinterTime",
          "type": "bool"
        }
      ],
      "name": "initEcosystem",
      "outputs": [],
      "payable": false,
      "stateMutability": "nonpayable",
      "type": "function"
    },
    {
      "constant": true,
      "inputs": [],
      "name": "YAC_INTERVAL_DURATION_SEC",
      "outputs": [
        {
          "name": "",
          "type": "uint256"
        }
      ],
      "payable": false,
      "stateMutability": "view",
      "type": "function"
    },
    {
      "constant": true,
      "inputs": [],
      "name": "WC_Bal_PA_Cu",
      "outputs": [
        {
          "name": "",
          "type": "uint256"
        }
      ],
      "payable": false,
      "stateMutability": "view",
      "type": "function"
    },
    {
      "constant": false,
      "inputs": [
        {
          "name": "_trustAdr",
          "type": "address"
        },
        {
          "name": "_poolAdr",
          "type": "address"
        },
        {
          "name": "_bondAdr",
          "type": "address"
        },
        {
          "name": "_bankAdr",
          "type": "address"
        },
        {
          "name": "_policyAdr",
          "type": "address"
        },
        {
          "name": "_settlementAdr",
          "type": "address"
        },
        {
          "name": "_adjustorAdr",
          "type": "address"
        },
        {
          "name": "_timerAdr",
          "type": "address"
        }
      ],
      "name": "setContractAdr",
      "outputs": [],
      "payable": false,
      "stateMutability": "nonpayable",
      "type": "function"
    },
    {
      "constant": true,
      "inputs": [],
      "name": "getBankAdr",
      "outputs": [
        {
          "name": "",
          "type": "address"
        }
      ],
      "payable": false,
      "stateMutability": "view",
      "type": "function"
    },
    {
      "constant": true,
      "inputs": [],
      "name": "MAX_DURATION_POLICY_RECONCILIATION_DAYS",
      "outputs": [
        {
          "name": "",
          "type": "uint256"
        }
      ],
      "payable": false,
      "stateMutability": "view",
      "type": "function"
    },
    {
      "constant": true,
      "inputs": [],
      "name": "FUNDING_ACCOUNT_PAYMENT_HASH",
      "outputs": [
        {
          "name": "",
          "type": "bytes32"
        }
      ],
      "payable": false,
      "stateMutability": "view",
      "type": "function"
    },
    {
      "constant": true,
      "inputs": [],
      "name": "MAX_POLICY_CREDIT_CU",
      "outputs": [
        {
          "name": "",
          "type": "uint256"
        }
      ],
      "payable": false,
      "stateMutability": "view",
      "type": "function"
    },
    {
      "constant": true,
      "inputs": [],
      "name": "WC_Exp_Cu",
      "outputs": [
        {
          "name": "",
          "type": "uint256"
        }
      ],
      "payable": false,
      "stateMutability": "view",
      "type": "function"
    },
    {
      "constant": true,
      "inputs": [],
      "name": "getPolicyAdr",
      "outputs": [
        {
          "name": "",
          "type": "address"
        }
      ],
      "payable": false,
      "stateMutability": "view",
      "type": "function"
    },
    {
      "constant": true,
      "inputs": [],
      "name": "POOL_OPERATOR_FEE_PPT",
      "outputs": [
        {
          "name": "",
          "type": "uint256"
        }
      ],
      "payable": false,
      "stateMutability": "view",
      "type": "function"
    },
    {
      "constant": true,
      "inputs": [],
      "name": "bondYieldAccelerationThreshold",
      "outputs": [
        {
          "name": "",
          "type": "uint256"
        }
      ],
      "payable": false,
      "stateMutability": "view",
      "type": "function"
    },
    {
      "constant": true,
      "inputs": [],
      "name": "BOND_ACCOUNT_PAYMENT_HASH",
      "outputs": [
        {
          "name": "",
          "type": "bytes32"
        }
      ],
      "payable": false,
      "stateMutability": "view",
      "type": "function"
    },
    {
      "constant": true,
      "inputs": [],
      "name": "TRUST_FEE_PPT",
      "outputs": [
        {
          "name": "",
          "type": "uint256"
        }
      ],
      "payable": false,
      "stateMutability": "view",
      "type": "function"
    },
    {
      "constant": true,
      "inputs": [],
      "name": "getSettlementAdr",
      "outputs": [
        {
          "name": "",
          "type": "address"
        }
      ],
      "payable": false,
      "stateMutability": "view",
      "type": "function"
    },
    {
      "constant": true,
      "inputs": [],
      "name": "PREMIUM_ACCOUNT_PAYMENT_HASH",
      "outputs": [
        {
          "name": "",
          "type": "bytes32"
        }
      ],
      "payable": false,
      "stateMutability": "view",
      "type": "function"
    },
    {
      "constant": false,
      "inputs": [
        {
          "name": "amount",
          "type": "uint256"
        },
        {
          "name": "addAmount",
          "type": "bool"
        }
      ],
      "name": "adjustWcLocked",
      "outputs": [],
      "payable": false,
      "stateMutability": "nonpayable",
      "type": "function"
    },
    {
      "constant": true,
      "inputs": [],
      "name": "bondYieldAccellerationScheduled",
      "outputs": [
        {
          "name": "",
          "type": "bool"
        }
      ],
      "payable": false,
      "stateMutability": "view",
      "type": "function"
    },
    {
      "constant": true,
      "inputs": [],
      "name": "getAdjustorAdr",
      "outputs": [
        {
          "name": "",
          "type": "address"
        }
      ],
      "payable": false,
      "stateMutability": "view",
      "type": "function"
    },
    {
      "constant": true,
      "inputs": [],
      "name": "TRUST_ACCOUNT_PAYMENT_HASH",
      "outputs": [
        {
          "name": "",
          "type": "bytes32"
        }
      ],
      "payable": false,
      "stateMutability": "view",
      "type": "function"
    },
    {
      "constant": true,
      "inputs": [],
      "name": "WC_Bond_Cu",
      "outputs": [
        {
          "name": "",
          "type": "uint256"
        }
      ],
      "payable": false,
      "stateMutability": "view",
      "type": "function"
    },
    {
      "constant": true,
      "inputs": [],
      "name": "getTimerAdr",
      "outputs": [
        {
          "name": "",
          "type": "address"
        }
      ],
      "payable": false,
      "stateMutability": "view",
      "type": "function"
    },
    {
      "constant": true,
      "inputs": [],
      "name": "POOL_DAYLIGHT_SAVING_ADJUSTMENT_SEC",
      "outputs": [
        {
          "name": "",
          "type": "uint256"
        }
      ],
      "payable": false,
      "stateMutability": "view",
      "type": "function"
    },
    {
      "constant": true,
      "inputs": [],
      "name": "OPERATOR_ACCOUNT_PAYMENT_HASH",
      "outputs": [
        {
          "name": "",
          "type": "bytes32"
        }
      ],
      "payable": false,
      "stateMutability": "view",
      "type": "function"
    },
    {
      "constant": true,
      "inputs": [],
      "name": "MIN_POLICY_CREDIT_CU",
      "outputs": [
        {
          "name": "",
          "type": "uint256"
        }
      ],
      "payable": false,
      "stateMutability": "view",
      "type": "function"
    },
    {
      "constant": true,
      "inputs": [],
      "name": "WC_POOL_TARGET_TIME_SEC",
      "outputs": [
        {
          "name": "",
          "type": "uint256"
        }
      ],
      "payable": false,
      "stateMutability": "view",
      "type": "function"
    },
    {
      "constant": true,
      "inputs": [],
      "name": "SETTLEMENT_ACCOUNT_PAYMENT_HASH",
      "outputs": [
        {
          "name": "",
          "type": "bytes32"
        }
      ],
      "payable": false,
      "stateMutability": "view",
      "type": "function"
    },
    {
      "constant": false,
      "inputs": [],
      "name": "adjustDaylightSaving",
      "outputs": [],
      "payable": false,
      "stateMutability": "nonpayable",
      "type": "function"
    },
    {
      "constant": true,
      "inputs": [],
      "name": "BOND_REQUIRED_SECURITY_REFERENCE_PPT",
      "outputs": [
        {
          "name": "",
          "type": "uint256"
        }
      ],
      "payable": false,
      "stateMutability": "view",
      "type": "function"
    },
    {
      "constant": true,
      "inputs": [],
      "name": "B_Yield_Ppb",
      "outputs": [
        {
          "name": "",
          "type": "uint256"
        }
      ],
      "payable": false,
      "stateMutability": "view",
      "type": "function"
    },
    {
      "constant": true,
      "inputs": [],
      "name": "WC_Bal_BA_Cu",
      "outputs": [
        {
          "name": "",
          "type": "uint256"
        }
      ],
      "payable": false,
      "stateMutability": "view",
      "type": "function"
    },
    {
      "constant": true,
      "inputs": [],
      "name": "getContractAdr",
      "outputs": [
        {
          "name": "trustContractAdr",
          "type": "address"
        },
        {
          "name": "poolContractAdr",
          "type": "address"
        },
        {
          "name": "bondContractAdr",
          "type": "address"
        },
        {
          "name": "bankContractAdr",
          "type": "address"
        },
        {
          "name": "policyContractAdr",
          "type": "address"
        },
        {
          "name": "settlementContractAdr",
          "type": "address"
        },
        {
          "name": "adjustorContractAdr",
          "type": "address"
        },
        {
          "name": "timerContractAdr",
          "type": "address"
        }
      ],
      "payable": false,
      "stateMutability": "view",
      "type": "function"
    },
    {
      "constant": true,
      "inputs": [],
      "name": "WC_Bal_FA_Cu",
      "outputs": [
        {
          "name": "",
          "type": "uint256"
        }
      ],
      "payable": false,
      "stateMutability": "view",
      "type": "function"
    },
    {
      "constant": true,
      "inputs": [],
      "name": "POLICY_RECONCILIATION_SAFETY_MARGIN",
      "outputs": [
        {
          "name": "",
          "type": "uint256"
        }
      ],
      "payable": false,
      "stateMutability": "view",
      "type": "function"
    },
    {
      "constant": true,
      "inputs": [],
      "name": "getTrustAdr",
      "outputs": [
        {
          "name": "",
          "type": "address"
        }
      ],
      "payable": false,
      "stateMutability": "view",
      "type": "function"
    },
    {
      "constant": true,
      "inputs": [],
      "name": "getBondAdr",
      "outputs": [
        {
          "name": "",
          "type": "address"
        }
      ],
      "payable": false,
      "stateMutability": "view",
      "type": "function"
    },
    {
      "constant": true,
      "inputs": [],
      "name": "YAC_PER_INTERVAL_PPB",
      "outputs": [
        {
          "name": "",
          "type": "uint256"
        }
      ],
      "payable": false,
      "stateMutability": "view",
      "type": "function"
    },
    {
      "constant": true,
      "inputs": [],
      "name": "WC_Locked_Cu",
      "outputs": [
        {
          "name": "",
          "type": "uint256"
        }
      ],
      "payable": false,
      "stateMutability": "view",
      "type": "function"
    },
    {
      "constant": true,
      "inputs": [],
      "name": "MAX_BOND_PRINCIPAL_CU",
      "outputs": [
        {
          "name": "",
          "type": "uint256"
        }
      ],
      "payable": false,
      "stateMutability": "view",
      "type": "function"
    },
    {
      "constant": true,
      "inputs": [],
      "name": "WC_Transit_Cu",
      "outputs": [
        {
          "name": "",
          "type": "uint256"
        }
      ],
      "payable": false,
      "stateMutability": "view",
      "type": "function"
    },
    {
      "constant": false,
      "inputs": [
        {
          "name": "_subject",
          "type": "uint8"
        },
        {
          "name": "_message",
          "type": "bytes32"
        },
        {
          "name": "_scheduledDateTime",
          "type": "uint256"
        }
      ],
      "name": "ping",
      "outputs": [
        {
          "name": "",
          "type": "uint256"
        }
      ],
      "payable": false,
      "stateMutability": "nonpayable",
      "type": "function"
    },
    {
      "constant": true,
      "inputs": [],
      "name": "isWinterTime",
      "outputs": [
        {
          "name": "",
          "type": "bool"
        }
      ],
      "payable": false,
      "stateMutability": "view",
      "type": "function"
    },
    {
      "constant": true,
      "inputs": [],
      "name": "POOL_TIME_ZONE_OFFSET",
      "outputs": [
        {
          "name": "",
          "type": "int256"
        }
      ],
      "payable": false,
      "stateMutability": "view",
      "type": "function"
    },
    {
      "constant": true,
      "inputs": [],
      "name": "DURATION_POLICY_POST_LAPSED_DAY",
      "outputs": [
        {
          "name": "",
          "type": "uint256"
        }
      ],
      "payable": false,
      "stateMutability": "view",
      "type": "function"
    },
    {
      "constant": false,
      "inputs": [
        {
          "name": "_bondPrincipal_Cu",
          "type": "uint256"
        },
        {
          "name": "_creditedBondAmount_Cu",
          "type": "uint256"
        }
      ],
      "name": "signBond",
      "outputs": [
        {
          "name": "bondYield_Ppb",
          "type": "uint256"
        }
      ],
      "payable": false,
      "stateMutability": "nonpayable",
      "type": "function"
    },
    {
      "constant": true,
      "inputs": [],
      "name": "daylightSavingScheduled",
      "outputs": [
        {
          "name": "",
          "type": "bool"
        }
      ],
      "payable": false,
      "stateMutability": "view",
      "type": "function"
    },
    {
      "constant": true,
      "inputs": [],
      "name": "DURATION_TO_BOND_MATURITY_SEC",
      "outputs": [
        {
          "name": "",
          "type": "uint256"
        }
      ],
      "payable": false,
      "stateMutability": "view",
      "type": "function"
    },
    {
      "constant": true,
      "inputs": [],
      "name": "ADJUSTOR_ACCOUNT_PAYMENT_HASH",
      "outputs": [
        {
          "name": "",
          "type": "bytes32"
        }
      ],
      "payable": false,
      "stateMutability": "view",
      "type": "function"
    },
    {
      "constant": true,
      "inputs": [],
      "name": "DURATION_WC_EXPENSE_HISTORY_DAYS",
      "outputs": [
        {
          "name": "",
          "type": "uint256"
        }
      ],
      "payable": false,
      "stateMutability": "view",
      "type": "function"
    },
    {
      "constant": true,
      "inputs": [],
      "name": "currentPoolDay",
      "outputs": [
        {
          "name": "",
          "type": "uint256"
        }
      ],
      "payable": false,
      "stateMutability": "view",
      "type": "function"
    },
    {
      "constant": true,
      "inputs": [],
      "name": "B_Gradient_Ppq",
      "outputs": [
        {
          "name": "",
          "type": "uint256"
        }
      ],
      "payable": false,
      "stateMutability": "view",
      "type": "function"
    },
    {
      "constant": false,
      "inputs": [
        {
          "name": "_finalBondPayment_Cu",
          "type": "uint256"
        },
        {
          "name": "_reduceWcTransit_Cu",
          "type": "uint256"
        }
      ],
      "name": "processMaturedBond",
      "outputs": [],
      "payable": false,
      "stateMutability": "nonpayable",
      "type": "function"
    },
    {
      "constant": true,
      "inputs": [],
      "name": "YAC_EXPENSE_THRESHOLD_PPT",
      "outputs": [
        {
          "name": "",
          "type": "uint256"
        }
      ],
      "payable": false,
      "stateMutability": "view",
      "type": "function"
    },
    {
      "constant": true,
      "inputs": [],
      "name": "getPoolAdr",
      "outputs": [
        {
          "name": "",
          "type": "address"
        }
      ],
      "payable": false,
      "stateMutability": "view",
      "type": "function"
    },
    {
      "inputs": [
        {
          "name": "_trustAdr",
          "type": "address"
        }
      ],
      "payable": false,
      "stateMutability": "nonpayable",
      "type": "constructor"
    },
    {
      "anonymous": false,
      "inputs": [
        {
          "indexed": true,
          "name": "subject",
          "type": "bytes32"
        },
        {
          "indexed": true,
          "name": "day",
          "type": "uint256"
        },
        {
          "indexed": true,
          "name": "value",
          "type": "uint256"
        },
        {
          "indexed": false,
          "name": "timestamp",
          "type": "uint256"
        }
      ],
      "name": "LogPool",
      "type": "event"
    }
  ],
  "bytecode": "0x6060604052600060088190556009805461ff0019169055600a819055600b819055600c819055600d805460ff19908116909155600e829055600f82905560108290556011829055624c4b406012556013829055601480549091169055601555341561006957600080fd5b604051602080612218833981016040528080519150819050600160a060020a038116151561009657600080fd5b60008054600160a060020a03909216600160a060020a031990921691909117905550612151806100c76000396000f3006060604052600436106102f15763ffffffff60e060020a60003504166283f8bd81146102f6578063079a6f4e1461031b5780630c1317571461032e5780630c432f2d146103b857806313f915dc146103cb57806315274a74146103de57806319bff711146103f6578063226eb52b1461041d578063284f90b1146104655780632b76d8e6146104785780632c1b96c91461048b578063358327cb1461049e57806336b7b1e5146104b15780633ff8ba9f146104c9578063404fb391146104dc5780634414693c146104ef5780634aa79747146105385780634cdedfe21461056757806351b87d5f1461057a5780635e1f9f7b1461031b57806363f39db31461058d578063648596e9146105a05780636775d09b146105b3578063698a4b78146105c65780636da57da1146105d95780636e2bdb95146105ec57806375c3357b146105ff5780637be4af94146106125780637cf706181461062557806382a909e01461064057806383a46bd71461065357806384ba11ad146106665780638cbc1ca0146106795780638d9791a91461068c5780638e244ef2146104c95780639557cfa01461069f57806395e0b293146102f657806399e93aac146106b25780639c7b2b9b1461069f5780639edb1280146106c5578063a2e2d5c8146106d8578063a4970280146106eb578063a4bab56f146106fe578063aa08eb2414610711578063aaff144214610779578063abf290b51461078c578063ad910d851461079f578063ba06ae46146107b2578063ba684e09146107c5578063c07275f6146107d8578063c99b168c146107eb578063cb3885f8146107fe578063cc1588e914610811578063cda07d5914610830578063d3046cec14610843578063d4dcd437146103cb578063d63d360014610856578063de1e0c1a1461086f578063de3e0c0e146106b2578063dfc6e2841461069f578063e72964ba14610882578063ec95583114610895578063f02354e7146108a8578063f4b07f2a146108bb578063f756e9f814610567578063f83e94a6146108d4575b600080fd5b341561030157600080fd5b6103096108e7565b60405190815260200160405180910390f35b341561032657600080fd5b6103096108ed565b341561033957600080fd5b6103416108f4565b60405160208082528190810183818151815260200191508051906020019080838360005b8381101561037d578082015183820152602001610365565b50505050905090810190601f1680156103aa5780820380516001836020036101000a031916815260200191505b509250505060405180910390f35b34156103c357600080fd5b61030961092b565b34156103d657600080fd5b610309610932565b34156103e957600080fd5b6103f4600435610937565b005b341561040157600080fd5b6104096109ae565b604051901515815260200160405180910390f35b341561042857600080fd5b61043f60ff600435166024356044356064356109b7565b604051921515835260208301919091526040808301919091526060909101905180910390f35b341561047057600080fd5b610309610c98565b341561048357600080fd5b610309610c9d565b341561049657600080fd5b610309610ca2565b34156104a957600080fd5b610309610ca7565b34156104bc57600080fd5b6103f46004351515610caf565b34156104d457600080fd5b610309610de3565b34156104e757600080fd5b610309610de9565b34156104fa57600080fd5b6103f4600160a060020a0360043581169060243581169060443581169060643581169060843581169060a43581169060c43581169060e43516610def565b341561054357600080fd5b61054b610f4d565b604051600160a060020a03909116815260200160405180910390f35b341561057257600080fd5b610309610f5d565b341561058557600080fd5b610309610f62565b341561059857600080fd5b610309610f86565b34156105ab57600080fd5b61054b610f8c565b34156105be57600080fd5b610309610f9b565b34156105d157600080fd5b610309610fa0565b34156105e457600080fd5b610309610fa6565b34156105f757600080fd5b610309610fca565b341561060a57600080fd5b61054b610fcf565b341561061d57600080fd5b610309610fde565b341561063057600080fd5b6103f46004356024351515611002565b341561064b57600080fd5b610409611043565b341561065e57600080fd5b61054b61104c565b341561067157600080fd5b61030961105b565b341561068457600080fd5b61030961107f565b341561069757600080fd5b61054b611085565b34156106aa57600080fd5b610309611094565b34156106bd57600080fd5b6103096110b8565b34156106d057600080fd5b6103f46110bf565b34156106e357600080fd5b6103096111a5565b34156106f657600080fd5b6103096111aa565b341561070957600080fd5b6103096111b0565b341561071c57600080fd5b6107246111b6565b604051600160a060020a039889168152968816602088015294871660408088019190915293871660608701529186166080860152851660a0850152841660c0840152921660e082015261010001905180910390f35b341561078457600080fd5b6103096111f7565b341561079757600080fd5b6103096111fd565b34156107aa57600080fd5b61054b611202565b34156107bd57600080fd5b61054b611211565b34156107d057600080fd5b610309611220565b34156107e357600080fd5b610309611228565b34156107f657600080fd5b61030961122e565b341561080957600080fd5b610309611235565b341561081c57600080fd5b61030960ff6004351660243560443561123b565b341561083b57600080fd5b6104096112a4565b341561084e57600080fd5b6103096112ad565b341561086157600080fd5b6103096004356024356112b4565b341561087a57600080fd5b610409611363565b341561088d57600080fd5b610309611371565b34156108a057600080fd5b610309611376565b34156108b357600080fd5b61030961137c565b34156108c657600080fd5b6103f4600435602435611382565b34156108df57600080fd5b61054b6113b4565b61271081565b624c4b4081565b60408051908101604052600c81527f48494320506f6f6c202320310000000000000000000000000000000000000000602082015281565b6202a30081565b600181565b60005433600160a060020a0390811691161461095257600080fd5b600e819055600d805460ff1916600117905560085481907f5763457870656e73657341646a7573746d656e744375000000000000000000006000805160206121068339815191524260405190815260200160405180910390a450565b600d5460ff1681565b60035460009081908190819033600160a060020a039081169116146109db57600080fd5b60018860028111156109e957fe5b1415610a6f577f9701a3e1840f59635c219124a5166d8eb2dfd539967f3c80e19f75e48f7df1fc871415610a4057600b80548601905560016000610a2b6113b4565b9195509350600160a060020a03169150610c8d565b600093507f556e617574686f72697365645061796d656e74000000000000000000000000009250839150610c8d565b7f23e2f15b66feab75c1e6aee1f874ef01b346636c780216c8ed4d327be495ac8487148015610aa957506002886002811115610aa757fe5b145b15610ac257600a80548601905560016000610a2b6113b4565b6000886002811115610ad057fe5b1415610b7f57610ade610f8c565b600160a060020a0316637e29cca788888860006040516060015260405160e060020a63ffffffff8616028152600481019390935260248301919091526044820152606401606060405180830381600087803b1515610b3b57600080fd5b6102c65a03f11515610b4c57600080fd5b505050604051805190602001805190602001805192965090945090925050821515610b7a57600c8054860190555b610c8d565b6002886002811115610b8d57fe5b1415610c6257506000610b9e611211565b600160a060020a031663609e9ad788888860085460006040516080015260405160e060020a63ffffffff87160281526004810194909452602484019290925260448301526064820152608401608060405180830381600087803b1515610c0357600080fd5b6102c65a03f11515610c1457600080fd5b5050506040518051906020018051906020018051906020018051939750919550935090915050821515610b7a57600a80548601905580151560011415610b7a57601180548690039055610c8d565b600093507f496e76616c69645061796d656e7400000000000000000000000000000000000092508391505b509450945094915050565b600281565b600081565b600581565b631dcd650081565b6000805433600160a060020a03908116911614610ccb57600080fd5b6009805460ff191683151517905562015180426001919004016008819055620151800261b6cf1901905042811015610d0c5760088054600101905562015180015b60088054600019019081905581907f536574496e697469616c50726f63657373696e6754696d6500000000000000006000805160206121068339815191524260405190815260200160405180910390a4610d64611085565b600160a060020a0316632944ac2e82600160008060405160e060020a63ffffffff8716028152600481019490945260ff90921660248401526044830152600160a060020a03166064820152608401600060405180830381600087803b1515610dcb57600080fd5b6102c65a03f11515610ddc57600080fd5b5050505050565b610e1081565b600c5481565b60005433600160a060020a03908116911614610e0a57600080fd5b600160a060020a0388161515610e1f57600080fd5b600160a060020a0387161515610e3457600080fd5b600160a060020a0386161515610e4957600080fd5b600160a060020a0385161515610e5e57600080fd5b600160a060020a0384161515610e7357600080fd5b600160a060020a0383161515610e8857600080fd5b600160a060020a0382161515610e9d57600080fd5b600160a060020a0381161515610eb257600080fd5b6000805473ffffffffffffffffffffffffffffffffffffffff19908116600160a060020a039a8b1617909155600180548216988a1698909817909755600280548816968916969096179095556003805487169488169490941790935560048054861692871692909217909155600580548516918616919091179055600680548416918516919091179055600780549092169216919091179055565b600354600160a060020a03165b90565b606481565b7f523009c7e41b6b3159012103fccff17371fb03621a0873eaff2f3d87cdb5fe3681565b600e5481565b600454600160a060020a031690565b603281565b60155481565b7f23e2f15b66feab75c1e6aee1f874ef01b346636c780216c8ed4d327be495ac8481565b600a81565b600554600160a060020a031690565b7f9701a3e1840f59635c219124a5166d8eb2dfd539967f3c80e19f75e48f7df1fc81565b60055433600160a060020a0390811691161461101d57600080fd5b6001811515141561103557600f80548301905561103f565b600f805483900390555b5050565b60145460ff1681565b600654600160a060020a031690565b7fd2034e198b9eadf8e1cbe0748ea895a9b61c191942d760814bbf69b40433b55c81565b60105481565b600754600160a060020a031690565b7f5dfb70a859b83dcaee084a4338268940533335bc927474a5b53609d68502509481565b6276a70081565b60005433600160a060020a039081169116146110da57600080fd5b600954610100900460ff16156110ef57600080fd5b6009805461ff001916610100179081905560ff1615156001141561115a576008546000907f4368616e6765546f53756d6d657254696d6500000000000000000000000000006000805160206121068339815191524260405190815260200160405180910390a46111a3565b6008546000907f4368616e6765546f57696e74657254696d6500000000000000000000000000006000805160206121068339815191524260405190815260200160405180910390a45b565b60c881565b60125481565b600b5481565b600054600154600254600354600454600554600654600754600160a060020a0397881698968816979586169694861695938416949284169391821692911690565b600a5481565b600381565b600054600160a060020a031690565b600254600160a060020a031690565b6301312d0081565b600f5481565b6298968081565b60115481565b60075460009033600160a060020a0390811691161461125957600080fd5b821561126157fe5b600082101561126c57fe5b60ff841615156112855761127e6113c3565b905061129d565b60ff8416600114156112995761127e611427565b5060005b9392505050565b60095460ff1681565b61b6cf1981565b600254600090819033600160a060020a039081169116146112d457600080fd5b6010548490106112ec576010805485900390556112f2565b60006010555b8215156113025760118054850190555b601354621e8480908502049050624c4b408160125403111561132a5780601254039150611331565b624c4b4091505b624c4b40816002026012540311156113545760128054600283029003905561135c565b624c4b406012555b5092915050565b600954610100900460ff1681565b600e81565b60085481565b60135481565b60025433600160a060020a0390811691161461139d57600080fd5b600b80549290920390915560118054919091039055565b600154600160a060020a031690565b6000601554601054111561141557601254633b9aca0090633ccbf70002046012819055631dcd650090111561140c5750631dcd65006012556014805460ff191690556000610f5a565b50610e10610f5a565b506014805460ff191690556000610f5a565b60088054600181019091556000908180808080808080808080611448611211565b600160a060020a031663799f14a2600854620151806276a70081151561146a57fe5b046008540160006040516040015260405160e060020a63ffffffff8516028152600481019290925260248201526044016040805180830381600087803b15156114b257600080fd5b6102c65a03f115156114c357600080fd5b5050506040518051906020018051919c50909a506114e19050610f8c565b600160a060020a031663797a29326000604051602001526040518163ffffffff1660e060020a028152600401602060405180830381600087803b151561152657600080fd5b6102c65a03f1151561153757600080fd5b505050604051805199508990508c7f546f74616c5269736b506f696e747300000000000000000000000000000000006000805160206121068339815191524260405190815260200160405180910390a4620f4240611593610f8c565b600160a060020a0316638c561f7a8e6000806040516020015260405160e060020a63ffffffff851602815260048101929092526024820152604401602060405180830381600087803b15156115e757600080fd5b6102c65a03f115156115f857600080fd5b505050604051805190508a0281151561160d57fe5b04975060008811156118a957611621610f4d565b600160a060020a031663870b1cbe60017f23e2f15b66feab75c1e6aee1f874ef01b346636c780216c8ed4d327be495ac848f8c61165c6113b4565b600160a060020a03166040518663ffffffff1660e060020a0281526004018086600681111561168757fe5b60ff1681526020810195909552506040808501939093526060840191909152608083015260a090910191506000905180830381600087803b15156116ca57600080fd5b6102c65a03f115156116db57600080fd5b5050600c80548a90039055506103e8600a89020496506103e860328902049550600187106117d25761170b610f4d565b600160a060020a031663870b1cbe60067fd2034e198b9eadf8e1cbe0748ea895a9b61c191942d760814bbf69b40433b55c8f8b6117466113b4565b600160a060020a03166040518663ffffffff1660e060020a0281526004018086600681111561177157fe5b60ff1681526020810195909552506040808501939093526060840191909152608083015260a090910191506000905180830381600087803b15156117b457600080fd5b6102c65a03f115156117c557600080fd5b5050600a80548990039055505b600186106118a9576117e2610f4d565b600160a060020a031663870b1cbe60047f5dfb70a859b83dcaee084a4338268940533335bc927474a5b53609d6850250948f8a61181d6113b4565b600160a060020a03166040518663ffffffff1660e060020a0281526004018086600681111561184857fe5b60ff1681526020810195909552506040808501939093526060840191909152608083015260a090910191506000905180830381600087803b151561188b57600080fd5b6102c65a03f1151561189c57600080fd5b5050600a80548890039055505b878c7f5072656d69756d437500000000000000000000000000000000000000000000006000805160206121068339815191524260405190815260200160405180910390a489600502600b541115611a175789600502600b5403945061190c610f4d565b600160a060020a031663870b1cbe60037f523009c7e41b6b3159012103fccff17371fb03621a0873eaff2f3d87cdb5fe368f896119476113b4565b600160a060020a03166040518663ffffffff1660e060020a0281526004018086600681111561197257fe5b60ff1681526020810195909552506040808501939093526060840191909152608083015260a090910191506000905180830381600087803b15156119b557600080fd5b6102c65a03f115156119c657600080fd5b5050600b8054879003905550848c7f4f766572666c6f774375000000000000000000000000000000000000000000006000805160206121068339815191524260405190815260200160405180910390a45b600d5460ff161515611a9e57611a2b610f4d565b600160a060020a0316631016ef536000604051602001526040518163ffffffff1660e060020a028152600401602060405180830381600087803b1515611a7057600080fd5b6102c65a03f11515611a8157600080fd5b5050506040518051600e805491925090600d020401600e55611b11565b611aa6610f4d565b600160a060020a0316631016ef536000604051602001526040518163ffffffff1660e060020a028152600401602060405180830381600087803b1515611aeb57600080fd5b6102c65a03f11515611afc57600080fd5b50505060405180515050600d805460ff191690555b600093506000600e541115611b3c57600e54600f54600a54036212750002811515611b3857fe5b0593505b600e5462127500906276a70086900302059250600060115484031315611b69576011548303601055611b6f565b60006010555b624c4b406012541015611b8457624c4b406012555b60006010541115611bac57601054620f424060125402811515611ba357fe5b04601355611bb2565b60006013555b6010546103e8906064020460155560145460ff161515611c5f576014805460ff19166001179055611be1611085565b600160a060020a0316632944ac2e603c42016000808060405160e060020a63ffffffff8716028152600481019490945260ff90921660248401526044830152600160a060020a03166064820152608401600060405180830381600087803b1515611c4a57600080fd5b6102c65a03f11515611c5b57600080fd5b5050505b600e546008547f5763457870656e7365466f7265636173744375000000000000000000000000006000805160206121068339815191524260405190815260200160405180910390a46010546008547f5763426f6e6443750000000000000000000000000000000000000000000000006000805160206121068339815191524260405190815260200160405180910390a46013546008547f426f6e644772616469656e7450707100000000000000000000000000000000006000805160206121068339815191524260405190815260200160405180910390a46012546008547f426f6e645969656c6450706200000000000000000000000000000000000000006000805160206121068339815191524260405190815260200160405180910390a489915087600b54018b1115611da6578988600b548d03031115611da65787600b548c030391505b611dae610f8c565b600160a060020a0316634583beb760008b11611dcb576000611ddd565b8a84620f424002811515611ddb57fe5b045b60085460405160e060020a63ffffffff851602815260048101929092526024820152604401600060405180830381600087803b1515611e1b57600080fd5b6102c65a03f11515611e2c57600080fd5b50506008548c91507f426f6e645061796f75744e6578743344617973437500000000000000000000006000805160206121068339815191524260405190815260200160405180910390a46008548a907f426f6e645061796f7574467574757265437500000000000000000000000000006000805160206121068339815191524260405190815260200160405180910390a4611ec5610f8c565b600160a060020a0316638c561f7a6008546000806040516020015260405160e060020a63ffffffff851602815260048101929092526024820152604401602060405180830381600087803b1515611f1b57600080fd5b6102c65a03f11515611f2c57600080fd5b50505060405180516008549091507f5072656d69756d5065725269736b506f696e7450706d000000000000000000006000805160206121068339815191524260405190815260200160405180910390a4506000611f87610f8c565b600160a060020a031663584b64106000604051606001526040518163ffffffff1660e060020a028152600401606060405180830381600087803b1515611fcc57600080fd5b6102c65a03f11515611fdd57600080fd5b50505060405180519060200180519060200180515091925061200191506110859050565b600160a060020a0316632944ac2e61012c420160008461201f610f8c565b60405160e060020a63ffffffff8716028152600481019490945260ff90921660248401526044830152600160a060020a03166064820152608401600060405180830381600087803b151561207257600080fd5b6102c65a03f1151561208357600080fd5b5050600954610100900460ff16151590506120a357620151809c506120f6565b6009805461ff0019811690915560ff1615156001146120c35760016120c6565b60005b6009805460ff1916911515919091179081905560ff16156120e957610e106120ee565b610e0f195b62015180019c505b505050505050505050505050905600fb72571315815b6fac19634377f8810383b80179f7ea197ef2559f201c81d7f0a165627a7a72305820b6665a7275732a35113858c985e40d7bd79f41fdb85ccbd532e79a61331f0cd00029",
  "source": "",
  "sourcePath": "/Users/Martin/Dapp/01HIC/46-HIC-2017-01-31/contracts/Pool.sol",
  "compiler": {
    "name": "solc",
    "version": "0.4.18+commit.9cf6e910.Emscripten.clang"
  },
  "schemaVersion": "1.0.1",
  "updatedAt": "2018-01-30T23:40:32.013Z"
}