{
  "contractName": "Settlement",
  "abi": [
    {
      "constant": true,
      "inputs": [],
      "name": "MIN_BOND_PRINCIPAL_CU",
      "outputs": [
        {
          "name": "",
          "type": "uint256"
        }
      ],
      "payable": false,
      "stateMutability": "view",
      "type": "function"
    },
    {
      "constant": true,
      "inputs": [],
      "name": "MIN_YIELD_PPB",
      "outputs": [
        {
          "name": "",
          "type": "uint256"
        }
      ],
      "payable": false,
      "stateMutability": "view",
      "type": "function"
    },
    {
      "constant": true,
      "inputs": [],
      "name": "POOL_NAME",
      "outputs": [
        {
          "name": "",
          "type": "string"
        }
      ],
      "payable": false,
      "stateMutability": "view",
      "type": "function"
    },
    {
      "constant": true,
      "inputs": [],
      "name": "DURATION_BOND_LOCK_NEXT_STATE_SEC",
      "outputs": [
        {
          "name": "",
          "type": "uint256"
        }
      ],
      "payable": false,
      "stateMutability": "view",
      "type": "function"
    },
    {
      "constant": true,
      "inputs": [],
      "name": "MIN_DURATION_POLICY_PAUSED_DAY",
      "outputs": [
        {
          "name": "",
          "type": "uint256"
        }
      ],
      "payable": false,
      "stateMutability": "view",
      "type": "function"
    },
    {
      "constant": true,
      "inputs": [],
      "name": "MAX_DURATION_POLICY_PAUSED_DAY",
      "outputs": [
        {
          "name": "",
          "type": "uint256"
        }
      ],
      "payable": false,
      "stateMutability": "view",
      "type": "function"
    },
    {
      "constant": true,
      "inputs": [],
      "name": "POOL_DAILY_PROCESSING_OFFSET_SEC",
      "outputs": [
        {
          "name": "",
          "type": "uint256"
        }
      ],
      "payable": false,
      "stateMutability": "view",
      "type": "function"
    },
    {
      "constant": true,
      "inputs": [],
      "name": "MAX_DURATION_POLICY_LAPSED_DAY",
      "outputs": [
        {
          "name": "",
          "type": "uint256"
        }
      ],
      "payable": false,
      "stateMutability": "view",
      "type": "function"
    },
    {
      "constant": false,
      "inputs": [
        {
          "name": "_adjustorHash",
          "type": "bytes32"
        },
        {
          "name": "_policyHash",
          "type": "bytes32"
        },
        {
          "name": "_documentHash",
          "type": "bytes32"
        }
      ],
      "name": "createSettlement",
      "outputs": [],
      "payable": false,
      "stateMutability": "nonpayable",
      "type": "function"
    },
    {
      "constant": true,
      "inputs": [],
      "name": "MAX_YIELD_PPB",
      "outputs": [
        {
          "name": "",
          "type": "uint256"
        }
      ],
      "payable": false,
      "stateMutability": "view",
      "type": "function"
    },
    {
      "constant": false,
      "inputs": [
        {
          "name": "_settlementHash",
          "type": "bytes32"
        },
        {
          "name": "_adjustorHash",
          "type": "bytes32"
        },
        {
          "name": "_expectedSettlementAmount",
          "type": "uint256"
        }
      ],
      "name": "setExpectedSettlementAmount",
      "outputs": [],
      "payable": false,
      "stateMutability": "nonpayable",
      "type": "function"
    },
    {
      "constant": true,
      "inputs": [],
      "name": "YAC_INTERVAL_DURATION_SEC",
      "outputs": [
        {
          "name": "",
          "type": "uint256"
        }
      ],
      "payable": false,
      "stateMutability": "view",
      "type": "function"
    },
    {
      "constant": false,
      "inputs": [
        {
          "name": "_trustAdr",
          "type": "address"
        },
        {
          "name": "_poolAdr",
          "type": "address"
        },
        {
          "name": "_bondAdr",
          "type": "address"
        },
        {
          "name": "_bankAdr",
          "type": "address"
        },
        {
          "name": "_policyAdr",
          "type": "address"
        },
        {
          "name": "_settlementAdr",
          "type": "address"
        },
        {
          "name": "_adjustorAdr",
          "type": "address"
        },
        {
          "name": "_timerAdr",
          "type": "address"
        }
      ],
      "name": "setContractAdr",
      "outputs": [],
      "payable": false,
      "stateMutability": "nonpayable",
      "type": "function"
    },
    {
      "constant": true,
      "inputs": [],
      "name": "getBankAdr",
      "outputs": [
        {
          "name": "",
          "type": "address"
        }
      ],
      "payable": false,
      "stateMutability": "view",
      "type": "function"
    },
    {
      "constant": true,
      "inputs": [
        {
          "name": "",
          "type": "bytes32"
        }
      ],
      "name": "dataStorage",
      "outputs": [
        {
          "name": "idx",
          "type": "uint256"
        },
        {
          "name": "settlementAmount",
          "type": "uint256"
        },
        {
          "name": "state",
          "type": "uint8"
        }
      ],
      "payable": false,
      "stateMutability": "view",
      "type": "function"
    },
    {
      "constant": true,
      "inputs": [],
      "name": "MAX_DURATION_POLICY_RECONCILIATION_DAYS",
      "outputs": [
        {
          "name": "",
          "type": "uint256"
        }
      ],
      "payable": false,
      "stateMutability": "view",
      "type": "function"
    },
    {
      "constant": true,
      "inputs": [],
      "name": "FUNDING_ACCOUNT_PAYMENT_HASH",
      "outputs": [
        {
          "name": "",
          "type": "bytes32"
        }
      ],
      "payable": false,
      "stateMutability": "view",
      "type": "function"
    },
    {
      "constant": true,
      "inputs": [],
      "name": "hashMap",
      "outputs": [
        {
          "name": "firstIdx",
          "type": "uint256"
        },
        {
          "name": "nextIdx",
          "type": "uint256"
        },
        {
          "name": "count",
          "type": "uint256"
        }
      ],
      "payable": false,
      "stateMutability": "view",
      "type": "function"
    },
    {
      "constant": false,
      "inputs": [
        {
          "name": "_settlementHash",
          "type": "bytes32"
        },
        {
          "name": "_adjustorHash",
          "type": "bytes32"
        },
        {
          "name": "_documentHash",
          "type": "bytes32"
        },
        {
          "name": "_settlementAmount",
          "type": "uint256"
        }
      ],
      "name": "closeSettlement",
      "outputs": [],
      "payable": false,
      "stateMutability": "nonpayable",
      "type": "function"
    },
    {
      "constant": true,
      "inputs": [
        {
          "name": "_hash",
          "type": "bytes32"
        }
      ],
      "name": "isActive",
      "outputs": [
        {
          "name": "",
          "type": "bool"
        }
      ],
      "payable": false,
      "stateMutability": "view",
      "type": "function"
    },
    {
      "constant": true,
      "inputs": [],
      "name": "MAX_POLICY_CREDIT_CU",
      "outputs": [
        {
          "name": "",
          "type": "uint256"
        }
      ],
      "payable": false,
      "stateMutability": "view",
      "type": "function"
    },
    {
      "constant": true,
      "inputs": [],
      "name": "getPolicyAdr",
      "outputs": [
        {
          "name": "",
          "type": "address"
        }
      ],
      "payable": false,
      "stateMutability": "view",
      "type": "function"
    },
    {
      "constant": true,
      "inputs": [],
      "name": "POOL_OPERATOR_FEE_PPT",
      "outputs": [
        {
          "name": "",
          "type": "uint256"
        }
      ],
      "payable": false,
      "stateMutability": "view",
      "type": "function"
    },
    {
      "constant": true,
      "inputs": [
        {
          "name": "_hash",
          "type": "bytes32"
        }
      ],
      "name": "isValid",
      "outputs": [
        {
          "name": "",
          "type": "bool"
        }
      ],
      "payable": false,
      "stateMutability": "view",
      "type": "function"
    },
    {
      "constant": true,
      "inputs": [],
      "name": "BOND_ACCOUNT_PAYMENT_HASH",
      "outputs": [
        {
          "name": "",
          "type": "bytes32"
        }
      ],
      "payable": false,
      "stateMutability": "view",
      "type": "function"
    },
    {
      "constant": true,
      "inputs": [],
      "name": "TRUST_FEE_PPT",
      "outputs": [
        {
          "name": "",
          "type": "uint256"
        }
      ],
      "payable": false,
      "stateMutability": "view",
      "type": "function"
    },
    {
      "constant": true,
      "inputs": [],
      "name": "getSettlementAdr",
      "outputs": [
        {
          "name": "",
          "type": "address"
        }
      ],
      "payable": false,
      "stateMutability": "view",
      "type": "function"
    },
    {
      "constant": true,
      "inputs": [],
      "name": "PREMIUM_ACCOUNT_PAYMENT_HASH",
      "outputs": [
        {
          "name": "",
          "type": "bytes32"
        }
      ],
      "payable": false,
      "stateMutability": "view",
      "type": "function"
    },
    {
      "constant": true,
      "inputs": [],
      "name": "getAdjustorAdr",
      "outputs": [
        {
          "name": "",
          "type": "address"
        }
      ],
      "payable": false,
      "stateMutability": "view",
      "type": "function"
    },
    {
      "constant": true,
      "inputs": [],
      "name": "TRUST_ACCOUNT_PAYMENT_HASH",
      "outputs": [
        {
          "name": "",
          "type": "bytes32"
        }
      ],
      "payable": false,
      "stateMutability": "view",
      "type": "function"
    },
    {
      "constant": true,
      "inputs": [],
      "name": "getTimerAdr",
      "outputs": [
        {
          "name": "",
          "type": "address"
        }
      ],
      "payable": false,
      "stateMutability": "view",
      "type": "function"
    },
    {
      "constant": true,
      "inputs": [],
      "name": "POOL_DAYLIGHT_SAVING_ADJUSTMENT_SEC",
      "outputs": [
        {
          "name": "",
          "type": "uint256"
        }
      ],
      "payable": false,
      "stateMutability": "view",
      "type": "function"
    },
    {
      "constant": true,
      "inputs": [
        {
          "name": "_idx",
          "type": "uint256"
        }
      ],
      "name": "get",
      "outputs": [
        {
          "name": "",
          "type": "bytes32"
        }
      ],
      "payable": false,
      "stateMutability": "view",
      "type": "function"
    },
    {
      "constant": true,
      "inputs": [],
      "name": "OPERATOR_ACCOUNT_PAYMENT_HASH",
      "outputs": [
        {
          "name": "",
          "type": "bytes32"
        }
      ],
      "payable": false,
      "stateMutability": "view",
      "type": "function"
    },
    {
      "constant": true,
      "inputs": [],
      "name": "MIN_POLICY_CREDIT_CU",
      "outputs": [
        {
          "name": "",
          "type": "uint256"
        }
      ],
      "payable": false,
      "stateMutability": "view",
      "type": "function"
    },
    {
      "constant": true,
      "inputs": [],
      "name": "WC_POOL_TARGET_TIME_SEC",
      "outputs": [
        {
          "name": "",
          "type": "uint256"
        }
      ],
      "payable": false,
      "stateMutability": "view",
      "type": "function"
    },
    {
      "constant": true,
      "inputs": [],
      "name": "SETTLEMENT_ACCOUNT_PAYMENT_HASH",
      "outputs": [
        {
          "name": "",
          "type": "bytes32"
        }
      ],
      "payable": false,
      "stateMutability": "view",
      "type": "function"
    },
    {
      "constant": true,
      "inputs": [],
      "name": "BOND_REQUIRED_SECURITY_REFERENCE_PPT",
      "outputs": [
        {
          "name": "",
          "type": "uint256"
        }
      ],
      "payable": false,
      "stateMutability": "view",
      "type": "function"
    },
    {
      "constant": true,
      "inputs": [],
      "name": "getContractAdr",
      "outputs": [
        {
          "name": "trustContractAdr",
          "type": "address"
        },
        {
          "name": "poolContractAdr",
          "type": "address"
        },
        {
          "name": "bondContractAdr",
          "type": "address"
        },
        {
          "name": "bankContractAdr",
          "type": "address"
        },
        {
          "name": "policyContractAdr",
          "type": "address"
        },
        {
          "name": "settlementContractAdr",
          "type": "address"
        },
        {
          "name": "adjustorContractAdr",
          "type": "address"
        },
        {
          "name": "timerContractAdr",
          "type": "address"
        }
      ],
      "payable": false,
      "stateMutability": "view",
      "type": "function"
    },
    {
      "constant": true,
      "inputs": [],
      "name": "POLICY_RECONCILIATION_SAFETY_MARGIN",
      "outputs": [
        {
          "name": "",
          "type": "uint256"
        }
      ],
      "payable": false,
      "stateMutability": "view",
      "type": "function"
    },
    {
      "constant": true,
      "inputs": [],
      "name": "getTrustAdr",
      "outputs": [
        {
          "name": "",
          "type": "address"
        }
      ],
      "payable": false,
      "stateMutability": "view",
      "type": "function"
    },
    {
      "constant": true,
      "inputs": [
        {
          "name": "_hash",
          "type": "bytes32"
        }
      ],
      "name": "isArchived",
      "outputs": [
        {
          "name": "",
          "type": "bool"
        }
      ],
      "payable": false,
      "stateMutability": "view",
      "type": "function"
    },
    {
      "constant": true,
      "inputs": [],
      "name": "getBondAdr",
      "outputs": [
        {
          "name": "",
          "type": "address"
        }
      ],
      "payable": false,
      "stateMutability": "view",
      "type": "function"
    },
    {
      "constant": true,
      "inputs": [],
      "name": "YAC_PER_INTERVAL_PPB",
      "outputs": [
        {
          "name": "",
          "type": "uint256"
        }
      ],
      "payable": false,
      "stateMutability": "view",
      "type": "function"
    },
    {
      "constant": true,
      "inputs": [],
      "name": "MAX_BOND_PRINCIPAL_CU",
      "outputs": [
        {
          "name": "",
          "type": "uint256"
        }
      ],
      "payable": false,
      "stateMutability": "view",
      "type": "function"
    },
    {
      "constant": true,
      "inputs": [],
      "name": "POOL_TIME_ZONE_OFFSET",
      "outputs": [
        {
          "name": "",
          "type": "int256"
        }
      ],
      "payable": false,
      "stateMutability": "view",
      "type": "function"
    },
    {
      "constant": true,
      "inputs": [],
      "name": "DURATION_POLICY_POST_LAPSED_DAY",
      "outputs": [
        {
          "name": "",
          "type": "uint256"
        }
      ],
      "payable": false,
      "stateMutability": "view",
      "type": "function"
    },
    {
      "constant": true,
      "inputs": [],
      "name": "DURATION_TO_BOND_MATURITY_SEC",
      "outputs": [
        {
          "name": "",
          "type": "uint256"
        }
      ],
      "payable": false,
      "stateMutability": "view",
      "type": "function"
    },
    {
      "constant": true,
      "inputs": [],
      "name": "ADJUSTOR_ACCOUNT_PAYMENT_HASH",
      "outputs": [
        {
          "name": "",
          "type": "bytes32"
        }
      ],
      "payable": false,
      "stateMutability": "view",
      "type": "function"
    },
    {
      "constant": false,
      "inputs": [
        {
          "name": "_settlementHash",
          "type": "bytes32"
        },
        {
          "name": "_adjustorHash",
          "type": "bytes32"
        },
        {
          "name": "_documentHash",
          "type": "bytes32"
        }
      ],
      "name": "addSettlementInfo",
      "outputs": [],
      "payable": false,
      "stateMutability": "nonpayable",
      "type": "function"
    },
    {
      "constant": true,
      "inputs": [],
      "name": "DURATION_WC_EXPENSE_HISTORY_DAYS",
      "outputs": [
        {
          "name": "",
          "type": "uint256"
        }
      ],
      "payable": false,
      "stateMutability": "view",
      "type": "function"
    },
    {
      "constant": true,
      "inputs": [],
      "name": "YAC_EXPENSE_THRESHOLD_PPT",
      "outputs": [
        {
          "name": "",
          "type": "uint256"
        }
      ],
      "payable": false,
      "stateMutability": "view",
      "type": "function"
    },
    {
      "constant": true,
      "inputs": [],
      "name": "getPoolAdr",
      "outputs": [
        {
          "name": "",
          "type": "address"
        }
      ],
      "payable": false,
      "stateMutability": "view",
      "type": "function"
    },
    {
      "inputs": [
        {
          "name": "_trustAdr",
          "type": "address"
        }
      ],
      "payable": false,
      "stateMutability": "nonpayable",
      "type": "constructor"
    },
    {
      "anonymous": false,
      "inputs": [
        {
          "indexed": true,
          "name": "settlementHash",
          "type": "bytes32"
        },
        {
          "indexed": true,
          "name": "adjustorHash",
          "type": "bytes32"
        },
        {
          "indexed": true,
          "name": "info",
          "type": "bytes32"
        },
        {
          "indexed": false,
          "name": "timestamp",
          "type": "uint256"
        },
        {
          "indexed": false,
          "name": "state",
          "type": "uint256"
        }
      ],
      "name": "LogSettlement",
      "type": "event"
    }
  ],
  "bytecode": "0x6060604052606060405190810160409081526001808352602083015260009082015260088151816003015560208201518160040155604082015181600501555050341561004b57600080fd5b6040516020806117ba833981016040528080519150819050600160a060020a038116151561007857600080fd5b60008054600160a060020a03909216600160a060020a031990921691909117905550611711806100a96000396000f3006060604052600436106102625763ffffffff60e060020a60003504166283f8bd8114610267578063079a6f4e1461028c5780630c1317571461029f5780630c432f2d1461032957806313f915dc1461033c578063284f90b11461034f5780632b76d8e6146103625780632c1b96c91461037557806333e5671914610388578063358327cb146103a65780633e7ba773146103b95780633ff8ba9f146103d55780634414693c146103e85780634aa79747146104315780634af88313146104605780634cdedfe2146104a857806351b87d5f146104bb578063584b6410146104ce5780635a2b6867146105055780635c36901c146105245780635e1f9f7b1461028c578063648596e91461054e5780636775d09b146105615780636a938567146105745780636da57da11461058a5780636e2bdb951461059d57806375c3357b146105b05780637be4af94146105c357806383a46bd7146105d657806384ba11ad146105e95780638d9791a9146105fc5780638e244ef2146103d55780639507d39a1461060f5780639557cfa01461062557806395e0b2931461026757806399e93aac146106385780639c7b2b9b14610625578063a2e2d5c81461064b578063aa08eb241461065e578063abf290b5146106c6578063ad910d85146106d9578063b6b942e8146106ec578063ba06ae4614610702578063ba684e0914610715578063c99b168c14610728578063d3046cec1461073b578063d4dcd4371461033c578063de3e0c0e14610638578063dfc6e28414610625578063e1ab5e561461074e578063e72964ba1461076a578063f756e9f8146104a8578063f83e94a61461077d575b600080fd5b341561027257600080fd5b61027a610790565b60405190815260200160405180910390f35b341561029757600080fd5b61027a610796565b34156102aa57600080fd5b6102b261079d565b60405160208082528190810183818151815260200191508051906020019080838360005b838110156102ee5780820151838201526020016102d6565b50505050905090810190601f16801561031b5780820380516001836020036101000a031916815260200191505b509250505060405180910390f35b341561033457600080fd5b61027a6107d4565b341561034757600080fd5b61027a6107db565b341561035a57600080fd5b61027a6107e0565b341561036d57600080fd5b61027a6107e5565b341561038057600080fd5b61027a6107ea565b341561039357600080fd5b6103a46004356024356044356107ef565b005b34156103b157600080fd5b61027a610add565b34156103c457600080fd5b6103a4600435602435604435610ae5565b34156103e057600080fd5b61027a610d4c565b34156103f357600080fd5b6103a4600160a060020a0360043581169060243581169060443581169060643581169060843581169060a43581169060c43581169060e43516610d52565b341561043c57600080fd5b610444610eb0565b604051600160a060020a03909116815260200160405180910390f35b341561046b57600080fd5b610476600435610ebf565b6040518084815260200183815260200182600281111561049257fe5b60ff168152602001935050505060405180910390f35b34156104b357600080fd5b61027a610ee3565b34156104c657600080fd5b61027a610ee8565b34156104d957600080fd5b6104e1610f0c565b60405180848152602001838152602001828152602001935050505060405180910390f35b341561051057600080fd5b6103a4600435602435604435606435610f18565b341561052f57600080fd5b61053a600435611223565b604051901515815260200160405180910390f35b341561055957600080fd5b6104446112a3565b341561056c57600080fd5b61027a6112b2565b341561057f57600080fd5b61053a6004356112b7565b341561059557600080fd5b61027a611317565b34156105a857600080fd5b61027a61133b565b34156105bb57600080fd5b610444611340565b34156105ce57600080fd5b61027a61134f565b34156105e157600080fd5b610444611373565b34156105f457600080fd5b61027a611382565b341561060757600080fd5b6104446113a6565b341561061a57600080fd5b61027a6004356113b5565b341561063057600080fd5b61027a611415565b341561064357600080fd5b61027a611439565b341561065657600080fd5b61027a611440565b341561066957600080fd5b610671611445565b604051600160a060020a039889168152968816602088015294871660408088019190915293871660608701529186166080860152851660a0850152841660c0840152921660e082015261010001905180910390f35b34156106d157600080fd5b61027a611486565b34156106e457600080fd5b61044461148b565b34156106f757600080fd5b61053a60043561149a565b341561070d57600080fd5b6104446114fa565b341561072057600080fd5b61027a611509565b341561073357600080fd5b61027a611511565b341561074657600080fd5b61027a611518565b341561075957600080fd5b6103a460043560243560443561151f565b341561077557600080fd5b61027a6116b1565b341561078857600080fd5b6104446116b6565b61271081565b624c4b4081565b60408051908101604052600c81527f48494320506f6f6c202320310000000000000000000000000000000000000000602082015281565b6202a30081565b600181565b600281565b600081565b600581565b60008360006107fc611373565b600160a060020a031663b4e12b9183338460006040516020015260405160e060020a63ffffffff86160281526004810193909352600160a060020a0390911660248301526044820152606401602060405180830381600087803b151561086157600080fd5b6102c65a03f1151561087257600080fd5b50505060405180511515600114905061088a57600080fd5b841561090f576108986112a3565b600160a060020a0316636a9385678660006040516020015260405160e060020a63ffffffff84160281526004810191909152602401602060405180830381600087803b15156108e657600080fd5b6102c65a03f115156108f757600080fd5b50505060405180511515600114905061090f57600080fd5b600c543342604051928352600160a060020a03919091166c0100000000000000000000000002602083015260348201526054016040518091039020925060606040519081016040908152600c548252600060208301819052908201526000848152600e60205260409020815181556020820151816001015560408201518160020160006101000a81548160ff021916908360028111156109ab57fe5b021790555073__Lib___________________________________915063ec726089905060088560405160e060020a63ffffffff85160281526004810192909252602482015260440160006040518083038186803b1515610a0a57600080fd5b6102c65a03f41515610a1b57600080fd5b5050506000838152600e602052604090206002908101548691889186916000805160206116c683398151915291429160ff90911690811115610a5957fe5b60405191825260208201526040908101905180910390a48315610ad5576000838152600e602052604090206002908101805460ff1916600117908190558591889186916000805160206116c683398151915291429160ff90911690811115610abd57fe5b60405191825260208201526040908101905180910390a45b505050505050565b631dcd650081565b8181610aef611373565b600160a060020a031663b4e12b9183338460006040516020015260405160e060020a63ffffffff86160281526004810193909352600160a060020a0390911660248301526044820152606401602060405180830381600087803b1515610b5457600080fd5b6102c65a03f11515610b6557600080fd5b505050604051805115156001149050610b7d57600080fd5b73__Lib___________________________________63199ef7be60088760006040516020015260405160e060020a63ffffffff85160281526004810192909252602482015260440160206040518083038186803b1515610bdc57600080fd5b6102c65a03f41515610bed57600080fd5b505050604051805115156001149050610c0557600080fd5b6000858152600e602052604090206001015483901015610cae57610c276116b6565b600160a060020a0316637cf70618600e60008860001916600019168152602001908152602001600020600101548503600160405160e060020a63ffffffff8516028152600481019290925215156024820152604401600060405180830381600087803b1515610c9557600080fd5b6102c65a03f11515610ca657600080fd5b505050610d31565b610cb66116b6565b6000868152600e602052604080822060010154600160a060020a039390931692637cf706189290879003915160e060020a63ffffffff8516028152600481019290925215156024820152604401600060405180830381600087803b1515610d1c57600080fd5b6102c65a03f11515610d2d57600080fd5b5050505b50506000928352600e60205260409092206001019190915550565b610e1081565b60005433600160a060020a03908116911614610d6d57600080fd5b600160a060020a0388161515610d8257600080fd5b600160a060020a0387161515610d9757600080fd5b600160a060020a0386161515610dac57600080fd5b600160a060020a0385161515610dc157600080fd5b600160a060020a0384161515610dd657600080fd5b600160a060020a0383161515610deb57600080fd5b600160a060020a0382161515610e0057600080fd5b600160a060020a0381161515610e1557600080fd5b6000805473ffffffffffffffffffffffffffffffffffffffff19908116600160a060020a039a8b1617909155600180548216988a1698909817909755600280548816968916969096179095556003805487169488169490941790935560048054861692871692909217909155600580548516918616919091179055600680548416918516919091179055600780549092169216919091179055565b600354600160a060020a031690565b600e6020526000908152604090208054600182015460029092015490919060ff1683565b606481565b7f523009c7e41b6b3159012103fccff17371fb03621a0873eaff2f3d87cdb5fe3681565b600b54600c54600d5483565b8281610f22611373565b600160a060020a031663b4e12b9183338460006040516020015260405160e060020a63ffffffff86160281526004810193909352600160a060020a0390911660248301526044820152606401602060405180830381600087803b1515610f8757600080fd5b6102c65a03f11515610f9857600080fd5b505050604051805115156001149050610fb057600080fd5b73__Lib___________________________________63199ef7be60088860006040516020015260405160e060020a63ffffffff85160281526004810192909252602482015260440160206040518083038186803b151561100f57600080fd5b6102c65a03f4151561102057600080fd5b50505060405180511515600114905061103857600080fd5b83151561104457600080fd5b6000868152600e602052604081206001015411156110685761106886866000610ae5565b6000868152600e602052604081206001018490558311156111545761108b610eb0565b6000878152600e60205260409081902060010154600160a060020a03929092169163870b1cbe916005917f5dfb70a859b83dcaee084a4338268940533335bc927474a5b53609d685025094918b91908290518663ffffffff1660e060020a028152600401808660068111156110fc57fe5b60ff1681526020810195909552506040808501939093526060840191909152608083015260a090910191506000905180830381600087803b151561113f57600080fd5b6102c65a03f1151561115057600080fd5b5050505b6000868152600e602052604090206002908101805460ff19168217908190558591879189916000805160206116c683398151915291429160ff9091169081111561119a57fe5b60405191825260208201526040908101905180910390a473__Lib___________________________________63fa8ae1cb60088860405160e060020a63ffffffff85160281526004810192909252602482015260440160006040518083038186803b151561120757600080fd5b6102c65a03f4151561121857600080fd5b505050505050505050565b600073__Lib___________________________________63199ef7be600884846040516020015260405160e060020a63ffffffff85160281526004810192909252602482015260440160206040518083038186803b151561128357600080fd5b6102c65a03f4151561129457600080fd5b50505060405180519392505050565b600454600160a060020a031690565b603281565b600073__Lib___________________________________63ecb48425600884846040516020015260405160e060020a63ffffffff85160281526004810192909252602482015260440160206040518083038186803b151561128357600080fd5b7f23e2f15b66feab75c1e6aee1f874ef01b346636c780216c8ed4d327be495ac8481565b600a81565b600554600160a060020a031690565b7f9701a3e1840f59635c219124a5166d8eb2dfd539967f3c80e19f75e48f7df1fc81565b600654600160a060020a031690565b7fd2034e198b9eadf8e1cbe0748ea895a9b61c191942d760814bbf69b40433b55c81565b600754600160a060020a031690565b600073__Lib___________________________________63085db8ab600884846040516020015260405160e060020a63ffffffff85160281526004810192909252602482015260440160206040518083038186803b151561128357600080fd5b7f5dfb70a859b83dcaee084a4338268940533335bc927474a5b53609d68502509481565b6276a70081565b60c881565b600054600154600254600354600454600554600654600754600160a060020a0397881698968816979586169694861695938416949284169391821692911690565b600381565b600054600160a060020a031690565b600073__Lib___________________________________6342614936600884846040516020015260405160e060020a63ffffffff85160281526004810192909252602482015260440160206040518083038186803b151561128357600080fd5b600254600160a060020a031690565b6301312d0081565b6298968081565b61b6cf1981565b81600061152a611373565b600160a060020a031663b4e12b9183338460006040516020015260405160e060020a63ffffffff86160281526004810193909352600160a060020a0390911660248301526044820152606401602060405180830381600087803b151561158f57600080fd5b6102c65a03f115156115a057600080fd5b5050506040518051151560011490506115b857600080fd5b73__Lib___________________________________63199ef7be60088760006040516020015260405160e060020a63ffffffff85160281526004810192909252602482015260440160206040518083038186803b151561161757600080fd5b6102c65a03f4151561162857600080fd5b50505060405180511515600114905061164057600080fd5b82151561164c57600080fd5b6000858152600e602052604090206002908101805460ff1916600117908190558491869188916000805160206116c683398151915291429160ff9091169081111561169357fe5b60405191825260208201526040908101905180910390a45050505050565b600e81565b600154600160a060020a0316905600961cff2b0867f334f9c834ed5df1d03ee8844cd2bb49fbdefcbf22a4d889e938a165627a7a72305820babcf44508f5522f4c3aeab59573def22d13121f361323576c235036a689663e0029",
  "source": "/**\n * @description Settlement contract\n * @copyright (c) 2017 Honest Insurance\n * @author Martin Stellnberger\n * @license GPL-3.0\n */\n\npragma solidity ^0.4.18;\n\nimport \"./Lib.sol\";\nimport \"./SetupI.sol\";\nimport \"./IntAccessI.sol\";\nimport \"./HashMapI.sol\";\nimport \"./Adjustor.sol\";\nimport \"./Policy.sol\";\nimport \"./Bank.sol\";\nimport \"./Pool.sol\";\n\n\n/** @title Settlement contract*/\ncontract Settlement is SetupI, IntAccessI, HashMapI {\n\n    struct SettlementData {\n        // Index of this Settlement\n        uint idx;\n        // The final OR anticipated settlement amount (if the settlement is not in an closed state this is the expected settlement amount)\n        uint settlementAmount;\n        // Different states a Settlement can be in \n        Lib.SettlementState state;\n    }\n\n    // Storage mapping for all the settlements\n    mapping(bytes32 => SettlementData) public dataStorage;\n\n    // Events broadcasted by the Settlement / Log events\n    event LogSettlement(bytes32 indexed settlementHash, bytes32 indexed adjustorHash, bytes32 indexed info, uint timestamp, uint state);\n\n    /**@dev Constructor of the Settlement.\n     * @param _trustAdr The address of the Trust.\n     */\n    function Settlement(address _trustAdr) IntAccessI(_trustAdr) public {\n    }\n\n    /**\n    * @dev Modifier verifies if the Adjustor hash and signing private key of the transaction are valid\n    */\n    modifier isAdjustorSettlementPermissioned(bytes32 _adjustorHash, uint _settlementAmount) {\n        require(Adjustor(getAdjustorAdr()).isAdjustorSettlementPermissioned(_adjustorHash, msg.sender, _settlementAmount) == true);\n        _;\n    }\n\n    /**@dev Creates a new settlement entry\n     * @param _adjustorHash Hash of the adjustor submitting this transaction\n     * @param _policyHash Hash of the policy this settlement refers to - is optional parameter\n     * @param _documentHash Hash of a document that is relevant to this settlement\n     */\n    function createSettlement(bytes32 _adjustorHash, bytes32 _policyHash, bytes32 _documentHash)\n        public\n        isAdjustorSettlementPermissioned(_adjustorHash, 0)\n    {\n        // In case a policy hash has been provided, verify if it is a valid policy hash\n        if (_policyHash != 0x0) {\n            require(Policy(getPolicyAdr()).isValid(_policyHash) == true);\n        }\n        \n        // *** Create the Settlement\n\n\t\t// Create a new Settlement hash by using random input parameters (Timestamp, nextIdx of the SettlementHashMapping)\n        bytes32 settlementHash = keccak256(hashMap.nextIdx, msg.sender, now);\n\n        // Add the settlement data to the data storage\n        dataStorage[settlementHash] = SettlementData({\n            // Specify the hashMap.nextIdx as the index for this new settlement\n            idx: hashMap.nextIdx,\n            // The settlement amount\n            settlementAmount: 0,\n            // Set the settlement status to created\n            state: Lib.SettlementState.Created\n        });\n\n        // Add the settlement to the Hash map\n        hashMap.add(settlementHash);\n\n        // Create log entry to document creation of the Settlement\n        LogSettlement(settlementHash, _adjustorHash, _policyHash, now, uint(dataStorage[settlementHash].state));\n\n        // If a valid document hash has been provided create another log entry and change the state to processing\n        if (_documentHash != 0x0) {\n            // Change state to processing\n            dataStorage[settlementHash].state = Lib.SettlementState.Processing;\n            // Add log entry\n            LogSettlement(settlementHash, _adjustorHash, _documentHash, now, uint(dataStorage[settlementHash].state));\n        }\n    }\n\n    /**@dev Adds the specified document hash as additional information for this settlement\n     * @param _settlementHash Hash of the settlement\n     * @param _adjustorHash Hash of the adjustor submitting this transaction\n     * @param _documentHash Hash of a document that is relevant to this settlement and needs to be added\n     */\n    function addSettlementInfo(bytes32 _settlementHash, bytes32 _adjustorHash, bytes32 _documentHash) \n        public\n        isAdjustorSettlementPermissioned(_adjustorHash, 0)\n    {\n        // Ensure an active and valid settlement hash has been provided\n        require(hashMap.isActive(_settlementHash) == true);\n        // Ensure a valid document hash has been provided\n        require(_documentHash != 0x0);\n        \n        // Change state to processing\n        dataStorage[_settlementHash].state = Lib.SettlementState.Processing;\n        // Add log entry\n        LogSettlement(_settlementHash, _adjustorHash, _documentHash, now, uint(dataStorage[_settlementHash].state));\n    }\n\n    /**@dev Closes a settlement\n     * @param _settlementHash Hash of the settlement\n     * @param _adjustorHash Hash of the adjustor submitting this transaction\n     * @param _documentHash Hash of a document that is relevant to this settlement - is optional\n     * @param _settlementAmount The final amount this settlment is settled for\n     */\n    function closeSettlement(bytes32 _settlementHash, bytes32 _adjustorHash, bytes32 _documentHash, uint _settlementAmount) \n        public\n        isAdjustorSettlementPermissioned(_adjustorHash, _settlementAmount)\n    {\n        // Ensure an active and valid settlement hash has been provided\n        require(hashMap.isActive(_settlementHash) == true);\n        // Ensure a valid document hash has been provided\n        require(_documentHash != 0x0);\n    \n        // If a previous settlement amount has been set and WC Locked established remove it now\n        if (dataStorage[_settlementHash].settlementAmount > 0)\n            setExpectedSettlementAmount(_settlementHash, _adjustorHash, 0);\n\n        // Save the final settlement amount\n        dataStorage[_settlementHash].settlementAmount = _settlementAmount;\n\n        // Create Bank payment advice if settlement amount is greater than 0\n        if (dataStorage[_settlementHash].settlementAmount > 0) {\n            // Create payment instruction for the bank\n            Bank(getBankAdr()).createPaymentAdvice(Lib.PaymentAdviceType.ServiceProvider,\n                SETTLEMENT_ACCOUNT_PAYMENT_HASH, _settlementHash, dataStorage[_settlementHash].settlementAmount, _settlementHash);\n        }\n\n        // Change settlement state to Settled\n        dataStorage[_settlementHash].state = Lib.SettlementState.Settled;\n    \n        // Add log entry\n        LogSettlement(_settlementHash, _adjustorHash, _documentHash, now, uint(dataStorage[_settlementHash].state));\n\n        // Archive the settlement\n        hashMap.archive(_settlementHash);\n    }\n\n    /**@dev Set the expected amount that needs to be settled in the future for this settlement\n     * @param _settlementHash Hash of the settlement\n     * @param _adjustorHash Hash of the adjustor submitting this transaction\n     * @param _expectedSettlementAmount The expected amount this settlment will be settled for\n     */\n    function setExpectedSettlementAmount(bytes32 _settlementHash, bytes32 _adjustorHash, uint _expectedSettlementAmount) \n        public\n        isAdjustorSettlementPermissioned(_adjustorHash, _expectedSettlementAmount)\n    {\n        // Ensure an active and valid settlement hash has been provided\n        require(hashMap.isActive(_settlementHash) == true);\n        // Call the pool and adjust WC Locked accordingly (increase or decrease)\n        if (dataStorage[_settlementHash].settlementAmount < _expectedSettlementAmount) {\n            // Increase WC locked\n            Pool(getPoolAdr()).adjustWcLocked(_expectedSettlementAmount - dataStorage[_settlementHash].settlementAmount, true);\n        } else {\n            // Decrease WC locked\n            Pool(getPoolAdr()).adjustWcLocked(dataStorage[_settlementHash].settlementAmount - _expectedSettlementAmount, false);\n        }\n        // Save the new expected settlement amount\n        dataStorage[_settlementHash].settlementAmount = _expectedSettlementAmount;\n    }\n}",
  "sourcePath": "/Users/Martin/Dapp/01HIC/46-HIC-2017-01-31/contracts/Settlement.sol",
  "compiler": {
    "name": "solc",
    "version": "0.4.18+commit.9cf6e910.Emscripten.clang"
  },
  "schemaVersion": "1.0.1",
  "updatedAt": "2018-01-30T23:40:31.912Z"
}