{
  "contractName": "SetupI",
  "abi": [
    {
      "constant": true,
      "inputs": [],
      "name": "MIN_BOND_PRINCIPAL_CU",
      "outputs": [
        {
          "name": "",
          "type": "uint256"
        }
      ],
      "payable": false,
      "stateMutability": "view",
      "type": "function"
    },
    {
      "constant": true,
      "inputs": [],
      "name": "MIN_YIELD_PPB",
      "outputs": [
        {
          "name": "",
          "type": "uint256"
        }
      ],
      "payable": false,
      "stateMutability": "view",
      "type": "function"
    },
    {
      "constant": true,
      "inputs": [],
      "name": "POOL_NAME",
      "outputs": [
        {
          "name": "",
          "type": "string"
        }
      ],
      "payable": false,
      "stateMutability": "view",
      "type": "function"
    },
    {
      "constant": true,
      "inputs": [],
      "name": "DURATION_BOND_LOCK_NEXT_STATE_SEC",
      "outputs": [
        {
          "name": "",
          "type": "uint256"
        }
      ],
      "payable": false,
      "stateMutability": "view",
      "type": "function"
    },
    {
      "constant": true,
      "inputs": [],
      "name": "MIN_DURATION_POLICY_PAUSED_DAY",
      "outputs": [
        {
          "name": "",
          "type": "uint256"
        }
      ],
      "payable": false,
      "stateMutability": "view",
      "type": "function"
    },
    {
      "constant": true,
      "inputs": [],
      "name": "MAX_DURATION_POLICY_PAUSED_DAY",
      "outputs": [
        {
          "name": "",
          "type": "uint256"
        }
      ],
      "payable": false,
      "stateMutability": "view",
      "type": "function"
    },
    {
      "constant": true,
      "inputs": [],
      "name": "POOL_DAILY_PROCESSING_OFFSET_SEC",
      "outputs": [
        {
          "name": "",
          "type": "uint256"
        }
      ],
      "payable": false,
      "stateMutability": "view",
      "type": "function"
    },
    {
      "constant": true,
      "inputs": [],
      "name": "MAX_DURATION_POLICY_LAPSED_DAY",
      "outputs": [
        {
          "name": "",
          "type": "uint256"
        }
      ],
      "payable": false,
      "stateMutability": "view",
      "type": "function"
    },
    {
      "constant": true,
      "inputs": [],
      "name": "MAX_YIELD_PPB",
      "outputs": [
        {
          "name": "",
          "type": "uint256"
        }
      ],
      "payable": false,
      "stateMutability": "view",
      "type": "function"
    },
    {
      "constant": true,
      "inputs": [],
      "name": "YAC_INTERVAL_DURATION_SEC",
      "outputs": [
        {
          "name": "",
          "type": "uint256"
        }
      ],
      "payable": false,
      "stateMutability": "view",
      "type": "function"
    },
    {
      "constant": true,
      "inputs": [],
      "name": "MAX_DURATION_POLICY_RECONCILIATION_DAYS",
      "outputs": [
        {
          "name": "",
          "type": "uint256"
        }
      ],
      "payable": false,
      "stateMutability": "view",
      "type": "function"
    },
    {
      "constant": true,
      "inputs": [],
      "name": "FUNDING_ACCOUNT_PAYMENT_HASH",
      "outputs": [
        {
          "name": "",
          "type": "bytes32"
        }
      ],
      "payable": false,
      "stateMutability": "view",
      "type": "function"
    },
    {
      "constant": true,
      "inputs": [],
      "name": "MAX_POLICY_CREDIT_CU",
      "outputs": [
        {
          "name": "",
          "type": "uint256"
        }
      ],
      "payable": false,
      "stateMutability": "view",
      "type": "function"
    },
    {
      "constant": true,
      "inputs": [],
      "name": "POOL_OPERATOR_FEE_PPT",
      "outputs": [
        {
          "name": "",
          "type": "uint256"
        }
      ],
      "payable": false,
      "stateMutability": "view",
      "type": "function"
    },
    {
      "constant": true,
      "inputs": [],
      "name": "BOND_ACCOUNT_PAYMENT_HASH",
      "outputs": [
        {
          "name": "",
          "type": "bytes32"
        }
      ],
      "payable": false,
      "stateMutability": "view",
      "type": "function"
    },
    {
      "constant": true,
      "inputs": [],
      "name": "TRUST_FEE_PPT",
      "outputs": [
        {
          "name": "",
          "type": "uint256"
        }
      ],
      "payable": false,
      "stateMutability": "view",
      "type": "function"
    },
    {
      "constant": true,
      "inputs": [],
      "name": "PREMIUM_ACCOUNT_PAYMENT_HASH",
      "outputs": [
        {
          "name": "",
          "type": "bytes32"
        }
      ],
      "payable": false,
      "stateMutability": "view",
      "type": "function"
    },
    {
      "constant": true,
      "inputs": [],
      "name": "TRUST_ACCOUNT_PAYMENT_HASH",
      "outputs": [
        {
          "name": "",
          "type": "bytes32"
        }
      ],
      "payable": false,
      "stateMutability": "view",
      "type": "function"
    },
    {
      "constant": true,
      "inputs": [],
      "name": "POOL_DAYLIGHT_SAVING_ADJUSTMENT_SEC",
      "outputs": [
        {
          "name": "",
          "type": "uint256"
        }
      ],
      "payable": false,
      "stateMutability": "view",
      "type": "function"
    },
    {
      "constant": true,
      "inputs": [],
      "name": "OPERATOR_ACCOUNT_PAYMENT_HASH",
      "outputs": [
        {
          "name": "",
          "type": "bytes32"
        }
      ],
      "payable": false,
      "stateMutability": "view",
      "type": "function"
    },
    {
      "constant": true,
      "inputs": [],
      "name": "MIN_POLICY_CREDIT_CU",
      "outputs": [
        {
          "name": "",
          "type": "uint256"
        }
      ],
      "payable": false,
      "stateMutability": "view",
      "type": "function"
    },
    {
      "constant": true,
      "inputs": [],
      "name": "WC_POOL_TARGET_TIME_SEC",
      "outputs": [
        {
          "name": "",
          "type": "uint256"
        }
      ],
      "payable": false,
      "stateMutability": "view",
      "type": "function"
    },
    {
      "constant": true,
      "inputs": [],
      "name": "SETTLEMENT_ACCOUNT_PAYMENT_HASH",
      "outputs": [
        {
          "name": "",
          "type": "bytes32"
        }
      ],
      "payable": false,
      "stateMutability": "view",
      "type": "function"
    },
    {
      "constant": true,
      "inputs": [],
      "name": "BOND_REQUIRED_SECURITY_REFERENCE_PPT",
      "outputs": [
        {
          "name": "",
          "type": "uint256"
        }
      ],
      "payable": false,
      "stateMutability": "view",
      "type": "function"
    },
    {
      "constant": true,
      "inputs": [],
      "name": "POLICY_RECONCILIATION_SAFETY_MARGIN",
      "outputs": [
        {
          "name": "",
          "type": "uint256"
        }
      ],
      "payable": false,
      "stateMutability": "view",
      "type": "function"
    },
    {
      "constant": true,
      "inputs": [],
      "name": "YAC_PER_INTERVAL_PPB",
      "outputs": [
        {
          "name": "",
          "type": "uint256"
        }
      ],
      "payable": false,
      "stateMutability": "view",
      "type": "function"
    },
    {
      "constant": true,
      "inputs": [],
      "name": "MAX_BOND_PRINCIPAL_CU",
      "outputs": [
        {
          "name": "",
          "type": "uint256"
        }
      ],
      "payable": false,
      "stateMutability": "view",
      "type": "function"
    },
    {
      "constant": true,
      "inputs": [],
      "name": "POOL_TIME_ZONE_OFFSET",
      "outputs": [
        {
          "name": "",
          "type": "int256"
        }
      ],
      "payable": false,
      "stateMutability": "view",
      "type": "function"
    },
    {
      "constant": true,
      "inputs": [],
      "name": "DURATION_POLICY_POST_LAPSED_DAY",
      "outputs": [
        {
          "name": "",
          "type": "uint256"
        }
      ],
      "payable": false,
      "stateMutability": "view",
      "type": "function"
    },
    {
      "constant": true,
      "inputs": [],
      "name": "DURATION_TO_BOND_MATURITY_SEC",
      "outputs": [
        {
          "name": "",
          "type": "uint256"
        }
      ],
      "payable": false,
      "stateMutability": "view",
      "type": "function"
    },
    {
      "constant": true,
      "inputs": [],
      "name": "ADJUSTOR_ACCOUNT_PAYMENT_HASH",
      "outputs": [
        {
          "name": "",
          "type": "bytes32"
        }
      ],
      "payable": false,
      "stateMutability": "view",
      "type": "function"
    },
    {
      "constant": true,
      "inputs": [],
      "name": "DURATION_WC_EXPENSE_HISTORY_DAYS",
      "outputs": [
        {
          "name": "",
          "type": "uint256"
        }
      ],
      "payable": false,
      "stateMutability": "view",
      "type": "function"
    },
    {
      "constant": true,
      "inputs": [],
      "name": "YAC_EXPENSE_THRESHOLD_PPT",
      "outputs": [
        {
          "name": "",
          "type": "uint256"
        }
      ],
      "payable": false,
      "stateMutability": "view",
      "type": "function"
    }
  ],
  "bytecode": "0x6060604052341561000f57600080fd5b6105908061001e6000396000f30060606040526004361061019f5763ffffffff7c010000000000000000000000000000000000000000000000000000000060003504166283f8bd81146101a4578063079a6f4e146101c95780630c131757146101dc5780630c432f2d1461026657806313f915dc14610279578063284f90b11461028c5780632b76d8e61461029f5780632c1b96c9146102b2578063358327cb146102c55780633ff8ba9f146102d85780634cdedfe2146102eb57806351b87d5f146102fe5780635e1f9f7b146101c95780636775d09b146103115780636da57da1146103245780636e2bdb95146103375780637be4af941461034a57806384ba11ad1461035d5780638e244ef2146102d85780639557cfa01461037057806395e0b293146101a457806399e93aac146103835780639c7b2b9b14610370578063a2e2d5c814610396578063abf290b5146103a9578063ba684e09146103bc578063c99b168c146103cf578063d3046cec146103e2578063d4dcd43714610279578063de3e0c0e14610383578063dfc6e28414610370578063e72964ba146103f5578063f756e9f8146102eb575b600080fd5b34156101af57600080fd5b6101b7610408565b60405190815260200160405180910390f35b34156101d457600080fd5b6101b761040e565b34156101e757600080fd5b6101ef610415565b60405160208082528190810183818151815260200191508051906020019080838360005b8381101561022b578082015183820152602001610213565b50505050905090810190601f1680156102585780820380516001836020036101000a031916815260200191505b509250505060405180910390f35b341561027157600080fd5b6101b761044c565b341561028457600080fd5b6101b7610453565b341561029757600080fd5b6101b7610458565b34156102aa57600080fd5b6101b761045d565b34156102bd57600080fd5b6101b7610462565b34156102d057600080fd5b6101b7610467565b34156102e357600080fd5b6101b761046f565b34156102f657600080fd5b6101b7610475565b341561030957600080fd5b6101b761047a565b341561031c57600080fd5b6101b761049e565b341561032f57600080fd5b6101b76104a3565b341561034257600080fd5b6101b76104c7565b341561035557600080fd5b6101b76104cc565b341561036857600080fd5b6101b76104f0565b341561037b57600080fd5b6101b7610514565b341561038e57600080fd5b6101b7610538565b34156103a157600080fd5b6101b761053f565b34156103b457600080fd5b6101b7610544565b34156103c757600080fd5b6101b7610549565b34156103da57600080fd5b6101b7610551565b34156103ed57600080fd5b6101b7610558565b341561040057600080fd5b6101b761055f565b61271081565b624c4b4081565b60408051908101604052600c81527f48494320506f6f6c202320310000000000000000000000000000000000000000602082015281565b6202a30081565b600181565b600281565b600081565b600581565b631dcd650081565b610e1081565b606481565b7f523009c7e41b6b3159012103fccff17371fb03621a0873eaff2f3d87cdb5fe3681565b603281565b7f23e2f15b66feab75c1e6aee1f874ef01b346636c780216c8ed4d327be495ac8481565b600a81565b7f9701a3e1840f59635c219124a5166d8eb2dfd539967f3c80e19f75e48f7df1fc81565b7fd2034e198b9eadf8e1cbe0748ea895a9b61c191942d760814bbf69b40433b55c81565b7f5dfb70a859b83dcaee084a4338268940533335bc927474a5b53609d68502509481565b6276a70081565b60c881565b600381565b6301312d0081565b6298968081565b61b6cf1981565b600e815600a165627a7a72305820bae3dea060652359e364928dad86c927f8c510e16b29c2e8c80c5fb4fd49a3f70029",
  "source": "/**\n * @description Setup Interface contract\n * @copyright (c) 2017 Honest Insurance\n * @author Martin Stellnberger\n * @license GPL-3.0\n */\n\npragma solidity ^0.4.18;\n\nimport \"./Lib.sol\";\n\n\n/** @title Insurance Pool Contract storing all its parameters.*/ \ncontract SetupI {\n    // Name of the insurance Pool\n    string public constant POOL_NAME = \"HIC Pool # 1\";\n\n    // Constants used by the Insurance Pool\n    uint public constant WC_POOL_TARGET_TIME_SEC = 90 days;                // (90 Days)\n    uint public constant DURATION_TO_BOND_MATURITY_SEC = 90 days;          // (90 Days)\n    uint public constant DURATION_BOND_LOCK_NEXT_STATE_SEC = 2 days;       // (2 Days)\n    uint public constant DURATION_WC_EXPENSE_HISTORY_DAYS = 14;            // (14 Days)\n\n    // Yield constants\n    uint public constant YAC_PER_INTERVAL_PPB = 20000000;               // (2% per hour)\n    uint public constant YAC_INTERVAL_DURATION_SEC = 1 hours;           // Accellerate yield in 1 hour intervals\n    uint public constant YAC_EXPENSE_THRESHOLD_PPT = 100;               // (10 %)\n    uint public constant MIN_YIELD_PPB = 5000000;                       // (0.5 %)\n    uint public constant MAX_YIELD_PPB = 500000000;                     // (50 %)\n\n    // Bond constants\n    uint public constant MIN_BOND_PRINCIPAL_CU = 10000;                 // ($ 100)\n    uint public constant MAX_BOND_PRINCIPAL_CU = 10000000;              // ($ 100.000,--)\n    uint public constant BOND_REQUIRED_SECURITY_REFERENCE_PPT = 200;    // (20 %)\n\n    // Policy constants\n    uint public constant MIN_POLICY_CREDIT_CU = 10000;                  // ($ 100)\n    uint public constant MAX_POLICY_CREDIT_CU = 5000000;                // ($ 50.000,--)\n    uint public constant MAX_DURATION_POLICY_RECONCILIATION_DAYS = 100;\n    uint public constant POLICY_RECONCILIATION_SAFETY_MARGIN = 3;\n    uint public constant MIN_DURATION_POLICY_PAUSED_DAY = 1;\n    uint public constant MAX_DURATION_POLICY_PAUSED_DAY = 2;\n    uint public constant DURATION_POLICY_POST_LAPSED_DAY = 1;\n    uint public constant MAX_DURATION_POLICY_LAPSED_DAY = 5;\n\n    // Pool processing costants\n    uint public constant POOL_DAILY_PROCESSING_OFFSET_SEC = 0;\n    uint public constant POOL_DAYLIGHT_SAVING_ADJUSTMENT_SEC = 1 hours;\n    int public constant POOL_TIME_ZONE_OFFSET = -46800;\n\n    // Operator and Trust fees\n    uint public constant POOL_OPERATOR_FEE_PPT = 50;     // (5 %)\n    uint public constant TRUST_FEE_PPT = 10;             // (1 %)\n        \n    // Hashes of the bank account owner and bank account number (sha3(accountOwner, accountNumber))\n    bytes32 public constant PREMIUM_ACCOUNT_PAYMENT_HASH =    0x9701a3e1840f59635c219124a5166d8eb2dfd539967f3c80e19f75e48f7df1fc;\n    bytes32 public constant BOND_ACCOUNT_PAYMENT_HASH =       0x23e2f15b66feab75c1e6aee1f874ef01b346636c780216c8ed4d327be495ac84;\n    bytes32 public constant FUNDING_ACCOUNT_PAYMENT_HASH =    0x523009c7e41b6b3159012103fccff17371fb03621a0873eaff2f3d87cdb5fe36;\n    bytes32 public constant TRUST_ACCOUNT_PAYMENT_HASH =      0xd2034e198b9eadf8e1cbe0748ea895a9b61c191942d760814bbf69b40433b55c;\n    bytes32 public constant OPERATOR_ACCOUNT_PAYMENT_HASH =   0x5dfb70a859b83dcaee084a4338268940533335bc927474a5b53609d685025094;\n    bytes32 public constant SETTLEMENT_ACCOUNT_PAYMENT_HASH = 0x5dfb70a859b83dcaee084a4338268940533335bc927474a5b53609d685025094;\n    bytes32 public constant ADJUSTOR_ACCOUNT_PAYMENT_HASH =   0x5dfb70a859b83dcaee084a4338268940533335bc927474a5b53609d685025094;\n}",
  "sourcePath": "/Users/Martin/Dapp/01HIC/46-HIC-2017-01-31/contracts/SetupI.sol",
  "compiler": {
    "name": "solc",
    "version": "0.4.18+commit.9cf6e910.Emscripten.clang"
  },
  "schemaVersion": "1.0.1",
  "updatedAt": "2018-01-30T23:40:32.072Z"
}