{
  "contractName": "Timer",
  "abi": [
    {
      "constant": true,
      "inputs": [
        {
          "name": "_timestampPeriod",
          "type": "uint256"
        }
      ],
      "name": "getTimerNotificationCount",
      "outputs": [
        {
          "name": "",
          "type": "uint256"
        }
      ],
      "payable": false,
      "stateMutability": "view",
      "type": "function"
    },
    {
      "constant": false,
      "inputs": [
        {
          "name": "_dateTime",
          "type": "uint256"
        },
        {
          "name": "_subject",
          "type": "uint8"
        },
        {
          "name": "_message",
          "type": "bytes32"
        },
        {
          "name": "_targetAdr",
          "type": "address"
        }
      ],
      "name": "addNotification",
      "outputs": [],
      "payable": false,
      "stateMutability": "nonpayable",
      "type": "function"
    },
    {
      "constant": true,
      "inputs": [
        {
          "name": "",
          "type": "uint256"
        }
      ],
      "name": "timeIntervalHasEntries",
      "outputs": [
        {
          "name": "",
          "type": "bool"
        }
      ],
      "payable": false,
      "stateMutability": "view",
      "type": "function"
    },
    {
      "constant": false,
      "inputs": [
        {
          "name": "_trustAdr",
          "type": "address"
        },
        {
          "name": "_poolAdr",
          "type": "address"
        },
        {
          "name": "_bondAdr",
          "type": "address"
        },
        {
          "name": "_bankAdr",
          "type": "address"
        },
        {
          "name": "_policyAdr",
          "type": "address"
        },
        {
          "name": "_settlementAdr",
          "type": "address"
        },
        {
          "name": "_adjustorAdr",
          "type": "address"
        },
        {
          "name": "_timerAdr",
          "type": "address"
        }
      ],
      "name": "setContractAdr",
      "outputs": [],
      "payable": false,
      "stateMutability": "nonpayable",
      "type": "function"
    },
    {
      "constant": true,
      "inputs": [],
      "name": "getBankAdr",
      "outputs": [
        {
          "name": "",
          "type": "address"
        }
      ],
      "payable": false,
      "stateMutability": "view",
      "type": "function"
    },
    {
      "constant": false,
      "inputs": [],
      "name": "ping",
      "outputs": [],
      "payable": false,
      "stateMutability": "nonpayable",
      "type": "function"
    },
    {
      "constant": true,
      "inputs": [],
      "name": "getPolicyAdr",
      "outputs": [
        {
          "name": "",
          "type": "address"
        }
      ],
      "payable": false,
      "stateMutability": "view",
      "type": "function"
    },
    {
      "constant": true,
      "inputs": [],
      "name": "getSettlementAdr",
      "outputs": [
        {
          "name": "",
          "type": "address"
        }
      ],
      "payable": false,
      "stateMutability": "view",
      "type": "function"
    },
    {
      "constant": true,
      "inputs": [
        {
          "name": "",
          "type": "uint256"
        },
        {
          "name": "",
          "type": "uint256"
        }
      ],
      "name": "notification",
      "outputs": [
        {
          "name": "notificationAddress",
          "type": "address"
        },
        {
          "name": "subject",
          "type": "uint8"
        },
        {
          "name": "message",
          "type": "bytes32"
        }
      ],
      "payable": false,
      "stateMutability": "view",
      "type": "function"
    },
    {
      "constant": true,
      "inputs": [],
      "name": "getAdjustorAdr",
      "outputs": [
        {
          "name": "",
          "type": "address"
        }
      ],
      "payable": false,
      "stateMutability": "view",
      "type": "function"
    },
    {
      "constant": true,
      "inputs": [],
      "name": "lastPingExec_10_S",
      "outputs": [
        {
          "name": "",
          "type": "uint256"
        }
      ],
      "payable": false,
      "stateMutability": "view",
      "type": "function"
    },
    {
      "constant": true,
      "inputs": [],
      "name": "getTimerAdr",
      "outputs": [
        {
          "name": "",
          "type": "address"
        }
      ],
      "payable": false,
      "stateMutability": "view",
      "type": "function"
    },
    {
      "constant": true,
      "inputs": [],
      "name": "TIMER_INCEPTION_DATE",
      "outputs": [
        {
          "name": "",
          "type": "uint256"
        }
      ],
      "payable": false,
      "stateMutability": "view",
      "type": "function"
    },
    {
      "constant": true,
      "inputs": [],
      "name": "getContractAdr",
      "outputs": [
        {
          "name": "trustContractAdr",
          "type": "address"
        },
        {
          "name": "poolContractAdr",
          "type": "address"
        },
        {
          "name": "bondContractAdr",
          "type": "address"
        },
        {
          "name": "bankContractAdr",
          "type": "address"
        },
        {
          "name": "policyContractAdr",
          "type": "address"
        },
        {
          "name": "settlementContractAdr",
          "type": "address"
        },
        {
          "name": "adjustorContractAdr",
          "type": "address"
        },
        {
          "name": "timerContractAdr",
          "type": "address"
        }
      ],
      "payable": false,
      "stateMutability": "view",
      "type": "function"
    },
    {
      "constant": true,
      "inputs": [],
      "name": "getTrustAdr",
      "outputs": [
        {
          "name": "",
          "type": "address"
        }
      ],
      "payable": false,
      "stateMutability": "view",
      "type": "function"
    },
    {
      "constant": true,
      "inputs": [],
      "name": "getBlockchainEPOCHTime",
      "outputs": [
        {
          "name": "",
          "type": "uint256"
        }
      ],
      "payable": false,
      "stateMutability": "view",
      "type": "function"
    },
    {
      "constant": true,
      "inputs": [],
      "name": "getBondAdr",
      "outputs": [
        {
          "name": "",
          "type": "address"
        }
      ],
      "payable": false,
      "stateMutability": "view",
      "type": "function"
    },
    {
      "constant": false,
      "inputs": [
        {
          "name": "_pingAdr",
          "type": "address"
        },
        {
          "name": "_subject",
          "type": "uint8"
        },
        {
          "name": "_message",
          "type": "bytes32"
        },
        {
          "name": "_scheduledDateTime",
          "type": "uint256"
        }
      ],
      "name": "manualPing",
      "outputs": [],
      "payable": false,
      "stateMutability": "nonpayable",
      "type": "function"
    },
    {
      "constant": true,
      "inputs": [],
      "name": "getPoolAdr",
      "outputs": [
        {
          "name": "",
          "type": "address"
        }
      ],
      "payable": false,
      "stateMutability": "view",
      "type": "function"
    },
    {
      "inputs": [
        {
          "name": "_trustAdr",
          "type": "address"
        }
      ],
      "payable": false,
      "stateMutability": "nonpayable",
      "type": "constructor"
    }
  ],
  "bytecode": "0x6060604052600a4204600955341561001657600080fd5b604051602080610cf4833981016040528080519150819050600160a060020a038116151561004357600080fd5b60008054600160a060020a03909216600160a060020a03199092169190911790555042600855610c7c806100786000396000f3006060604052600436106100ed5763ffffffff60e060020a60003504166318581a9681146100f25780632944ac2e1461011a5780632e13abed146101475780634414693c146101715780634aa79747146101ba5780635c36b186146101e9578063648596e9146101fc57806375c3357b1461020f5780637b4b18311461022257806383a46bd71461026b57806388118a731461027e5780638d9791a9146102915780639c93aba6146102a4578063aa08eb24146102b7578063ad910d851461031f578063b87fb0f914610332578063ba06ae4614610345578063cd4f0e1714610358578063f83e94a614610383575b600080fd5b34156100fd57600080fd5b610108600435610396565b60405190815260200160405180910390f35b341561012557600080fd5b61014560043560ff60243516604435600160a060020a03606435166103a8565b005b341561015257600080fd5b61015d60043561057c565b604051901515815260200160405180910390f35b341561017c57600080fd5b610145600160a060020a0360043581169060243581169060443581169060643581169060843581169060a43581169060c43581169060e43516610591565b34156101c557600080fd5b6101cd6106ef565b604051600160a060020a03909116815260200160405180910390f35b34156101f457600080fd5b6101456106ff565b341561020757600080fd5b6101cd610a51565b341561021a57600080fd5b6101cd610a60565b341561022d57600080fd5b61023b600435602435610a6f565b604051600160a060020a03909316835260ff90911660208301526040808301919091526060909101905180910390f35b341561027657600080fd5b6101cd610abe565b341561028957600080fd5b610108610acd565b341561029c57600080fd5b6101cd610ad3565b34156102af57600080fd5b610108610ae2565b34156102c257600080fd5b6102ca610ae8565b604051600160a060020a039889168152968816602088015294871660408088019190915293871660608701529186166080860152851660a0850152841660c0840152921660e082015261010001905180910390f35b341561032a57600080fd5b6101cd610b29565b341561033d57600080fd5b610108610b38565b341561035057600080fd5b6101cd610b3c565b341561036357600080fd5b610145600160a060020a036004351660ff60243516604435606435610b4b565b341561038e57600080fd5b6101cd610bd3565b6000908152600a602052604090205490565b60005433600160a060020a03908116911614806103d3575060015433600160a060020a039081169116145b806103ec575060025433600160a060020a039081169116145b80610405575060035433600160a060020a039081169116145b8061041e575060045433600160a060020a039081169116145b80610437575060055433600160a060020a039081169116145b80610450575060065433600160a060020a039081169116145b80610469575060075433600160a060020a039081169116145b151561047457600080fd5b42841161048057600080fd5b600160a060020a03811615156104935750335b600a8085046000908152602091909152604090208054600181016104b78382610be2565b9160005260206000209060020201600060606040519081016040908152600160a060020a038616825260ff8816602083015281018690529190508151815473ffffffffffffffffffffffffffffffffffffffff1916600160a060020a03919091161781556020820151815460ff9190911660a060020a0274ff000000000000000000000000000000000000000019909116178155604082015160019182015560649096046000908152600b60205260409020805460ff19169096179095555050505050565b600b6020526000908152604090205460ff1681565b60005433600160a060020a039081169116146105ac57600080fd5b600160a060020a03881615156105c157600080fd5b600160a060020a03871615156105d657600080fd5b600160a060020a03861615156105eb57600080fd5b600160a060020a038516151561060057600080fd5b600160a060020a038416151561061557600080fd5b600160a060020a038316151561062a57600080fd5b600160a060020a038216151561063f57600080fd5b600160a060020a038116151561065457600080fd5b6000805473ffffffffffffffffffffffffffffffffffffffff19908116600160a060020a039a8b1617909155600180548216988a1698909817909755600280548816968916969096179095556003805487169488169490941790935560048054861692871692909217909155600580548516918616919091179055600680548416918516919091179055600780549092169216919091179055565b600354600160a060020a03165b90565b60008080808080600a42049550600a60095481151561071a57fe5b0494505b600a86048511610a42576000858152600b602052604090205460ff16151560011415610a375784600a0293505b84600101600a02841015610a3757600954841015801561076b5750858411155b15610a2c57600092505b6000848152600a6020526040902054831015610a2c576000848152600a602052604090208054849081106107a557fe5b60009182526020808320600290920290910154868352600a90915260409091208054600160a060020a039092169163cc1588e99190869081106107e457fe5b906000526020600020906002020160000160149054906101000a900460ff16600a60008881526020019081526020016000208681548110151561082357fe5b90600052602060002090600202016001015487600a0260006040516020015260405160e060020a63ffffffff861602815260ff909316600484015260248301919091526044820152606401602060405180830381600087803b151561088757600080fd5b6102c65a03f1151561089857600080fd5b50505060405180519250506000821115610a2157600a820484016000818152600a60205260409020805491925090600181016108d48382610be2565b91600052602060002090600202016000606060405190810160409081526000898152600a6020522080548291908990811061090b57fe5b60009182526020808320600290920290910154600160a060020a031683528a8252600a81526040909120805492909101918990811061094657fe5b6000918252602080832060029092029091015460ff60a060020a9091041683528a8252600a81526040909120805492909101918990811061098357fe5b600091825260209091206001600290920201015490529190508151815473ffffffffffffffffffffffffffffffffffffffff1916600160a060020a03919091161781556020820151815460ff9190911660a060020a0274ff0000000000000000000000000000000000000000199091161781556040820151600191820155600a84046000908152600b60205260409020805460ff1916909117905550505b600190920191610775565b60019093019261074b565b60019094019361071e565b50505060019092016009555050565b600454600160a060020a031690565b600554600160a060020a031690565b600a60205281600052604060002081815481101515610a8a57fe5b600091825260209091206002909102018054600190910154600160a060020a038216935060a060020a90910460ff16915083565b600654600160a060020a031690565b60095481565b600754600160a060020a031690565b60085481565b600054600154600254600354600454600554600654600754600160a060020a0397881698968816979586169694861695938416949284169391821692911690565b600054600160a060020a031690565b4290565b600254600160a060020a031690565b83600160a060020a031663cc1588e984848460006040516020015260405160e060020a63ffffffff861602815260ff909316600484015260248301919091526044820152606401602060405180830381600087803b1515610bab57600080fd5b6102c65a03f11515610bbc57600080fd5b5050506040518051505050600a4204600955505050565b600154600160a060020a031690565b815481835581811511610c0e57600202816002028360005260206000209182019101610c0e9190610c13565b505050565b6106fc91905b80821115610c4c57805474ffffffffffffffffffffffffffffffffffffffffff1916815560006001820155600201610c19565b50905600a165627a7a72305820b60f6c3dd217a4b7fa115bf4a8c22cb1000fb15d619515de23a6897f4828f2f90029",
  "source": "/**\n * @description Timer contract\n * @copyright (c) 2017 Honest Insurance\n * @author Martin Stellnberger\n * @license GPL-3.0\n */\n\npragma solidity ^0.4.18;\n\nimport \"./IntAccessI.sol\";\nimport \"./NotificationI.sol\";\n\n\n/** @title Timer contract to implement ping functionality.*/\ncontract Timer is IntAccessI {\n\n    // The inception date of this contract\n    uint public TIMER_INCEPTION_DATE;\n    // Store the time ping was executed the last time (in 10 seconds intervalls)\n    uint public lastPingExec_10_S = now / 10;\n\n    // Struct to store the notifications in\n    struct NotificationEntry {\n        address notificationAddress;\n        uint8 subject;\n        bytes32 message;\n    }\n\n    // Mapping to store the notificatoins in an array of 10 second intervalls\n    mapping(uint => NotificationEntry[]) public notification;\n    // Mapping to speed up iterations by using 100 seconds intervals\n    mapping(uint => bool) public timeIntervalHasEntries;\n\n    /**@dev Constructor of the  Timer.\n     * @param _trustAdr The address of the Trust this timer belongs to\n     */\n    function Timer(address _trustAdr) IntAccessI(_trustAdr) public {\n        TIMER_INCEPTION_DATE = now;\n    }\n\n    /**@dev Function to add a notification event to the Timer.\n     * @param _dateTime The time the notification needs to be triggered\n     * @param _subject The subject of the notification\n     * @param _message The message of the notification\n     * @param _targetAdr The address to ping in case msg.sender should not be used\n     */\n    function addNotification(uint _dateTime, uint8 _subject, bytes32 _message, address _targetAdr)\n        public\n        isIntAuth\n    {\n        // Ensure _dateTime proposed is a DateTime in the future\n        require(_dateTime > now);\n        \n        // if the target address is not defined set it to the msg.sender's address\n        if (_targetAdr == address(0x0))\n            _targetAdr = msg.sender;\n\n        // Add the new notification to the array in mapping\n        notification[_dateTime / 10].push(NotificationEntry({\n            notificationAddress: _targetAdr,\n            subject: _subject,\n            message: _message\n        }));\n\n        // Set the has entries mapping for this 100-second interval to true\n        timeIntervalHasEntries[_dateTime / 100] = true;\n    }\n\n    /**@dev Function to execute the ping notifications scheduled since last ping\n     */\n    function ping() public {\n        // Get the time now as a 10 second intervall --- This 10 second interval is also to be executed\n        uint timeNow_10_S = now / 10;\n\n        // 100 second loop interation\n        for (uint i_100_S = lastPingExec_10_S / 10; i_100_S <= timeNow_10_S / 10; i_100_S++) {\n            // Verify it this intervall has entries\n            if (timeIntervalHasEntries[i_100_S] == true) {\n                // Iterate throught the 10 slots within this 100 second itervall\n                for (uint j_10_S = i_100_S * 10; j_10_S < (i_100_S + 1) * 10 ; j_10_S++) {\n                    // Verify if the selected 10 second time slot is within\n                    //    => the lower or equal bound of lastPingExec_10_S and \n                    //    => the higher or equal bound of timeNow_10_S\n                    if ((j_10_S >= lastPingExec_10_S) && (j_10_S <= timeNow_10_S)) {\n                        // Iterate through every entry in a slot\n                        for (uint k=0; k<notification[j_10_S].length; k++) {\n                            // Invoke the ping notification using the contracts address\n                            uint rescheduleTimeDelta = \n                                NotificationI(notification[j_10_S][k].notificationAddress).ping(notification[j_10_S][k].subject, notification[j_10_S][k].message, j_10_S * 10);\n                            // if the ping returns a reschedule value greater 0 => reschedule the notification\n                            if (rescheduleTimeDelta > 0) {\n                                // Calculate the new reschedule DateTime\n                                uint nextPingEventDateTime_10_S = j_10_S + (rescheduleTimeDelta / 10);\n                                // Add the next ping notification to the mapping\n                                notification[nextPingEventDateTime_10_S].push(NotificationEntry({\n                                    notificationAddress: notification[j_10_S][k].notificationAddress,\n                                    subject: notification[j_10_S][k].subject,\n                                    message: notification[j_10_S][k].message\n                                    }\n                                ));\n                                // Set the has entries mapping for this 10-second interval to true\n                                timeIntervalHasEntries[nextPingEventDateTime_10_S / 10] = true;\n                            }\n                        }\n                    }\n                }\n            }\n        }\n        // Set the next ping execution timeslot timeNow_10_S + 1\n        lastPingExec_10_S = timeNow_10_S + 1;\n    }\n\n    /**@dev Returns the number of scheduled ping notifications for the specified timestamp period\n     * @param _timestampPeriod The 10 second period for which to check if notifications exist\n     * @return Number of notifications scheduled for the period specified.\n     */\n    function getTimerNotificationCount(uint _timestampPeriod) \n        public\n        constant\n        returns (uint) \n    {\n        return notification[_timestampPeriod].length;\n    }\n\n    /**@dev Returns the time of the blockchain\n     * @return Current time of the blockchain (EPOCH)\n     */\n    function getBlockchainEPOCHTime() \n        public\n        constant\n        returns (uint) \n    {\n        return now;\n    }\n\n    // ********************************************************************\n    // *** Helper functions for testing - Needs to be removed in production\n    // ********************************************************************\n\n    function manualPing(address _pingAdr, uint8 _subject, bytes32 _message, uint _scheduledDateTime) public {\n        NotificationI(_pingAdr).ping(_subject, _message, _scheduledDateTime);\n        // Set the next ping execution to now\n        lastPingExec_10_S = now / 10;\n    }\n}",
  "sourcePath": "/Users/Martin/Dapp/01HIC/46-HIC-2017-01-31/contracts/Timer.sol",
  "compiler": {
    "name": "solc",
    "version": "0.4.18+commit.9cf6e910.Emscripten.clang"
  },
  "schemaVersion": "1.0.1",
  "updatedAt": "2018-01-30T23:40:32.077Z"
}