{
  "contractName": "Trust",
  "abi": [
    {
      "constant": false,
      "inputs": [
        {
          "name": "_wcExpenses_Cu",
          "type": "uint256"
        }
      ],
      "name": "setWcExpenses",
      "outputs": [],
      "payable": false,
      "stateMutability": "nonpayable",
      "type": "function"
    },
    {
      "constant": false,
      "inputs": [],
      "name": "rotateKey",
      "outputs": [],
      "payable": false,
      "stateMutability": "nonpayable",
      "type": "function"
    },
    {
      "constant": false,
      "inputs": [
        {
          "name": "_adjustorAdr",
          "type": "address"
        },
        {
          "name": "_settlementApprovalAmount_Cu",
          "type": "uint256"
        },
        {
          "name": "_policyRiskPointLimit",
          "type": "uint256"
        },
        {
          "name": "_serviceAgreementHash",
          "type": "bytes32"
        }
      ],
      "name": "createAdjustor",
      "outputs": [],
      "payable": false,
      "stateMutability": "nonpayable",
      "type": "function"
    },
    {
      "constant": true,
      "inputs": [],
      "name": "getPreAuthKey",
      "outputs": [
        {
          "name": "",
          "type": "address"
        }
      ],
      "payable": false,
      "stateMutability": "view",
      "type": "function"
    },
    {
      "constant": true,
      "inputs": [],
      "name": "getPreAuthExpiry",
      "outputs": [
        {
          "name": "",
          "type": "uint256"
        }
      ],
      "payable": false,
      "stateMutability": "view",
      "type": "function"
    },
    {
      "constant": false,
      "inputs": [
        {
          "name": "_adjustorHash",
          "type": "bytes32"
        }
      ],
      "name": "retireAdjustor",
      "outputs": [],
      "payable": false,
      "stateMutability": "nonpayable",
      "type": "function"
    },
    {
      "constant": false,
      "inputs": [
        {
          "name": "_trustAdr",
          "type": "address"
        },
        {
          "name": "_poolAdr",
          "type": "address"
        },
        {
          "name": "_bondAdr",
          "type": "address"
        },
        {
          "name": "_bankAdr",
          "type": "address"
        },
        {
          "name": "_policyAdr",
          "type": "address"
        },
        {
          "name": "_settlementAdr",
          "type": "address"
        },
        {
          "name": "_adjustorAdr",
          "type": "address"
        },
        {
          "name": "_timerAdr",
          "type": "address"
        }
      ],
      "name": "setContractAdr",
      "outputs": [],
      "payable": false,
      "stateMutability": "nonpayable",
      "type": "function"
    },
    {
      "constant": true,
      "inputs": [],
      "name": "getBankAdr",
      "outputs": [
        {
          "name": "",
          "type": "address"
        }
      ],
      "payable": false,
      "stateMutability": "view",
      "type": "function"
    },
    {
      "constant": false,
      "inputs": [
        {
          "name": "_adr",
          "type": "address"
        }
      ],
      "name": "addKey",
      "outputs": [],
      "payable": false,
      "stateMutability": "nonpayable",
      "type": "function"
    },
    {
      "constant": true,
      "inputs": [],
      "name": "getPolicyAdr",
      "outputs": [
        {
          "name": "",
          "type": "address"
        }
      ],
      "payable": false,
      "stateMutability": "view",
      "type": "function"
    },
    {
      "constant": true,
      "inputs": [],
      "name": "EXT_ACCESS_PRE_AUTH_DURATION_SEC",
      "outputs": [
        {
          "name": "",
          "type": "uint256"
        }
      ],
      "payable": false,
      "stateMutability": "view",
      "type": "function"
    },
    {
      "constant": true,
      "inputs": [],
      "name": "getSettlementAdr",
      "outputs": [
        {
          "name": "",
          "type": "address"
        }
      ],
      "payable": false,
      "stateMutability": "view",
      "type": "function"
    },
    {
      "constant": false,
      "inputs": [
        {
          "name": "_poolAdr",
          "type": "address"
        },
        {
          "name": "_bondAdr",
          "type": "address"
        },
        {
          "name": "_bankAdr",
          "type": "address"
        },
        {
          "name": "_policyAdr",
          "type": "address"
        },
        {
          "name": "_settlementAdr",
          "type": "address"
        },
        {
          "name": "_adjustorAdr",
          "type": "address"
        },
        {
          "name": "_timerAdr",
          "type": "address"
        },
        {
          "name": "_isWinterTime",
          "type": "bool"
        }
      ],
      "name": "initEcosystem",
      "outputs": [],
      "payable": false,
      "stateMutability": "nonpayable",
      "type": "function"
    },
    {
      "constant": false,
      "inputs": [
        {
          "name": "_adjustorHash",
          "type": "bytes32"
        },
        {
          "name": "_adjustorAdr",
          "type": "address"
        },
        {
          "name": "_settlementApprovalAmount_Cu",
          "type": "uint256"
        },
        {
          "name": "_policyRiskPointLimit",
          "type": "uint256"
        },
        {
          "name": "_serviceAgreementHash",
          "type": "bytes32"
        }
      ],
      "name": "updateAdjustor",
      "outputs": [],
      "payable": false,
      "stateMutability": "nonpayable",
      "type": "function"
    },
    {
      "constant": true,
      "inputs": [],
      "name": "getAdjustorAdr",
      "outputs": [
        {
          "name": "",
          "type": "address"
        }
      ],
      "payable": false,
      "stateMutability": "view",
      "type": "function"
    },
    {
      "constant": true,
      "inputs": [],
      "name": "getTimerAdr",
      "outputs": [
        {
          "name": "",
          "type": "address"
        }
      ],
      "payable": false,
      "stateMutability": "view",
      "type": "function"
    },
    {
      "constant": false,
      "inputs": [],
      "name": "adjustDaylightSaving",
      "outputs": [],
      "payable": false,
      "stateMutability": "nonpayable",
      "type": "function"
    },
    {
      "constant": true,
      "inputs": [],
      "name": "getContractAdr",
      "outputs": [
        {
          "name": "trustContractAdr",
          "type": "address"
        },
        {
          "name": "poolContractAdr",
          "type": "address"
        },
        {
          "name": "bondContractAdr",
          "type": "address"
        },
        {
          "name": "bankContractAdr",
          "type": "address"
        },
        {
          "name": "policyContractAdr",
          "type": "address"
        },
        {
          "name": "settlementContractAdr",
          "type": "address"
        },
        {
          "name": "adjustorContractAdr",
          "type": "address"
        },
        {
          "name": "timerContractAdr",
          "type": "address"
        }
      ],
      "payable": false,
      "stateMutability": "view",
      "type": "function"
    },
    {
      "constant": false,
      "inputs": [],
      "name": "preAuth",
      "outputs": [],
      "payable": false,
      "stateMutability": "nonpayable",
      "type": "function"
    },
    {
      "constant": true,
      "inputs": [],
      "name": "getTrustAdr",
      "outputs": [
        {
          "name": "",
          "type": "address"
        }
      ],
      "payable": false,
      "stateMutability": "view",
      "type": "function"
    },
    {
      "constant": true,
      "inputs": [],
      "name": "getBondAdr",
      "outputs": [
        {
          "name": "",
          "type": "address"
        }
      ],
      "payable": false,
      "stateMutability": "view",
      "type": "function"
    },
    {
      "constant": true,
      "inputs": [],
      "name": "getExtAccessKey",
      "outputs": [
        {
          "name": "authKey0",
          "type": "address"
        },
        {
          "name": "authKey1",
          "type": "address"
        },
        {
          "name": "authKey2",
          "type": "address"
        },
        {
          "name": "authKey3",
          "type": "address"
        },
        {
          "name": "authKey4",
          "type": "address"
        }
      ],
      "payable": false,
      "stateMutability": "view",
      "type": "function"
    },
    {
      "constant": true,
      "inputs": [],
      "name": "getPoolAdr",
      "outputs": [
        {
          "name": "",
          "type": "address"
        }
      ],
      "payable": false,
      "stateMutability": "view",
      "type": "function"
    },
    {
      "inputs": [],
      "payable": false,
      "stateMutability": "nonpayable",
      "type": "constructor"
    },
    {
      "anonymous": false,
      "inputs": [
        {
          "indexed": true,
          "name": "subject",
          "type": "bytes32"
        },
        {
          "indexed": true,
          "name": "adr",
          "type": "address"
        },
        {
          "indexed": true,
          "name": "info",
          "type": "bytes32"
        },
        {
          "indexed": false,
          "name": "timestamp",
          "type": "uint256"
        }
      ],
      "name": "LogTrust",
      "type": "event"
    }
  ],
  "bytecode": "0x606060405260098054600160a060020a03191690556000600a5534156200002557600080fd5b3380600160a060020a03811615156200003d57600080fd5b60008054600160a060020a031916600160a060020a03928316179055811615156200006757600080fd5b620000808164010000000062000b8e620000e782021704565b506000600160a060020a0330167f5472757374436f6e74726163744372656174696f6e00000000000000000000007f9f32520e05247895f5262841a10730a0ba6623615e85a9a8efafb43a1b2df22b4260405190815260200160405180910390a462000671565b6002600090815260086020526000805160206200259783398151915254600160a060020a031615620002295742600a541180156200012f5750600954600160a060020a031615155b80156200014b575060095433600160a060020a03908116911614155b15156200015757600080fd5b60016000526008602052600080516020620025b78339815191525433600160a060020a0390811691161480620001b3575060026000526008602052600080516020620025978339815191525433600160a060020a039081169116145b80620001e5575060036000526008602052600080516020620025778339815191525433600160a060020a039081169116145b8062000217575060046000526008602052600080516020620025f78339815191525433600160a060020a039081169116145b15156200022357600080fd5b62000316565b600080526008602052600080516020620025d783398151915254600160a060020a03161580620002ab575060016000526008602052600080516020620025b783398151915254600160a060020a0316158015620002ab5750600080526008602052600080516020620025d78339815191525433600160a060020a039081169116145b806200030a5750600260005260086020526000805160206200259783398151915254600160a060020a03161580156200030a575060016000526008602052600080516020620025b78339815191525433600160a060020a039081169116145b15156200031657600080fd5b60098054600160a060020a03191690556000600a55600160a060020a03821615156200034157600080fd5b600080526008602052600080516020620025d783398151915254600160a060020a038381169116148015906200039d575060016000526008602052600080516020620025b783398151915254600160a060020a03838116911614155b8015620003d05750600260005260086020526000805160206200259783398151915254600160a060020a03838116911614155b8015620004035750600360005260086020526000805160206200257783398151915254600160a060020a03838116911614155b801562000436575060046000526008602052600080516020620025f783398151915254600160a060020a03838116911614155b15156200044257600080fd5b60046000526008602052600080516020620025f783398151915254600160a060020a0316156200047157600080fd5b50803b80156200048057600080fd5b600080526008602052600080516020620025d783398151915254600160a060020a03161515620004e257600080526008602052600080516020620025d78339815191528054600160a060020a031916600160a060020a0384161790556200066d565b60016000526008602052600080516020620025b783398151915254600160a060020a03161515620005465760016000526008602052600080516020620025b78339815191528054600160a060020a031916600160a060020a0384161790556200066d565b600260005260086020526000805160206200259783398151915254600160a060020a03161515620005aa5760026000526008602052600080516020620025978339815191528054600160a060020a031916600160a060020a0384161790556200066d565b600360005260086020526000805160206200257783398151915254600160a060020a031615156200060e5760036000526008602052600080516020620025778339815191528054600160a060020a031916600160a060020a0384161790556200066d565b60046000526008602052600080516020620025f783398151915254600160a060020a031615156200066d5760046000526008602052600080516020620025f78339815191528054600160a060020a031916600160a060020a0384161790555b5050565b611ef680620006816000396000f3006060604052600436106101195763ffffffff60e060020a60003504166315274a74811461011e578063153a5eaa1461013657806316193c2d146101495780631a8ff081146101715780631be5cec3146101a05780632b673d9b146101c55780634414693c146101db5780634aa79747146102245780635f7b68be14610237578063648596e9146102565780636e7bc1631461026957806375c3357b1461027c57806377ac39a91461028f5780637c812952146102d757806383a46bd7146103025780638d9791a9146103155780639edb128014610328578063aa08eb241461033b578063ac9dddc6146103a3578063ad910d85146103b6578063ba06ae46146103c9578063c52a9d4f146103dc578063f83e94a61461042d575b600080fd5b341561012957600080fd5b610134600435610440565b005b341561014157600080fd5b610134610531565b341561015457600080fd5b610134600160a060020a036004351660243560443560643561082e565b341561017c57600080fd5b61018461093f565b604051600160a060020a03909116815260200160405180910390f35b34156101ab57600080fd5b6101b361094e565b60405190815260200160405180910390f35b34156101d057600080fd5b610134600435610954565b34156101e657600080fd5b610134600160a060020a0360043581169060243581169060443581169060643581169060843581169060a43581169060c43581169060e43516610a2e565b341561022f57600080fd5b610184610b7f565b341561024257600080fd5b610134600160a060020a0360043516610b8e565b341561026157600080fd5b6101846110df565b341561027457600080fd5b6101b36110ee565b341561028757600080fd5b6101846110f4565b341561029a57600080fd5b610134600160a060020a0360043581169060243581169060443581169060643581169060843581169060a43581169060c4351660e4351515611103565b34156102e257600080fd5b610134600435600160a060020a03602435166044356064356084356119a0565b341561030d57600080fd5b610184611abb565b341561032057600080fd5b610184611aca565b341561033357600080fd5b610134611ad9565b341561034657600080fd5b61034e611c0f565b604051600160a060020a039889168152968816602088015294871660408088019190915293871660608701529186166080860152851660a0850152841660c0840152921660e082015261010001905180910390f35b34156103ae57600080fd5b610134611c50565b34156103c157600080fd5b610184611d67565b34156103d457600080fd5b610184611d76565b34156103e757600080fd5b6103ef611d85565b604051600160a060020a039586168152938516602085015291841660408085019190915290841660608401529216608082015260a001905180910390f35b341561043857600080fd5b610184611dfb565b600080526008602052600080516020611e6b83398151915254600160a060020a031615806104925750600080526008602052600080516020611e6b8339815191525433600160a060020a039081169116145b806104c2575060016000526008602052600080516020611e4b8339815191525433600160a060020a039081169116145b15156104cd57600080fd5b6104d5611dfb565b600160a060020a03166315274a748260405160e060020a63ffffffff84160281526004810191909152602401600060405180830381600087803b151561051a57600080fd5b6102c65a03f1151561052b57600080fd5b50505050565b60026000526008602052600080516020611e2b83398151915254600160a060020a0316156106635742600a541180156105745750600954600160a060020a031615155b801561058f575060095433600160a060020a03908116911614155b151561059a57600080fd5b60016000526008602052600080516020611e4b8339815191525433600160a060020a03908116911614806105f3575060026000526008602052600080516020611e2b8339815191525433600160a060020a039081169116145b80610623575060036000526008602052600080516020611e0b8339815191525433600160a060020a039081169116145b80610653575060046000526008602052600080516020611e8b8339815191525433600160a060020a039081169116145b151561065e57600080fd5b610746565b600080526008602052600080516020611e6b83398151915254600160a060020a031615806106e0575060016000526008602052600080516020611e4b83398151915254600160a060020a03161580156106e05750600080526008602052600080516020611e6b8339815191525433600160a060020a039081169116145b8061073b575060026000526008602052600080516020611e2b83398151915254600160a060020a031615801561073b575060016000526008602052600080516020611e4b8339815191525433600160a060020a039081169116145b151561074657600080fd5b60098054600160a060020a03191690556000600a819055600490526008602052600080516020611e8b83398151915254600160a060020a0316151561078a57600080fd5b6008602052600080516020611e4b8339815191528054600080516020611e6b8339815191528054600160a060020a0319908116600160a060020a0380851691909117909255600080516020611e2b833981519152805493821684841617909455600080516020611e0b833981519152805493821684841617909455600080516020611e8b833981519152805493821692841692909217909355600460005291169055565b600080526008602052600080516020611e6b83398151915254600160a060020a031615806108805750600080526008602052600080516020611e6b8339815191525433600160a060020a039081169116145b806108b0575060016000526008602052600080516020611e4b8339815191525433600160a060020a039081169116145b15156108bb57600080fd5b6108c3611abb565b600160a060020a03166316193c2d8585858560405160e060020a63ffffffff8716028152600160a060020a039094166004850152602484019290925260448301526064820152608401600060405180830381600087803b151561092557600080fd5b6102c65a03f1151561093657600080fd5b50505050505050565b600954600160a060020a031690565b600a5490565b600080526008602052600080516020611e6b83398151915254600160a060020a031615806109a65750600080526008602052600080516020611e6b8339815191525433600160a060020a039081169116145b806109d6575060016000526008602052600080516020611e4b8339815191525433600160a060020a039081169116145b15156109e157600080fd5b6109e9611abb565b600160a060020a0316632b673d9b8260405160e060020a63ffffffff84160281526004810191909152602401600060405180830381600087803b151561051a57600080fd5b60005433600160a060020a03908116911614610a4957600080fd5b600160a060020a0388161515610a5e57600080fd5b600160a060020a0387161515610a7357600080fd5b600160a060020a0386161515610a8857600080fd5b600160a060020a0385161515610a9d57600080fd5b600160a060020a0384161515610ab257600080fd5b600160a060020a0383161515610ac757600080fd5b600160a060020a0382161515610adc57600080fd5b600160a060020a0381161515610af157600080fd5b60008054600160a060020a0319908116600160a060020a039a8b1617909155600180548216988a1698909817909755600280548816968916969096179095556003805487169488169490941790935560048054861692871692909217909155600580548516918616919091179055600680548416918516919091179055600780549092169216919091179055565b600354600160a060020a031690565b600260009081526008602052600080516020611e2b83398151915254600160a060020a031615610cc25742600a54118015610bd35750600954600160a060020a031615155b8015610bee575060095433600160a060020a03908116911614155b1515610bf957600080fd5b60016000526008602052600080516020611e4b8339815191525433600160a060020a0390811691161480610c52575060026000526008602052600080516020611e2b8339815191525433600160a060020a039081169116145b80610c82575060036000526008602052600080516020611e0b8339815191525433600160a060020a039081169116145b80610cb2575060046000526008602052600080516020611e8b8339815191525433600160a060020a039081169116145b1515610cbd57600080fd5b610da5565b600080526008602052600080516020611e6b83398151915254600160a060020a03161580610d3f575060016000526008602052600080516020611e4b83398151915254600160a060020a0316158015610d3f5750600080526008602052600080516020611e6b8339815191525433600160a060020a039081169116145b80610d9a575060026000526008602052600080516020611e2b83398151915254600160a060020a0316158015610d9a575060016000526008602052600080516020611e4b8339815191525433600160a060020a039081169116145b1515610da557600080fd5b60098054600160a060020a03191690556000600a55600160a060020a0382161515610dcf57600080fd5b600080526008602052600080516020611e6b83398151915254600160a060020a03838116911614801590610e28575060016000526008602052600080516020611e4b83398151915254600160a060020a03838116911614155b8015610e59575060026000526008602052600080516020611e2b83398151915254600160a060020a03838116911614155b8015610e8a575060036000526008602052600080516020611e0b83398151915254600160a060020a03838116911614155b8015610ebb575060046000526008602052600080516020611e8b83398151915254600160a060020a03838116911614155b1515610ec657600080fd5b60046000526008602052600080516020611e8b83398151915254600160a060020a031615610ef357600080fd5b50803b8015610f0157600080fd5b600080526008602052600080516020611e6b83398151915254600160a060020a03161515610f5f57600080526008602052600080516020611e6b8339815191528054600160a060020a031916600160a060020a0384161790556110db565b60016000526008602052600080516020611e4b83398151915254600160a060020a03161515610fbf5760016000526008602052600080516020611e4b8339815191528054600160a060020a031916600160a060020a0384161790556110db565b60026000526008602052600080516020611e2b83398151915254600160a060020a0316151561101f5760026000526008602052600080516020611e2b8339815191528054600160a060020a031916600160a060020a0384161790556110db565b60036000526008602052600080516020611e0b83398151915254600160a060020a0316151561107f5760036000526008602052600080516020611e0b8339815191528054600160a060020a031916600160a060020a0384161790556110db565b60046000526008602052600080516020611e8b83398151915254600160a060020a031615156110db5760046000526008602052600080516020611e8b8339815191528054600160a060020a031916600160a060020a0384161790555b5050565b600454600160a060020a031690565b61012c81565b600554600160a060020a031690565b600080526008602052600080516020611e6b83398151915254600160a060020a031615806111555750600080526008602052600080516020611e6b8339815191525433600160a060020a039081169116145b80611185575060016000526008602052600080516020611e4b8339815191525433600160a060020a039081169116145b151561119057600080fd5b600061119a611dfb565b600160a060020a0316146111ad57600080fd5b60006111b7611d76565b600160a060020a0316146111ca57600080fd5b60006111d4610b7f565b600160a060020a0316146111e757600080fd5b60006111f16110df565b600160a060020a03161461120457600080fd5b600061120e6110f4565b600160a060020a03161461122157600080fd5b600061122b611abb565b600160a060020a03161461123e57600080fd5b6000611248611aca565b600160a060020a03161461125b57600080fd5b61126b3089898989898989610a2e565b87600160a060020a0316634414693c308a8a8a8a8a8a8a60405160e060020a63ffffffff8b16028152600160a060020a0398891660048201529688166024880152948716604487015292861660648601529085166084850152841660a4840152831660c483015290911660e482015261010401600060405180830381600087803b15156112f757600080fd5b6102c65a03f1151561130857600080fd5b50505086600160a060020a0316634414693c308a8a8a8a8a8a8a60405160e060020a63ffffffff8b16028152600160a060020a0398891660048201529688166024880152948716604487015292861660648601529085166084850152841660a4840152831660c483015290911660e482015261010401600060405180830381600087803b151561139757600080fd5b6102c65a03f115156113a857600080fd5b50505085600160a060020a0316634414693c308a8a8a8a8a8a8a60405160e060020a63ffffffff8b16028152600160a060020a0398891660048201529688166024880152948716604487015292861660648601529085166084850152841660a4840152831660c483015290911660e482015261010401600060405180830381600087803b151561143757600080fd5b6102c65a03f1151561144857600080fd5b50505084600160a060020a0316634414693c308a8a8a8a8a8a8a60405160e060020a63ffffffff8b16028152600160a060020a0398891660048201529688166024880152948716604487015292861660648601529085166084850152841660a4840152831660c483015290911660e482015261010401600060405180830381600087803b15156114d757600080fd5b6102c65a03f115156114e857600080fd5b50505083600160a060020a0316634414693c308a8a8a8a8a8a8a60405160e060020a63ffffffff8b16028152600160a060020a0398891660048201529688166024880152948716604487015292861660648601529085166084850152841660a4840152831660c483015290911660e482015261010401600060405180830381600087803b151561157757600080fd5b6102c65a03f1151561158857600080fd5b50505082600160a060020a0316634414693c308a8a8a8a8a8a8a60405160e060020a63ffffffff8b16028152600160a060020a0398891660048201529688166024880152948716604487015292861660648601529085166084850152841660a4840152831660c483015290911660e482015261010401600060405180830381600087803b151561161757600080fd5b6102c65a03f1151561162857600080fd5b50505081600160a060020a0316634414693c308a8a8a8a8a8a8a60405160e060020a63ffffffff8b16028152600160a060020a0398891660048201529688166024880152948716604487015292861660648601529085166084850152841660a4840152831660c483015290911660e482015261010401600060405180830381600087803b15156116b757600080fd5b6102c65a03f115156116c857600080fd5b506000915050600160a060020a0330167f5365745472757374416464726573730000000000000000000000000000000000600080516020611eab8339815191524260405190815260200160405180910390a46000600160a060020a0389167f536574506f6f6c41646472657373000000000000000000000000000000000000600080516020611eab8339815191524260405190815260200160405180910390a46000600160a060020a0388167f536574426f6e6441646472657373000000000000000000000000000000000000600080516020611eab8339815191524260405190815260200160405180910390a46000600160a060020a0387167f53657442616e6b41646472657373000000000000000000000000000000000000600080516020611eab8339815191524260405190815260200160405180910390a46000600160a060020a0386167f536574506f6c6963794164647265737300000000000000000000000000000000600080516020611eab8339815191524260405190815260200160405180910390a46000600160a060020a0385167f536574536574746c656d656e7441646472657373000000000000000000000000600080516020611eab8339815191524260405190815260200160405180910390a46000600160a060020a0384167f53657441646a7573746f72416464726573730000000000000000000000000000600080516020611eab8339815191524260405190815260200160405180910390a46000600160a060020a0383167f53657454696d6572416464726573730000000000000000000000000000000000600080516020611eab8339815191524260405190815260200160405180910390a487600160a060020a03166336b7b1e58260405160e060020a63ffffffff84160281529015156004820152602401600060405180830381600087803b151561198257600080fd5b6102c65a03f1151561199357600080fd5b5050505050505050505050565b600080526008602052600080516020611e6b83398151915254600160a060020a031615806119f25750600080526008602052600080516020611e6b8339815191525433600160a060020a039081169116145b80611a22575060016000526008602052600080516020611e4b8339815191525433600160a060020a039081169116145b1515611a2d57600080fd5b611a35611abb565b600160a060020a0316637c812952868686868660405160e060020a63ffffffff88160281526004810195909552600160a060020a03909316602485015260448401919091526064830152608482015260a401600060405180830381600087803b1515611aa057600080fd5b6102c65a03f11515611ab157600080fd5b5050505050505050565b600654600160a060020a031690565b600754600160a060020a031690565b600080526008602052600080516020611e6b83398151915254600160a060020a03161580611b2b5750600080526008602052600080516020611e6b8339815191525433600160a060020a039081169116145b80611b5b575060016000526008602052600080516020611e4b8339815191525433600160a060020a039081169116145b1515611b6657600080fd5b611b6e611dfb565b600160a060020a0316639edb12806040518163ffffffff1660e060020a028152600401600060405180830381600087803b1515611baa57600080fd5b6102c65a03f11515611bbb57600080fd5b506000915050600160a060020a0333167f4368616e6765496e4461796c69676874536176696e6700000000000000000000600080516020611eab8339815191524260405190815260200160405180910390a4565b600054600154600254600354600454600554600654600754600160a060020a0397881698968816979586169694861695938416949284169391821692911690565b60026000526008602052600080516020611e2b83398151915254600160a060020a03161515611c7e57600080fd5b60016000526008602052600080516020611e4b8339815191525433600160a060020a0390811691161480611cd7575060026000526008602052600080516020611e2b8339815191525433600160a060020a039081169116145b80611d07575060036000526008602052600080516020611e0b8339815191525433600160a060020a039081169116145b80611d37575060046000526008602052600080516020611e8b8339815191525433600160a060020a039081169116145b1515611d4257600080fd5b60098054600160a060020a03191633600160a060020a03161790554261012c01600a55565b600054600160a060020a031690565b600254600160a060020a031690565b6008602052600080516020611e6b83398151915254600080516020611e4b83398151915254600080516020611e2b83398151915254600080516020611e0b833981519152546004600052600080516020611e8b83398151915254600160a060020a03948516959385169492831693918316921690565b600154600160a060020a0316905600625b35f5e76f098dd7c3a05b10e2e5e78a4a01228d60c3b143426cdf36d264556add646517a5b0f6793cd5891b7937d28a5b2981a5d88ebc7cd776088fea9041ad67d757c34507f157cacfa2e3153e9f260a2244f30428821be7be64587ac55f5eff886ea0ce6ca488a3d6e336d6c0f75f46d19b42c06ce5ee98e42c96d256c79321edea6e3be4df59a344b401fab4f888b556fda1f954244cff9204bad624b89f32520e05247895f5262841a10730a0ba6623615e85a9a8efafb43a1b2df22ba165627a7a72305820aa55c106ea45a9965c335569ddd7eedc9db3b94057f8506387dae31bef9995eb0029625b35f5e76f098dd7c3a05b10e2e5e78a4a01228d60c3b143426cdf36d264556add646517a5b0f6793cd5891b7937d28a5b2981a5d88ebc7cd776088fea9041ad67d757c34507f157cacfa2e3153e9f260a2244f30428821be7be64587ac55f5eff886ea0ce6ca488a3d6e336d6c0f75f46d19b42c06ce5ee98e42c96d256c79321edea6e3be4df59a344b401fab4f888b556fda1f954244cff9204bad624b8",
  "source": "/**\n * @description Trust contract\n * @copyright (c) 2017 Honest Insurance\n * @author Martin Stellnberger\n * @license GPL-3.0\n */\n\npragma solidity ^0.4.18;\n\nimport \"./Pool.sol\";\nimport \"./IntAccessI.sol\";\nimport \"./ExtAccessI.sol\";\nimport \"./Adjustor.sol\";\n\n\n/** @title Trust contract for the Insurance Pool.*/\ncontract Trust is IntAccessI, ExtAccessI {\n\n    // Events broadcasted by the Trust / Log events\n    event LogTrust(bytes32 indexed subject, address indexed adr, bytes32 indexed info, uint timestamp);\n\n    /**@dev Constructor of the Trust.\n     */\n    function Trust() IntAccessI(msg.sender) ExtAccessI(msg.sender) public {\n        // Add log entry\n        LogTrust(bytes32(\"TrustContractCreation\"), address(this), 0x0, now);\n    }\n\n    /**@dev Function initialises the addresses of insurance pool ecosystem (can be called only once).\n     * @param _poolAdr The address of the pool.\n     * @param _bondAdr The address of the bond.\n     * @param _bankAdr The address of the bank.\n     * @param _policyAdr The address of the policy.\n     * @param _settlementAdr The address of the settlement.\n     * @param _adjustorAdr The address of the adjustor.\n     * @param _timerAdr The address of the timer.\n     * @param _isWinterTime Indicates if it is summer or winter time\n     */\n    function initEcosystem(address _poolAdr, address _bondAdr, address _bankAdr, address _policyAdr,\n        address _settlementAdr, address _adjustorAdr, address _timerAdr, bool _isWinterTime)\n        public\n        isExtAuth\n    {\n        // Verify no addresses have been specified previously\n        require(getPoolAdr() == address(0x0));\n        require(getBondAdr() == address(0x0));\n        require(getBankAdr() == address(0x0));\n        require(getPolicyAdr() == address(0x0));\n        require(getSettlementAdr() == address(0x0));\n        require(getAdjustorAdr() == address(0x0));\n        require(getTimerAdr() == address(0x0));\n\n        // Initialise the contract addresses for this Pool contract\n        setContractAdr(address(this), _poolAdr, _bondAdr, _bankAdr, _policyAdr, _settlementAdr, _adjustorAdr, _timerAdr);\n\n        // Call the other contracts and initialise them as well\n        IntAccessI(_poolAdr).setContractAdr(address(this), _poolAdr, _bondAdr, _bankAdr, _policyAdr, _settlementAdr, _adjustorAdr, _timerAdr);\n        IntAccessI(_bondAdr).setContractAdr(address(this), _poolAdr, _bondAdr, _bankAdr, _policyAdr, _settlementAdr, _adjustorAdr, _timerAdr);\n        IntAccessI(_bankAdr).setContractAdr(address(this), _poolAdr, _bondAdr, _bankAdr, _policyAdr, _settlementAdr, _adjustorAdr, _timerAdr);\n        IntAccessI(_policyAdr).setContractAdr(address(this), _poolAdr, _bondAdr, _bankAdr, _policyAdr, _settlementAdr, _adjustorAdr, _timerAdr);\n        IntAccessI(_settlementAdr).setContractAdr(address(this), _poolAdr, _bondAdr, _bankAdr, _policyAdr, _settlementAdr, _adjustorAdr, _timerAdr);\n        IntAccessI(_adjustorAdr).setContractAdr(address(this), _poolAdr, _bondAdr, _bankAdr, _policyAdr, _settlementAdr, _adjustorAdr, _timerAdr);\n        IntAccessI(_timerAdr).setContractAdr(address(this), _poolAdr, _bondAdr, _bankAdr, _policyAdr, _settlementAdr, _adjustorAdr, _timerAdr);\n        \n        // Add log entries\n        LogTrust(bytes32(\"SetTrustAddress\"), address(this), 0x0, now);\n        LogTrust(bytes32(\"SetPoolAddress\"), _poolAdr, 0x0, now);\n        LogTrust(bytes32(\"SetBondAddress\"), _bondAdr, 0x0, now);\n        LogTrust(bytes32(\"SetBankAddress\"), _bankAdr, 0x0, now);\n        LogTrust(bytes32(\"SetPolicyAddress\"), _policyAdr, 0x0, now);\n        LogTrust(bytes32(\"SetSettlementAddress\"), _settlementAdr, 0x0, now);\n        LogTrust(bytes32(\"SetAdjustorAddress\"), _adjustorAdr, 0x0, now);\n        LogTrust(bytes32(\"SetTimerAddress\"), _timerAdr, 0x0, now);\n\n        // Initialise the pool variables\n        Pool(_poolAdr).initEcosystem(_isWinterTime);\n    }\n\n    /**@dev Function overwrites the WC_Exp_Cu to use for next overnight processing.\n            Preauthorisation is required to perform this operation.\n     * @param _wcExpenses_Cu Total Expenses of the pool within the DURATION_WC_EXPENSE_HISTORY_SEC period\n     */\n    function setWcExpenses(uint _wcExpenses_Cu)\n        public\n        isExtAuth\n    {\n        Pool(getPoolAdr()).setWcExpenses(_wcExpenses_Cu);\n\t}\n\n    /**@dev Function needs to be called by the  pool owners to inform the pool about daylight saving and leap second adjustments\n            within the 24 hours before the event occurs. Preauthorisation is required to perform this operation.\n     */\n    function adjustDaylightSaving()\n        public\n        isExtAuth\n    {\n        Pool(getPoolAdr()).adjustDaylightSaving();\n        LogTrust(bytes32(\"ChangeInDaylightSaving\"), msg.sender, 0x0, now);\n\t}\n\n    /**@dev Creates an new adjustor with the requested details - can only be called by the Trust\n     * @param _adjustorAdr Address/public key of the adjustor authorising the adjustor to submitt and process settlements\n     * @param _settlementApprovalAmount_Cu The amount this adjustor is authorised to process settlements\n     * @param _policyRiskPointLimit The risk point limit this adjustor is authorised to underwrite policies\n     * @param _serviceAgreementHash The hash of the new service agreement with the adjustor\n     */\n    function createAdjustor(address _adjustorAdr, uint _settlementApprovalAmount_Cu, uint _policyRiskPointLimit, bytes32 _serviceAgreementHash)\n        public\n        isExtAuth\n    {\n        Adjustor(getAdjustorAdr()).createAdjustor(_adjustorAdr, _settlementApprovalAmount_Cu, _policyRiskPointLimit, _serviceAgreementHash);\n    }\n\n    /**@dev Creates an new adjustor with the requested details - can only be called by the Trust\n     * @param _adjustorHash Hash of the adjustor that needs to be updated\n     * @param _adjustorAdr Address/public key of the adjustor authorising the adjustor to submitt and process settlements\n     * @param _settlementApprovalAmount_Cu The amount this adjustor is authorised to process settlements\n     * @param _policyRiskPointLimit The risk point limit this adjustor is authorised to underwrite policies\n     * @param _serviceAgreementHash The hash of the new service agreement with the adjustor\n     */\n    function updateAdjustor(bytes32 _adjustorHash, address _adjustorAdr, uint _settlementApprovalAmount_Cu, uint _policyRiskPointLimit, bytes32 _serviceAgreementHash)\n        public\n        isExtAuth\n    {\n        Adjustor(getAdjustorAdr()).updateAdjustor(_adjustorHash, _adjustorAdr, _settlementApprovalAmount_Cu, _policyRiskPointLimit, _serviceAgreementHash);\n    }\n\n    /**@dev Creates an new adjustor with the requested details - can only be called by the Trust\n     * @param _adjustorHash Hash of the adjustor that needs to be retired\n     */\n    function retireAdjustor(bytes32 _adjustorHash)\n        public\n        isExtAuth\n    {\n        Adjustor(getAdjustorAdr()).retireAdjustor(_adjustorHash);\n    }\n\n    // function changePoolEmergencyState()\n    //     public\n    //     isPreAuth\n    // {\n    // }\n\n    // function adjustBondYield(uint yield_Ppb)\n    //     public\n    //     isPreAuth\n    // {   \n    // }\n\n    // function initiatePoolRetirement()\n    //     public\n    //     isPreAuth\n    // {\n    // }\n}",
  "sourcePath": "/Users/Martin/Dapp/01HIC/46-HIC-2017-01-31/contracts/Trust.sol",
  "compiler": {
    "name": "solc",
    "version": "0.4.18+commit.9cf6e910.Emscripten.clang"
  },
  "schemaVersion": "1.0.1",
  "updatedAt": "2018-01-30T23:40:32.086Z"
}